:020000040800F2
:10000000C00A0020951F000847D5010847D5010800
:10001000E9EE010847D5010847D5010847D5010891
:1000200047D5010847D5010847D5010847D501083C
:1000300047D5010847D501084BD3010847D501082A
:1000400047D5010847D5010847D5010847D501081C
:1000500047D5010847D5010847D5010847D501080C
:1000600047D501086D1E00082FD4010847D50108A7
:1000700047D5010847D5010847D5010847D50108EC
:1000800047D5010847D5010847D5010847D50108DC
:1000900047D501086929000847D5010847D5010857
:1000A00047D50108E52A0008C12A000847D50108FC
:1000B00047D5010811AD010815B70108D78102081D
:1000C000D3810208E1AE0108E3810208DB81020866
:1000D000EDB60108DF81020855B70108B9B701087C
:1000E00047D5010847D5010847D5010847D501087C
:1000F000F7EA010847D5010847D5010847D50108A7
:1001000047D5010847D5010847D5010847D501085B
:1001100047D5010847D5010847D5010847D501084B
:1001200047D5010847D5010847D5010847D501083B
:1001300047D5010847D5010847D5010847D501082B
:1001400047D5010847D5010847D50108F5EF010853
:100150001596010847D501087B7E0208817E0208BA
:1001600047D5010847D5010847D5010847D50108FB
:10017000013800D0FCE770472DE9F04F2DED088BDA
:100180008DB09DED1E7B09EE903ADDE920430A9388
:10019000229B09EE100A8A460792069351EC170B30
:1001A00053EC172BB0EE478AF0EE678A1BF09EFFE8
:1001B00080B14FF0FF3251EC180BCF4B1BF0BEFF5C
:1001C00040B94FF0FF326FF4801351EC180B1BF065
:1001D00097FF98B1069B514622930A9B19EE100A8D
:1001E000CDE9204319EE903A079A8DED1E8B0DB0A4
:1001F000BDEC088BBDE8F04F00F0A2B9002200234F
:1002000051EC180B1BF07CFF002800F0448118EE25
:10021000903A18EE108A03F10049069BC9F30A5080
:1002200013F48063A0F2FF3008BF06240B931BF089
:100230008BFCA1A3D3E900231BF0F0FCA0A3D3E91E
:1002400000231BF035FBC9F313050F4645F07F5122
:1002500006460022A94B404641F440111BF026FB04
:1002600099A3D3E900231BF0D9FC02460B46304684
:1002700039461BF01DFB1BF06BFF83461BF064FC33
:1002800093A3D3E9002306460F461BF0C7FC0022C8
:100290009B4B1BF00DFB1BF05BFF8FA3D3E90023EF
:1002A0000546394630461BF0B9FC064628460F463F
:1002B0001BF04AFC8AA3D3E900231BF0AFFC0246E3
:1002C0000B46304639461BF0F1FA02460B4606460D
:1002D0000F461BF0A3FC324641EC1A0B3B4630465E
:1002E00039461BF0E5FA002241EC1B0B854B51EC23
:1002F0001A0B1BF0BDFD0022834B1BF0D9FA0246FE
:100300000B4651EC1A0B1BF0B3FD00227F4B1BF088
:10031000CFFA02460B4651EC1A0B1BF0A9FD3246F0
:1003200041EC1A0B3B4600204FF080411BF0BEFA17
:1003300002460B4651EC1A0B1BF0BAFA02460B466A
:1003400051EC1B0B1BF094FD05F2FF350022704BA6
:100350001BF0AEFA00222B051BF060FC42464B4618
:1003600006460F461BF0EAFE002840F09780CDE9D4
:1003700008670BF16303C72B069B34BF04250525D3
:10038000190521D558A3D3E90023404649461BF05F
:10039000CBFE002800F0BE8055A3D3E900234046E1
:1003A00049461BF0ADFE002800F0B48000255C45F6
:1003B000CCBFA4EB0B000024AB46069BC8BF00F1EA
:1003C000FF3443F4806306930A9B9D4238BF5E1B53
:1003D000069B28BF002613F0020702D0002D18BF8D
:1003E0000026BBF1000F07D0DDE90823404649464F
:1003F0001BF03EFD804689460022002351EC180B7D
:100400001BF07EFE10B109F100439946069B514650
:1004100023F40063CDE9036319EE100A19EE903A54
:10042000CDE90089079A029400F08AF875B3069B1B
:10043000024613F0200F00F1010619EE903A14BFA6
:1004400045206520514619EE104AA0470523002299
:1004500005930A238BEAEB70CDE90232A0EBEB7037
:100460004FEADB73013D0193009019EE903A32465A
:10047000514619EE100A04951FF032FC37B1079B64
:10048000C51A079B58190A9BAB424CD80DB0BDEC5E
:10049000088BBDE8F08F59EC188BBEE60022304681
:1004A0003946194B1BF0E4FC0BF1FF3BCDE9080189
:1004B0005FE700BFAFF30080FB799F501344D33F49
:1004C000B3C8608B288AC63F61436F63A787D23F5A
:1004D00071A379094F930A401655B5BBB16B024021
:1004E000EF39FAFE422EE63F2D431CEBE2361A3F6F
:1004F0000000000080842E41FFFFEF7F0000F83FE6
:100500000000E03F00002C400000244000001840A4
:100510000000F03F002C3FF457AF0B9B002B3FF443
:1005200053AF013C50E7024619EE903A5146202065
:1005300019EE104AA0470135A3E700BF00000000F4
:100540002DE9F04F2DED088B8FB0DDE920AB08EEE3
:10055000100A0F4608EE902A09EE103ADDE9225300
:100560005246049350465B465946249E1BF0BEFDFE
:10057000A0B9049B2396229303232193B84B209385
:1005800018EE902A19EE103A394618EE100A0FB0FC
:10059000BDEC088BBDE8F04F1FF0DABA4FF0FF3228
:1005A0006FF48013504659461BF0AAFD30B1049BEE
:1005B0002396229304232193AA4BE0E74FF0FF32C6
:1005C00050465946A84B1BF0B9FD70B1A74A06F03A
:1005D0000403002B08BF0322A54B1CBF13460422B3
:1005E00004992396CDE92121C9E7504698A3D3E980
:1005F000002359461BF0A2FD38B997A3D3E9002385
:10060000504659461BF07CFD98B1049B18EE902A89
:10061000CDE92253394619EE103A18EE100ACDE909
:1006200020AB24960FB0BDEC088BBDE8F04FFFF770
:10063000A3BD00220023504659461BF061FD00284F
:1006400000F081805B465246002000211BF02EF90D
:10065000012382468B46059316F4806F08BF06255A
:100660003021A94606ABA5F12002B9F1090FA5EB8F
:10067000090406D909F1FF394A4503F8011BF4D1F1
:100680002024594650461BF063FD7A4B054603EB88
:10069000C90393ED007BB0EE47AAF0EE67AA1BF00A
:1006A00053FA02460B46504659461BF0FFF853ECEE
:1006B0001A2B1BF0B3FA02460B4643EC1B2B1BF024
:1006C0006FFD80461BF030FA02460B4651EC1B0BC7
:1006D0001BF0ECF802460B4643EC1B2B0022664B4A
:1006E0001BF02CFD88B308F1010840461BF01CFAF2
:1006F00002460B4651EC1A0B1BF00CFD10B14FF0EB
:1007000000080135B9F1000F51D128461BF01CFA41
:1007100002460B46504659461BF0C8F80022564B7D
:10072000804689461BF0ECFC30B100224046494629
:10073000514B1BF003FD10B1E80700D5013506ABA6
:100740000A2223445AE0059086E7002251EC1B0B55
:10075000494B1BF0D5FC0028D4D1B8F1000F02D0D2
:1007600018F0010FCED008F10108CBE7B8FBF1F08B
:1007700001FB1082B8F1090F02F1300209F1FF39D3
:1007800004F1010403F8012B28D83021A14406AA62
:10079000202C11D04C4504F1010321D104F1380281
:1007A0000DEB02042E2204F8202C1C46C7E70A2178
:1007B00006AB2344202CD9D106F00303012B06AB52
:1007C00039D1049A002A36D0059A12B916F00C0FC6
:1007D00002D0049A013A0492302214E08046E9E7FC
:1007E000A1541C46D4E795FBF2F102FB11553035BC
:1007F00003F8015B01340D460029DDD0202CF2D135
:10080000DAE71A5501340499A14214D9202CF8D101
:10081000049A0093CDE9014219EE103A18EE902A9D
:10082000394618EE100A03961FF092F90FB0BDEC8E
:10083000088BBDE8F08F202CEAD0059AF2B12D216B
:1008400004F138026A4402F8201C0134E0E700BFDA
:100850000000000065CDCD410000000065CDCDC198
:1008600039A502083DA50208FFFFEF7F34A5020865
:1008700030A5020848A502080000E03F710704D532
:1008800004F138022B216A44DDE73207C0D504F1B8
:10089000380220216A44D6E7002370B5404C054653
:1008A0008AB0E36318B1008823600DF0A5FE3D48CF
:1008B00027F004F83C4E3D4B304633603C4B7360B0
:1008C00022F03BFA0021304614F07EFA32A3D3E93D
:1008D0000023A062C4E9062322F03AFAD4E90623F1
:1008E000194310434FF0FF33C4E90601CDE900017D
:1008F0004FF0FF32A06A27F02EF802224FF0FF31AE
:10090000A06A27F02DF801200DF076FC4FF400735B
:1009100000222849A06A27F079F8B0F5007F38D185
:1009200000239422CDE9073309933C23CDE9033218
:1009300005939623A06A03A9069314F053FB35B3DD
:10094000287C0EF0AFF80546F0B9A06A27F03FF911
:100950000EF050F80DF032FC20B14FF48070002101
:100960000BF060F90DF03AFC20B14FF4006000216B
:100970000BF058F922F0B0F9012014F079FA0E4A80
:100980000E49A06A22F0D7F928460AB070BDFF20B0
:10099000D7E70725F8E700BF0DD501552000000077
:1009A000E00E0020690345EC5827002061E80008AC
:1009B0004C2700204C250020DF2C02081F2D0208A8
:1009C00010B5054C237833B9044B13B1044800E04B
:1009D00000BF0123237010BD401100200000000063
:1009E00050E9020808B5034B1BB10349034800E076
:1009F00000BF08BD000000004411002050E90208BB
:100A0000A3F5803A704700BF174B002B08BF134B6C
:100A10009D46FFF7F5FF00218B460F461348144A09
:100A2000121A27F02BFC0E4B002B00D098470D4BD1
:100A3000002B00D098470020002104000D000D4835
:100A4000002802D00C4800E000BF1BF075FD20001C
:100A500029001CF08CFB1BF05BFD00BF00000800B0
:100A60000000000000000000C00A0020700E0020FE
:100A7000B0310020000000000000000070B5094BFC
:100A8000024619781C250023074CD8B2814201D8B0
:100A9000FF2006E0013305FB034616F81C6C964266
:100AA000F3D170BD922C00205C1100202DE9F041A3
:100AB0002DED028B684D9FED698A2B7DEA7C6C7D64
:100AC0001B0243EA024323431B0907EE103AB8EE28
:100AD000C77ADFED637A27EE087A67EE277A92B05D
:100AE00017EE900A1BF042F85E4B00221AF0E0FE6F
:100AF0001BF056FBC0B207EE900AF8EE677AAB7DAA
:100B0000240444EA0324EB7D17EE906A1C43C4F3EB
:100B1000130307EE903AF8EEE77ADFED536A67EEDB
:100B2000887A9FED527A17EEA67A032017EE108A84
:100B300001F0B6F9D0B14E4C4E4920681EF01EF8B7
:100B40001CF0B1FC1CF0B0FC30461BF00FF8024664
:100B50000B464046CDE902231BF008F8DDE90223ED
:100B6000CDE90001444920681EF008F8B5F8197075
:100B700003207FBABFB201F093F968B13C4C3D4904
:100B800020681DF0FBFF1CF08EFC1CF08DFC3A462B
:100B90003A4920681DF0F2FF00250123384C4046F9
:100BA000C4E900531AF0E2FF02460B4608A8354993
:100BB00008F09AFA30461AF0D9FF0B46024631493E
:100BC0000DA808F091FA3A462F4904A808F08CFACB
:100BD000204600F035FF20462C491CF07AFA2B46BF
:100BE0002A4620462A491CF055FA2B4608A92822F5
:100BF00020461CF04FFA2B465022204625491CF077
:100C000049FA2A460A23204623491CF043FA0DA933
:100C10000A23282220461CF03DFA0A2350222046AF
:100C20001E491CF037FA2A46142320461C491CF0A2
:100C300031FA04A91423322220461CF02BFA142383
:100C40004622184920461CF025FA00F06BFF12B02E
:100C5000BDEC028BBDE8F0815C1100200000803506
:100C60000000C84200805140000048430000484254
:100C7000241500208084020885840208A4840208C8
:100C8000CC110020B0840208B5840208E88E020866
:100C9000B9840208BF840208C2840208C88402081A
:100CA000CA840208D184020830B52B4C87B023785F
:100CB0005BBB2A492A4810F02DF9054618B3294C88
:100CC000294920681DF05AFF284920681DF056FF69
:100CD0001CF0E9FB1CF0E8FB254B264A0093264953
:100CE00040F2962320681DF049FF24492B46244AF0
:100CF00020681DF043FF284601F018F921492068BB
:100D00001DF03CFFFEE701232370144B03201D78E8
:100D100001F0C6F8E8B1134C1B4920681DF02EFF06
:100D20001CF0C1FB1CF0C0FB0D4B18491A78049253
:100D30005A7803929A780292DA7801921A7900929C
:100D4000134A5B79002D18BF0A46206811491DF02F
:100D500015FF07B030BD00BF9A2C0020992C002051
:100D6000932C002024150020E5850208F184020858
:100D70002C870208F6840208FF8402080E85020808
:100D80000B8502082385020880840208D5840208A6
:100D9000E3840208348502082DE9F041002500F0C3
:100DA00039FF2C4B2C4C2D4E2D4FDFF8BC801D7085
:100DB000FF23237063704FF0FF33A360A3814FF6CE
:100DC000FF73E3810023A374E37423756375A37534
:100DD000E37523766376A3767F23A3700123E37004
:100DE0007C2303202371637101F05AF860B1394606
:100DF00030681DF0C3FE1CF056FB1CF055FB41464D
:100E0000A27C30681DF0BAFE0135042D04F11C04EB
:100E1000CED1FFF74BFE00F0F7FD00234FF4A020EA
:100E20001A46194610F094F8032001F039F870B111
:100E30000A4C0B4920681DF0A1FE1CF034FB1CF08D
:100E400033FB20680749BDE8F0411DF097BEBDE8BF
:100E5000F08100BF922C00205C110020241500209E
:100E6000808402086C85020869850208594B2DE9C7
:100E7000F3411A78002A6AD000221A70564B19687A
:100E800001295ED1554956481A601CF030F9554881
:100E900007F09EF91CF033F9524807F099F91CF05D
:100EA00035F9504807F094F91CF029F94D4807F03E
:100EB0008FF98F241CF02AF920461CF02EF9013CF2
:100EC00041F2883007F084F914F0FF04F4D1E0B265
:100ED0001CF023F9013441F2883007F079F98F2CA6
:100EE000F5D1062100201CF01FF93F4807F070F9EA
:100EF0001CF036F939493A481CF0F9F8062100206F
:100F00001CF019F9384807F063F91CF029F9334946
:100F100033481CF0ECF8062100201CF013F932488D
:100F200007F056F91CF01CF92C492D481CF0DFF88D
:100F3000062100201CF00DF92B4807F049F91CF0A0
:100F40000FF9FFF7B3FD41F2883006F03DFF274B64
:100F50001A784AB10024264D264FDFF8C480264E69
:100F60001C703A78944202DB02B0BDE8F081A98996
:100F70006878434601220FF097FF1C35306018B3A4
:100F80001E4C1F4920681DF0F9FD1E4920681DF008
:100F9000F5FD1CF088FA1CF087FA1B4B1B4A0093E6
:100FA0001B4940F2051320681DF0E8FD194933681C
:100FB000194A20681DF0E2FD306800F0B7FF1749BC
:100FC00020681DF0DBFDFEE70A2006F0FDFE01347F
:100FD000C7E700BF9D2C0020DC11002073870208AA
:100FE000CC11002020A1070040420F009C2C0020C3
:100FF0005C110020922C0020E0110020241500201C
:10100000E5850208F18402085C870208F68402087C
:10101000FF8402080E8502080B850208238502085A
:101020009C0C002003682DE9F74323F47F43B24A68
:1010300023F007039342044600F0A1826CD8AF4A24
:10104000934200F0E6810CD8A2F5A022934200F072
:10105000DB8002F58022934200F07E8103B0BDE880
:10106000F083A74A934200F0368402F57C02934253
:10107000F4D18079FFF702FDDFF8D8C29CF8003088
:1010800013B1013B8CF800301C279E4C9CF80010DB
:101090008842C0F0D683C1EBC10304EB8303FF2079
:1010A0004FF0FF344FF6FF76002201277C250329FD
:1010B00003F11C0340F2D583934B1B78002BCDD05A
:1010C000012108460FF012FF0546002800F00F81AD
:1010D0008E4C8F4920681DF051FD8E4920681DF00F
:1010E0004DFD1CF0E0F91CF0DFF98B4B8B4A0093AF
:1010F0008B494FF4027320681DF040FD89492B464F
:10110000894A20681DF03AFD284600F00FFF874904
:1011100020681DF033FDFEE7854A934200F09C8273
:1011200064D802F17C42934200F0378202F10072EF
:10113000934293D1837A052B40F2B8830079FFF76D
:101140009DFCFF28054626D0032000F0A9FE60B1D3
:101150006E4E784930681DF011FD1CF0A4F91CF0AA
:10116000A3F9754930681DF009FD1C20654BE27A32
:1011700000FB05308274237BC374637B0375A37B00
:101180004375E37B8375237CC375637C0376A37C03
:101190004376E37C837620790FF074FE05460028C1
:1011A0003FF45CAF594C5A4920681DF0E7FC59499F
:1011B00020681DF0E3FC1CF076F91CF075F9564B25
:1011C000564A009356494FF40A7320681DF0D6FC26
:1011D00054492B46544A20681DF0D0FC284600F0A4
:1011E000A5FE564920681DF0C9FCFEE7544A93420B
:1011F0007FF434AF0379002B7FF430AF0123514AE1
:101200001370514A136029E7032000F049FE90B1A2
:101210003E4D484928681DF0B1FC1CF044F91CF013
:1012200043F963894949019323890093E388A2889C
:1012300028681DF0A3FCFFF737FD00224FF6FF736F
:101240005021CDE90023084664230FF071FD0546C7
:1012500018B32E4C2E4920681DF090FC2D492068B3
:101260001DF08CFC1CF01FF91CF01EF92A4B2B4AB8
:1012700000932B4940F23B1320681DF07FFC294965
:101280002B46294A20681DF079FC284600F04EFEC6
:101290002A4920681DF072FCFEE7012108460FF084
:1012A00025FE054618B3194C194920681DF066FC47
:1012B000184920681DF062FC1CF0F5F81CF0F4F8E9
:1012C000154B164A009316494FF49F7320681DF082
:1012D00055FC14492B46144A20681DF04FFC284643
:1012E00000F024FE1A4920681DF048FCFEE70022A9
:1012F000054B1A70B2E600BFA0000901A00006006D
:10130000A0000A005C1100209B2C00202415002066
:10131000E5850208F18402084D870208F684020878
:10132000FF8402080E8502080B850208BC860208AD
:10133000A000090680840208EC86020823850208C2
:10134000A00001079D2C0020DC11002090850208E0
:10135000B7850208922C00200379032B7FF47EAE20
:10136000002590F81680DFF8D09200F11707A84505
:101370007FF674AE7B195B787E5D023B012B08D84B
:10138000A81C02224946384426F041FF002800F0FC
:10139000DF8201363544EDB2E9E79C4B1B78032B25
:1013A0003FF65CAE29460095A27A637AD4F8050030
:1013B00043EA022363F30F01E27A01230FF0DCFC1E
:1013C000054618B3924C934920681DF0D7FB92490B
:1013D00020681DF0D3FB1CF066F81CF065F88F4BFD
:1013E0008F4A00938F4940F26D1320681DF0C6FBB1
:1013F0008D492B468D4A20681DF0C0FB284600F021
:1014000095FD8B4920681DF0B9FBFEE70122894B51
:101410006FE70221884A007B0FF0F0FC2528054683
:101420003CD1022000F03CFD60B1794C834920683A
:101430001DF0A4FB1CF037F81CF036F8804920683A
:101440001DF09CFB012108460FF050FD05460028C9
:101450003FF44DAF6E4C6F4920681DF08FFB6E4915
:1014600020681DF08BFB1CF01EF81CF01DF86B4B68
:101470006B4A00936B494FF4C97320681DF07EFBE3
:1014800069492B46694A20681DF078FB284600F020
:101490004DFD674920681DF071FBFEE718B35C4CF9
:1014A0005C4920681DF06AFB5B4920681DF066FB03
:1014B0001BF0F9FF1BF0F8FF584B594A00935949AC
:1014C0004FF4CB7320681DF059FB57492B46574A00
:1014D00020681DF053FB284600F028FD5449206881
:1014E0001DF04CFBFEE71C2263792179207B474CE1
:1014F00001EB03212378534D5A43AE18A854F180D1
:101500000133012123700FF065FC054618B3404CF0
:10151000404920681DF032FB3F4920681DF02EFB3A
:101520001BF0C1FF1BF0C0FF3C4B3D4A00933D49FF
:101530004FF4D17320681DF021FB3B492B463B4AF9
:1015400020681DF01BFB284600F0F0FC384920689D
:101550001DF014FBFEE7032000F0A2FC60B12C4C50
:10156000394920681DF00AFB1BF09DFF1BF09CFF12
:10157000364920681DF002FB02222E4BB9E60079A5
:10158000FFF77CFAFF283FF469AD1C222D4B02FBCC
:101590000030D4F80530836060E50079FFF76EFA1B
:1015A000FF2805463FF45AAD224F3B78052B12D158
:1015B0001C23244EA27903FB0066637943EA0223CD
:1015C000F3811BF070FF1BF06FFF114BF289204974
:1015D00018681DF0D3FA3B78042B7FF43FAD1C2034
:1015E000184BA27900FB0535637943EA0223AB81EE
:1015F0001BF059FF1BF058FF054BAA8915491868C5
:1016000003B0BDE8F0431DF0B9BA00BF922C002032
:1016100024150020E5850208F18402084D870208A0
:10162000F6840208FF8402080E8502080B85020872
:10163000238502089B2C002071870208E785020899
:10164000EC8502085C1100208084020833860208C1
:10165000468602086986020805792846FFF70EFAD1
:10166000FF283FF4FBACA74C2278022A35D11C217D
:10167000A54B01FB003081684E1C3FF4EFAC457078
:10168000A24B28460FF0D0FB054618B3A04CA14949
:1016900020681DF073FAA04920681DF06FFA1BF056
:1016A00002FF1BF001FF9D4B9D4A00939D4940F2B4
:1016B000CF1320681DF062FA9B492B469B4A206895
:1016C0001DF05CFA284600F031FC994920681DF0B5
:1016D00055FAFEE705232370C0E4052A35D11C2204
:1016E000894B02FB00304FF6FF73C18999423FF4EA
:1016F000B5AC022240780FF0ADFB054618B3844C20
:10170000844920681DF03AFA834920681DF036FAB2
:101710001BF0C9FE1BF0C8FE804B814A0093814933
:1017200040F2D91320681DF029FA7F492B467F4AE1
:1017300020681DF023FA284600F0F8FB7C49206859
:101740001DF01CFAFEE70323C5E7032A34D11C224F
:101750006D4B02FB003081684B1C3FF47FAC0222D2
:10176000744B40780FF060FB054618B3684C69492C
:1017700020681DF003FA684920681DF0FFF91BF08E
:1017800092FE1BF091FE654B654A009365494FF44C
:10179000F27320681DF0F2F963492B46634A206812
:1017A0001DF0ECF9284600F0C1FB614920681DF0EE
:1017B000E5F9FEE704238EE7042A0DD11C22524BE3
:1017C00002FB00304FF6FF7382899A423FF446AC29
:1017D0000FF080FB06237EE7062A7FF43FAC564BD2
:1017E0001B78032B2BD8012108460FF07FFB054601
:1017F00000283FF47CAD464C464920681DF0BEF9F8
:10180000454920681DF0BAF91BF04DFE1BF04CFE57
:10181000424B434A009343494FF4FB7320681DF049
:10182000ADF941492B46414A20681DF0A7F92846E9
:1018300000F07CFB414920681DF0A0F9FEE707237A
:1018400049E700FB077607FB0045264400F1010E3F
:101850000FCE0FC596E8070085E807005FFA8EF007
:1018600014E4013103F81C0C03F81B0C43F8144C6E
:1018700023F8104C23F80E6C03F80A2C03F8092CFB
:1018800003F8082C03F8072C03F8062C03F8052CA2
:1018900003F8042C03F8032C03F8022C03F8197C3A
:1018A00003F8185C03F8175CC9B200E4022000F0EA
:1018B000F7FA00283FF46FAC154D214928681DF058
:1018C0005DF91BF0F0FD1BF0EFFDA27A1D492868C1
:1018D0001DF054F95FE4032000F0E2FA00283FF421
:1018E000BDAB0B4C184920681DF048F91BF0DBFD1F
:1018F0001BF0DAFD1549206803B0BDE8F0431DF088
:101900003DB900BF9B2C00205C110020F388020829
:1019100024150020E5850208F18402084D8702089D
:10192000F6840208FF8402080E8502080B8502086F
:10193000238502086F870208922C00208C860208FB
:10194000E7850208008702088084020824870208CD
:101950000FF0C0FA054600283FF41FAD114C1249A4
:1019600020681DF00BF9114920681DF007F91BF0E4
:101970009AFD1BF099FD0E4B0E4A00930E494FF451
:10198000B37320681DF0FAF80C492B460C4A206806
:101990001DF0F4F8284600F0C9FA0A4920681DF045
:1019A000EDF8FEE724150020E5850208F184020821
:1019B0004D870208F6840208FF8402080E8502089B
:1019C0000B8502082385020810B504461BF003FEB0
:1019D00001280AD1054B9C4207D1054A1378B3FA76
:1019E00083F35B091370034B187010BDB88F0208A6
:1019F0009C0C00209C2C0020024A137883F00103E9
:101A0000137070479E2C002038B50B4D2B688BB996
:101A100000F092F8044610B10A24204638BD00F0C8
:101A20009BF828600028F7D0044B02881A8042886F
:101A30005A80F2E70024F0E7E41100203C2C00205B
:101A400078B10022084903680132003B18BF012326
:101A5000B2F5806FC3F1000301F8013BF3D1002020
:101A600070470520704700BF9F2C002030B518B389
:101A7000134B1C888C4221DB5B8893421EDB134690
:101A8000002AB8BFD31DDB1004FB0311544204F03D
:101A9000070402F0070258BF624201244068094D62
:101AA000A0424FF000006B5604FA02F252B20CBF93
:101AB000134393436B5430BD0520FCE70420FAE741
:101AC0003C2C00209F2C002030B518B3134B1C88F1
:101AD0008C4221DB5B8893421EDB1346002AB8BF91
:101AE000D31DDB1004FB0311544204F0070402F081
:101AF000070258BF624201244068094DA0424FF0DE
:101B000000006B5604FA02F252B20CBF9343134327
:101B10006B5430BD0520FCE70420FAE73C2C002084
:101B20009F2C002008B503481BF02DFB002818BF90
:101B3000062008BD9F2C002008B51BF005FC0122E3
:101B4000034B18211A700348BDE8084000F010B894
:101B50009F300020F08E0208034B04481B78002BB6
:101B600008BF0020704700BF9F300020740C002089
:101B7000B0B5CB1D86B003F4FC7300AFADEB030D25
:101B80000E4B00257B606B460C4603F8015B0A4652
:101B90000146184626F04BFB0134391D4FF0B64084
:101BA000C7F808D0BC81BD823F6100F0B9FCA842F3
:101BB00014BF312028461837BD46B0BD780001005B
:101BC00090B5CB1D87B003F4FC7300AFADEB030DF4
:101BD0000F4B40227B606B4603F8012B0C460A46F4
:101BE0000146184626F023FB0023391D01344FF02F
:101BF000B640C7F808D0BC81BB823F6100F090FCC2
:101C0000002814BF312000201C37BD4690BD00BF06
:101C10007800010030B50A4C0A4B22680A4D1A6060
:101C20000A4B85B02B600A4B019304F055FF2B68DB
:101C3000029001A9206803931CF0C0FB05B030BDE1
:101C4000CC0A0020FC1F0020F81F0020C00A002042
:101C5000848F0208014B18681CF0C4BBCC0A00201A
:101C600038B504F039FF0446064D2B68D3F8B002AE
:101C700004F026FF28681CF0C8FB2046BDE8384069
:101C800004F01EBFCC0A002010B5274C01F048FC20
:101C900001F09AFE236F23F0070343F00303236749
:101CA0001BF04EFD214B00209B6ADB015EBF4FF411
:101CB00080321F4B9A62D4F8203123F0070343F09F
:101CC0000203C4F82031D4F8283123F0070343F08D
:101CD0000203C4F82831D4F8403123F0030343F061
:101CE0000203C4F84031D4F8603123F0030343F019
:101CF0000203C4F86031D4F8403223F0030343F008
:101D00000203C4F84032D4F8003223F0070343F052
:101D10000203C4F80032D4F8083223F0070343F07A
:101D20000203C4F8083210BD008000500040005A81
:101D30000060005A08B53A20012101F0ADF9BDE874
:101D40000840014800F076BBD00A002030B5214D94
:101D500095B00DAC0FCD0FC495E80700032384E8C0
:101D600007008DF84D3029231B4A1C49CDE9022379
:101D70001B4B1022CDE90413002109A8069126F07F
:101D80007DFA4FF48020174B07A9CDE907030923FB
:101D90008DF824300A238DF82530134B0DAA0A93B1
:101DA00020230B9301238DF83130104B1048009302
:101DB00002AB05F0B1F804469DF832304FF4E13043
:101DC000002B0CBF032100211BF0AEFB204615B0F9
:101DD00030BD00BF9C8F020800C005500005000602
:101DE0000009000824C00550A0300020A4140020E1
:101DF00000150020831E012B10B512D8012910D820
:101E0000114B04221B6C05210020C3F3401302F088
:101E10000BF80E4B1B681868A8B1BDE81040436A68
:101E200018478B1E012B0CD801280CD8BDE8104098
:101E30000022054B05211B6C1046C3F3401301F033
:101E4000F3BF0129E5D910BD00C00350EC0A002002
:101E500008B50449044805F043FBBDE80840FFF716
:101E600075BF00BFE40A0020F814002001481CF0F0
:101E7000F1BF00BF00150020014B1A6A1868104717
:101E80000015002008B504481BF0A0FBBDE8084081
:101E900002481BF09BBB00BFB88F0208D08F02081E
:101EA0000B4B02461B788BB10A4B1B78834234BF25
:101EB00000200120084B1B783BB1084B1B7843FAEC
:101EC00002F212F0010F08BF002070470120F1E775
:101ED0009D0C00209E0C0020C03000209F0C002094
:101EE000012208B5074B1A700022074B1A70042212
:101EF000064B1A701F22064B1A7004F0EDFD054BBD
:101F0000186008BD9D0C0020C03000209E0C0020F1
:101F10009F0C002024150020024B034918681CF078
:101F20002DBE00BF24150020E88F020870B50C4CB0
:101F30000C49064620681CF021FE04F0CDFD054644
:101F4000206804F0BDFD3046FFF7E6FF284604F0A8
:101F5000B7FD20680449BDE870401CF00FBE00BF0B
:101F600024150020EA8F0208EC8F020807B508202C
:101F70001BF05AFB02238DF80030054B6846019395
:101F80001BF0A2FA082003B05DF804EB1BF058BB6D
:101F9000006A181008B500F02DF8124B12498B4258
:101FA00012D30020114B12498B4218D3FEF72CFD9F
:101FB000186850F82240586840F82240013298686A
:101FC0008242F5D30C33EAE70022F8E71C6844F8B4
:101FD000220001325C68A242F8D30833E4E7002211
:101FE000F8E700BF58E9020864E9020864E902085A
:101FF00064E902084FF480414FF0FF30114B124A60
:1020000010B59A60D3F8882042F47002C3F8882093
:102010000E4A91660E4901F5005210660D48506651
:102020000220C3F8D000BFF34F8FBFF36F8F01249E
:102030004FF440330848C0F88041D36004600B611E
:1020400010BD00BF00ED00E000000008009000504F
:1020500000800044F7FF370000E100E0014B186802
:10206000704700BFF40A0020084B1B6F03F0070302
:10207000022B04D0032B05D0012B05D0FEE7044B27
:1020800018687047034BFBE7034870470080005017
:10209000F40A0020F80A0020002D310108B5FFF7EE
:1020A000E3FF054B1B6FC3F303330133B0FBF3F0C6
:1020B000024B186008BD00BF00800050F00A0020ED
:1020C0000048704700B4C404014B1868704700BF53
:1020D000F80A0020054B1860054B1B6F03F007033F
:1020E000032B01D1FFF7DABF704700BFF80A0020C9
:1020F0000080005000487047002D31014FF0B4437C
:102100009868C0F304400C2822D8DFE800F00921C9
:1021100021212121071719211B1D1F000F4870477E
:102120009B6803F04073B3F1807F13D0B3F1007F5D
:1021300012D00B4A002B08BF104670470948704761
:10214000094870470948704709487047094870476F
:10215000002070470848704708487047405DC60037
:1021600000093D000024F400C0EA210180BA8C017E
:102170000048E801005A620280841E0040420F00BD
:10218000014B1868704700BFFC0A002070B5D0B141
:10219000C9B10E4E431E013913F8014F2046A25D0E
:1021A00002F00302012A11F8012F08BF04F12000F8
:1021B000B55C05F00305012D08BF2032801A01D15E
:1021C000002CE9D170BD0120FCE700BFE9E702085F
:1021D00005490A681318054883428CBF4FF0FF3247
:1021E0000B601046704700BF000B00200000042069
:1021F00010B40A681378022B11D0142030231479FC
:1022000013FB040307481B585079C340DB4303F01A
:102210000103137008465DF8044BFFF7D5BB5DF86A
:10222000044B704730C0035037B5046801210546A0
:102230003A2000F031FF002301226179207901F07A
:10224000F3FD14223023217913FB01230E4A9B58FE
:102250006279D340DB4303F001032370A379022B9F
:102260000ED100F0D7FB2A460849607900F0FCFB4C
:102270000123024661792079CDE9003301F07CFD2C
:10228000002003B030BD00BF30C00350F121000872
:1022900002681378022B24D014213023107913FB09
:1022A000001310495B585179CB40917903F0010339
:1022B000012912D1508843EA40034FF6E07063F0E1
:1022C0003F039BB2834202D11170538070474FF697
:1022D000DF718B42F9D10021F6E711B983F00103D8
:1022E0001370704730C0035010B501213A2000F040
:1022F000D3FE012304220321002001F095FD0020DC
:102300001BF059FA0122314B3149C3F844244FF4F0
:102310000022A3F550335A66D1F8FC202C4C12F061
:1023200080721EBFD1F8FC3023F08073C1F8FC30FE
:102330002849D1F8803023F0030343F00203C1F8A9
:1023400080302AB1D4F8FC3043F08073C4F8FC30FC
:102350004FF4607000F0BCFED4F8F0301E4A43F039
:102360000103C4F8F030D4F8FC3000F5D52043F078
:102370008073C4F8FC30194B00F2FC401A60184B13
:102380000222B0FBF3F0174B01381861C3F8F020BC
:102390004FF48072C3F804234FF06043124A0020C8
:1023A000C3F8B02F114AC3F8802ED3F8002E42F4A0
:1023B0008072C3F8002EFF2283F82020D3F8002E6D
:1023C00022F48072C3F8002E10BD00BF00D003506D
:1023D00000ED00E000800050FF030040001000E02E
:1023E000F8590D00000004E055CEACC5090001000D
:1023F0004FF06043D3F8802E30B5D20715D50124B5
:102400000B4D8440D5F8FC2042F08072C5F8FC20CA
:10241000D3F8002E2243C3F8002E53F82020002AC0
:10242000F0D003F82010002030BD1120FCE700BFE1
:1024300000ED00E02DE9FF4103680446B3F1B64F1B
:1024400004D0354A934251D12F2000E02E200121A3
:1024500000F022FE01230A226179207901F0E4FCD8
:1024600001230A22E179A07901F0DEFC0A27012686
:102470002A4D4FF030082279637908FB025206FAA0
:1024800003F302F501521360642005F0A1FE2379E5
:10249000627908FB035306FA02F203F582536420C3
:1024A0001A6005F095FE013FE3D12068B0F1B64F08
:1024B0001FD10323C5F8E8346279237943EA024344
:1024C000C5F8EC34E279A37943EA0243C5F8F03465
:1024D00040F20113ADF80030E36869460293A36847
:1024E0000193237C8DF80C3001F01AFD04B0BDE897
:1024F000F081094B9842EBD10323C5F8F834627997
:10250000237943EA0243C5F8FC34E279A37943EA2C
:102510000243C5F80035DBE70080065000C00350D9
:1025200038B5054601F02AFE044C012801D1013CD2
:1025300000D138BD284601F015FDF6E7E19304000F
:102540002DE9F04F9A46564B85B01B7806460F464C
:102550001546DDF83C909DF844B0DDF85080002B26
:1025600000F08D80072A00F28C800E9B002B00F07B
:102570008880B9F1000F00F08480129BB3F5006FE2
:102580007FDC012802D1109B002B7AD0454B03EB56
:1025900005131B7B002B76D0434C1022002168468C
:1025A00025F06CFE04EB45141022002F59D139465A
:1025B000204625F063FE43F210036380BBF1000F59
:1025C00003D1E37843F00303E370374A0E9B02EB39
:1025D000451CCCE90193129B6901013BC3F30A003E
:1025E0009DF84C30012E03F003034FEA836343EA66
:1025F000001E53582D48CDF800A000EA03004EEA13
:102600000003535041D113230CF1100ECCF80C30C1
:102610009CE80F008EE80F006FF00301DCF81C202F
:10262000109B61F39F02012FCCF81C20CCF81430D2
:1026300003D1CCF81890CCF804300027194A2901AE
:1026400002EB051342F80180159A28465A60694644
:1026500022469F605E7301F031FE384605B0BDE84A
:10266000F08F0021204625F009FE4FF4447363806B
:10267000BBF1000FA9D1E37843F03003A4E70C4885
:10268000ECE70C48EAE70C48E8E7B8F1000FD4D1D2
:102690009CF8023068F304138CF80230CDE700BFD9
:1026A000C130002028150020A81500200F80FFF35E
:1026B000028000F0018000F0078000F038B5124B76
:1026C00005461B78DBB1E0B11BF056F80F4A00233A
:1026D0001146147B54B92B6001251A0101EB031339
:1026E0001D738C501BF04EF8204638BD0133082B6B
:1026F00002F11002EDD11BF045F80548F5E7054859
:10270000F3E70548F1E700BFC1300020281500209D
:10271000048000F0028000F0018000F013B51BF08F
:102720002BF800230B4A147B7CB90133082B02F1F0
:102730001002F8D1019001F063FD074B01981C7065
:102740001BF020F8204602B010BD1BF01BF8034818
:10275000F9E700BF28150020C1300020058000F0F7
:102760000D4B10B51B78044693B1072812D81BF007
:1027700003F80A4B03EB04131A7B2AB100241C73E1
:102780001BF000F8204610BD1AF0FCFF0448FAE7E1
:102790000448F8E70448F6E7C13000202815002077
:1027A000068000F0028000F0018000F0154B13B5A8
:1027B0001868002301908DF804301AF0DDFF124BE9
:1027C0001C7824B11AF0DEFF104802B010BD0122BF
:1027D0001A701AF0D7FF0E4B01A81C731C7783F8F0
:1027E0002C4083F83C4083F84C4083F85C4083F8ED
:1027F0006C4083F87C4008238DF8073001F02CFDF5
:102800002046E2E7EF8F0208C1300020038000F08D
:10281000281500200A4A08B512785AB107280BD8A3
:10282000084A02EB00131B7B43B1002101F006FDB7
:10283000002008BD0448FCE70448FAE70448F8E72C
:10284000C130002028150020028000F0018000F037
:10285000078000F00A4A08B512785AB107280BD849
:10286000084A02EB00131B7B43B1012101F0E6FC97
:10287000002008BD0448FCE70448FAE70448F8E7EC
:10288000C130002028150020028000F0018000F0F7
:10289000078000F00A4A08B5127852B107280AD812
:1028A000084A02EB00131B7B3BB101F055FD0020F1
:1028B00008BD0548FCE70548FAE70548F8E700BF0A
:1028C000C130002028150020028000F0018000F0B7
:1028D000078000F00D4B1B7893B1072812D889B1FF
:1028E0000B4B03EB00131B7B73B10A4B1A6D0123D7
:1028F00003FA00F010401ABF00200B7008707047F8
:10290000054870470548704705487047C1300020AA
:102910002815002000000450028000F0018000F023
:10292000078000F00B4A10B512780C4662B10728F8
:102930000CD859B1084A02EB00131B7B43B101F0DC
:102940001DFD2070002010BD0448FCE70448FAE794
:102950000448F8E7C130002028150020028000F06C
:10296000018000F0078000F02DE9F843174B1F6D40
:102970005B6D1F4000D5FEE701260025144CDFF8F3
:102980005480DFF85490374217D02368C8F850605D
:102990009BB1A168284601316268A1609847637BBA
:1029A000012B0AD148B909EB45131A7B60F34102A8
:1029B0001A731A7F60F341021A770135082D4FEA26
:1029C000460604F11004DED1BDE8F883000004508F
:1029D0002815002000200450A815002070B50446DA
:1029E00001250B4E04B970BD94FAA4F0B0FA80F042
:1029F00005FA00F306EB001224EA03045368002BE7
:102A0000F0D0117B11B191689847EBE79847E9E75F
:102A1000A816002008B5192001F002F828B14FF0DF
:102A20000072074BC3F880211A601A2000F0F8FFEB
:102A300028B14FF08062024BC3F880211A6008BDB4
:102A400000E100E038B505460C461AF095FE00227C
:102A5000044B03EB05135C601A73BDE838401AF0B1
:102A600091BE00BFA8160020F8B505460F461646D1
:102A70001AF082FE104B05F0FC02D3F82414002358
:102A8000EC1804F00304144321FA04FC1CF0010FB9
:102A900007D00133042BF3D1FF241AF073FE204634
:102AA000F8BDFF2CF9D00122044B03EB0413C3E95A
:102AB00001761A73F1E700BF00C00350A81600208A
:102AC000074BD3F82404D3F8202403F50053104017
:102AD00000F0553020F05020C3F82004FFF77EBFEF
:102AE00000C00350074BD3F82404D3F8202403F587
:102AF0000053104000F0AA3020F0A020C3F82004BA
:102B0000FFF76CBF00C00350024B1968024B1868F6
:102B100011F06EBD080B0020040B002037B59200A9
:102B200004460D46019225F09BFC431C0BD060B976
:102B300029462046019A25F06AFB0028044808BF70
:102B4000002003B030BD0348FBE70348F9E700BFAE
:102B500010E000F021E000F024E000F010B50446A1
:102B600025F086FC431C10D088B901F085FC234673
:102B700020F003002044984201D1002010BD53F8FA
:102B8000042B0132F7D00348F8E70348F6E703487F
:102B9000F4E700BF0EE000F021E000F024E000F0D8
:102BA00008B51AF0E2FD014B186008BDE81E0020D0
:102BB000014B18681AF0DDBDE81E0020044BD3F865
:102BC0008420D206FBD4D3F88400C0F38110704770
:102BD0000040005038B5104B0546D3F880300C4605
:102BE00003F00303022B0BD0032B0DD0012B0FD1CD
:102BF000FFF73AFA0E2305B1286004B1236038BD0F
:102C0000FFF77CFA0723F6E7FFF728FA0623F2E737
:102C100000231846EFE700BF0080005038B5184B7E
:102C20000546D3F820010C4600F00700062805D819
:102C3000DFE800F0230B0F17131B1F0000231846BB
:102C400005B1286004B1236038BDFFF707FA0523FA
:102C5000F6E7FFF739FA0323F2E7FFF74FFA072306
:102C6000EEE7FFF747FA0223EAE7FFF7F7F9062353
:102C7000E6E7FFF729FA0423E2E70123E0E700BFD4
:102C80000080005038B5174B0546D3F828310C4664
:102C900003F00703013B052B20D8DFE803F0031303
:102CA0001B0F0B17FFF7DAF9052305B1286004B1F4
:102CB000236038BDFFF7D2F90623F6E7FFF71EFAC7
:102CC0000723F2E7FFF700FA0323EEE7FFF7FCF92B
:102CD0000423EAE7FFF70EFA0223E6E7002318468B
:102CE000E3E700BF0080005073B50D460021114B93
:102CF0000191D3F88041064604F00304022C13D05E
:102D0000032C0CD0012C13D101A8FFF787FF10244E
:102D10000EB1019B336005B12C6002B070BDFFF7AE
:102D2000EDF907240190F3E7FFF7E4F90190EFE7ED
:102D30000C46EDE700800050002337B50193164B99
:102D40000546D3F820320C4603F00703042B04D8C1
:102D5000DFE803F0200B11161B0000230DB1019AD0
:102D60002A6004B1236003B030BD002101A8FFF741
:102D700089FF1223F2E7FFF7C1F907230190EDE77E
:102D80001AF0E4FB0A230190E8E7FFF7F9F90923B9
:102D90000190E3E70123E1E70080005038B5104BD4
:102DA0000546D3F840310C4603F00303022B0BD049
:102DB000032B0DD0012B0FD11AF0C8FB0A2305B14C
:102DC000286004B1236038BDFFF7DAF90923F6E77C
:102DD0001AF0BFFB0C23F2E701230020EFE700BF4E
:102DE00000800050002337B50193164B0546D3F8F9
:102DF00060320C4603F00703013B032B1FD8DFE8CA
:102E000003F0020E1914002101A8FFF707FF102399
:102E10000DB1019A2A6004B1236003B030BD0021D6
:102E200001A8FFF7BBFF1123F2E7FFF767F90723BC
:102E30000190EDE7FFF75EF902230190E8E7002338
:102E4000E6E700BF00800050002337B50193164B22
:102E50000546D3F894320C4603F00703013B032BDD
:102E60001FD8DFE803F0020E1914002101A8FFF7B4
:102E7000D5FE10230DB1019A2A6004B1236003B07E
:102E800030BD002101A8FFF789FF1123F2E7FFF70A
:102E900035F907230190EDE7FFF72CF902230190A4
:102EA000E8E70023E6E700BF0080005038B5144B88
:102EB0000546D3F800020C4600F00700042804D8A9
:102EC000DFE800F01B0A0E1216000023184605B1B9
:102ED000286004B1236038BD1AF038FB0A23F6E7F6
:102EE000FFF74EF90923F2E71AF033FB0C23EEE764
:102EF000FFF7D4F80F23800AE9E70123E7E700BFD3
:102F00000080005038B5144B0546D3F808020C4633
:102F100000F00700042804D8DFE800F01B0A0E12B6
:102F200016000023184605B1286004B1236038BD9F
:102F30001AF00CFB0A23F6E7FFF722F90923F2E760
:102F40001AF007FB0C23EEE7FFF7A8F80F23800A1F
:102F5000E9E70123E7E700BF0080005038B5104BD8
:102F60000546D3F840320C4603F00303022B0BD086
:102F7000032B0DD0012B0FD11AF0E8FA0A2305B16B
:102F8000286004B1236038BDFFF7FAF80923F6E79B
:102F90001AF0DFFA0C23F2E701230020EFE700BF6D
:102FA0000080005038B5104B0546D3F860310C4610
:102FB00003F00303022B0BD0032B0DD0012B0FD1F9
:102FC0001AF0C4FA0A2305B1286004B1236038BDA1
:102FD000FFF7D6F80923F6E71AF0BBFA0C23F2E75D
:102FE00001230020EFE700BF00800050B0F5207FF4
:102FF0001FD009D8B0F5007F15D003D868B1B0F55F
:10300000C07F0AD000200CE0B0F5607FFAD10B4BF6
:10301000D3F88000C0F3011003E0084B186FC0F331
:10302000033001307047054BD3F89000C0F30460C3
:10303000F7E7024B186FC0F38020F2E700800050E2
:1030400002464FF48030104B10B598660020FFF711
:10305000CDFF504341F671320C4BDC69DA635A689C
:1030600004F4803422F4401259B9094988428CBFD3
:103070004FF480100020104358600CB10022DA6336
:1030800010BD0449F2E700BF00900050000003505B
:10309000005A6202002D3101430905D0012B0DD0E9
:1030A000022B094B18BF002300F01F0041B103F5AC
:1030B0008053012202FA00F018607047034BF3E7D7
:1030C00003F50053F5E700BF6880005064800050AE
:1030D0001FB5002180280446CDE9001100F0A5802D
:1030E00035D85E2846D85E2844D8DFE800F0A243F1
:1030F00043434343434343434343434343434343A0
:103100004343434343434343434343434343A2AAC9
:10311000A2AAB9B9B9B9B9AAC34DD9714DAAAAAA77
:103120004343434343434343AAAAAA79E3AA4343FD
:103130004343434343434343434343B9A2A2A2DE31
:103140004D4DE8885EBE434343434399A200B0F52A
:10315000B06F00F08F802DD8B0F5207F71D00CD8E3
:10316000B0F5C07F65D0B0F5007F65D0B0F5807F49
:1031700000F08580009804B010BDB0F5607F6AD083
:103180000DD8B0F5407FF5D1FEF788FF02464FF429
:103190002070FFF72BFFB2FBF0F0400847E0B0F5DE
:1031A000806F5DD0B0F5A06FE4D100216846FFF7D5
:1031B000C3FDDFE7B0F5106F77D016D8B0F5E06F3C
:1031C00078D00AD8B0F5C06F6AD0B0F5D06FD1D141
:1031D00000216846FFF76AFECCE7B0F5F06FC9D171
:1031E00000216846FFF7DEFEC4E7B0F5406F3CD033
:1031F00013D8B0F5206F62D0B0F5286FBAD1002196
:10320000314B0391D3F8703203F00303012B02D149
:1032100003A8FFF7C3FD039B3BE0B0F5486FA9D1BE
:1032200000216846FFF710FEA4E7FEF71DFF00909F
:10323000A0E7FEF733FFFAE7FEF716FF0246204647
:1032400004E0FEF72BFF02464FF42070FFF7CEFE9E
:10325000B2FBF0F0EBE701A8FFF7BCFC019AEEE748
:1032600000216846FFF7DAFC84E700216846FFF793
:1032700009FD7FE700216846FFF736FD7AE74FF04A
:10328000E02302911B695B0705D5FEF707FF02905B
:10329000029B00936EE703A902A8FFF77FFDF7E703
:1032A00000216846FFF77AFD64E700216846FFF7D2
:1032B00029FE5FE700216846FFF750FE5AE700212C
:1032C0006846FFF78FFD55E70080005008B5802065
:1032D000FFF7FEFE034B98429EBF4FF48032024B35
:1032E0001A6708BD005A620200A000501FB50023F3
:1032F000B0F5807F019300F0C38064D85D2855D875
:103300004C2807D82D2847D823282BD8019805B05A
:103310005DF804FB4D381028F8D801A353F820F0CD
:10332000773400080D3300080D3300080D33000812
:10333000293400080D3300080D330008FD3400085F
:1033400047340008ED330008F33400080D3300085B
:103350000D3300080D3300080D3300080D3300084D
:103360000735000824380928D0D801A353F820F0E5
:103370007734000877340008773400087734000881
:10338000773400080D3300086D3400080D33000851
:1033900009340008AD3400083D2800F082803E2842
:1033A000B4D1002001A9FFF7D9FDAFE78028ADD146
:1033B0005A4B1B6F03F00703013B032BA6D8DFE832
:1033C00003F05350878FB0F5F06F6AD021D8B0F575
:1033D000B06F4BD00FD8B0F5607F00F0858095D3EB
:1033E000B0F5806F47D0B0F5A06F8FD1002001A954
:1033F000FFF7A2FC8AE7B0F5D06F57D0B0F5E06FC9
:10340000CFD0B0F5C06F81D1002001A9FFF7C6FC75
:103410007CE7B0F5206F71D00BD8B0F5086F4AD0BB
:10342000B0F5106F7FF472AF002001A9FFF76AFDBD
:103430006CE7B0F5406F5CD0B0F5486F63D0B0F585
:10344000286F7FF463AF0021344B0391D3F87032BF
:1034500003F00303012B5BD0022B14BF0B46152393
:1034600000E00523019351E70223FBE7002001A9B7
:10347000FFF73AFC4AE7002001A9FFF7CFFB45E739
:1034800002934FF0E0231B695B0705D5FEF706FEAC
:103490000D230393039BE5E703A902A8FFF77EFC36
:1034A000F8E7002001A9FFF77DFD2FE7002001A923
:1034B000FFF7FCFC2AE7194BD3F8003103F00303B4
:1034C000022B07D0032B09D0012B0BD1FEF7FCFDFB
:1034D0000323C7E7FEF754FE0923C3E71AF034F8C5
:1034E0000823BFE70123BDE7184601A9FFF772FBD8
:1034F0000CE7002001A9FFF7C5FB07E7002001A9A1
:10350000FFF770FC02E7002001A9FFF79DFCFDE634
:1035100003A8FFF743FC1123A4E700BF008000507D
:103520004FF48012034B5A664FF48032024B9A627A
:10353000704700BF009000500050005A08B5FFF7D8
:10354000D5FE092811D00A38012811D84FF480027D
:10355000094B4FF6FF705A6603F5D8335B6A13F0D8
:10356000010F18BF4FF4FA7008BD044B1888FBE731
:103570004FF6FF70F8E700BF009000508A0C002063
:1035800038B504468020FFF7B1FE032800F08A809A
:103590004FF48012544B4FF0A0615A6645F60E036B
:1035A000524AC2F88030524B99624FF4803103F591
:1035B00080539962936DD903FCD4916D11F08041D1
:1035C000FBD1D4E900031B0543EA0063E07B03431E
:1035D000207B43EA0043607B43EA0033A07B43EA5D
:1035E000801313619069D4E904531B0643EA856391
:1035F00000F000400343A07EE57E0343207E43EAC3
:103600000043607E43EA00239361E069136A002867
:103610000CBF0022082223F00F0343EA000343EA11
:10362000850343EA0203314A324D13623BD194F8D9
:103630002430916A94F82000DB000D4043EA4013E7
:1036400094F821102B4343EA011343F4803393622F
:10365000294B916D33EA0101FBD14FF08071244871
:1036600081621369A56823F4700343EA055313616B
:103670004FF00043836194F822300BB91F4B9962DD
:1036800094F823303BB94FF480321C4B9A62174AAE
:10369000936D5B00FCD494F825301BB1134B184A92
:1036A000C3F8802038BD022808D111611548916106
:1036B0004FF408524FF47F411AF01EF80B4994F86A
:1036C00022308A6A94F820001B06154043EA401312
:1036D00094F824202B4343EAC20394F8232043EABE
:1036E00002438B62D7E700BF009000500040005AB1
:1036F0000050005AC7FFFEFE030001000060005AA0
:10370000F1A7FFFF3440005A37B5194CA26AA36DE8
:1037100013F4803F18BF4FF48031164B18BF9962E5
:103720004FF080719962144BA56993F9003025F42C
:103730007F050344000280B225F47F4583F308032C
:10374000284340EA0340A0610C48019219F0D4FFDD
:10375000A36D019A13F4803F07D04FF480310748DE
:1037600003B0BDE8304019F0C7BF03B030BD00BFA3
:103770000040005A0050005AA00C00202840005A77
:10378000014B93F900007047A00C00204FF48030EB
:103790000E490F4B8A6A9862886D00F00300032877
:1037A000FAD14FF080709862896D01211965074B3D
:1037B000996D8907FCD4996D8807FCD5996D8907A7
:1037C000FCD50449044819F097BF00BF0040005AD7
:1037D0000050005A000001012840005AF0B5D0E91D
:1037E00001434FF400061A4A4178057856664FF4B3
:1037F000D156022702F5B8325662164E4F2977602D
:103800004FF0010728BF4F2106F5805677601669F3
:10381000F603FCD441EA052151611B01417B43EAD7
:1038200004230B43017B43EA41039360C37B817B09
:103830001B0143EA4113417C0B43017C43EA4103F2
:103840005360837C13B16FF4D1535362F0BD00BF5A
:103850000090005000100250014B1880704700BFCC
:103860008A0C0020014B1880704700BF880C002094
:103870004FF4800208B5184B5A660223174A53606A
:10388000936813F48033FBD1012822D1FEF71CFC8E
:10389000134B984215D003F5122303F5F8639842B1
:1038A00013D0104B00EB8002400AB3FBF0F0520A39
:1038B0000A4BDA62012218635A620022074B5A60EF
:1038C00008BD45F67A10084AF2E745F61A00074A9D
:1038D000EEE75362F1E700BF009000500040025055
:1038E00000F0490264666666D8B80500BBCF0500E3
:1038F000B0F5207F10B50C4657D008D8B0F5007F42
:1039000048D003D830B3B0F5C07F23D010BDB0F598
:10391000607FFBD129492A48D1F8FC2012F080723F
:103920001EBFD1F8FC3023F08073C1F8FC30D0F812
:103930008030611E23F0300444EA0114C0F8804056
:10394000002AE3D01D4AD2F8FC3043F08073C2F85D
:10395000FC30DBE719F0E1FE19F0EDFE4FF48031A9
:10396000184B174A1967136F611E23F4704444EA19
:1039700001341467FEF792FB0446FFF71FF9C0F10C
:103980000201204619F0D1FE00F02EF8BDE81040EB
:10399000FFF79CBC0A4A0139D2F8903023F0F85462
:1039A00044EA0164C2F89040B0E7054B013C196F4E
:1039B00021F4806141EA84241C67A7E700ED00E060
:1039C000008000500090005008B50121022000F056
:1039D0007FF819F0A2FE19F0AEFE4FF48032014BD1
:1039E0001A6708BD0090005008B54FF4C070FFF78B
:1039F0006FFBBDE80840044988428CBF02210121C9
:103A00004FF42070FFF774BF80F0FA02034B586840
:103A1000C0F30800003818BF0120704700ED00E037
:103A2000054B420953F8223000F01F0023FA00F042
:103A3000C04300F00100704700E100E0024A536B10
:103A40000342FCD1704700BF00400950044A41784E
:103A5000536F23F4407343EA01235367704700BF59
:103A6000004000500A4A10B51369044643F00403AD
:103A7000136103F035FF19F088FE30BF19F086FEA0
:103A800003F042FF1CB9BDE81040FEF707BB10BDB4
:103A900000ED00E0084A10B51369044643F0040342
:103AA000136103F01DFF30BF03F02EFF1CB9BDE80A
:103AB0001040FEF7F3BA10BD00ED00E0034A0179B3
:103AC000D36E23F030030B43D366704700400050A1
:103AD000F8B504461C4BD3F88420D106FBD4D3F8A8
:103AE0008430C3F381139C422CD0FEF7BDFA012C25
:103AF000064602D1214619F018FE19F036FE4FF0A5
:103B00000072124B07465A66204619F042FE4FF4E7
:103B100080630D4D621E93402B676B6E9A0103D438
:103B2000D5F884309B060AD5384619F022FE022CBF
:103B300008D13046BDE8F840002119F0F6BDD5F8AF
:103B40008430EAE7F8BD00BF00400050006000503C
:103B500007B518B90191FEF787FA0199064B1B7852
:103B600043B1064B984205D8012003B05DF804EB41
:103B7000FFF7AEBF0220F8E7C2300020005A620211
:103B80000278034B012100201A70FFF7E1BF00BF4C
:103B9000C23000204FF0004238B5284B28495A6601
:103BA0004AF6CD334D6C044605F001050B6460BB4D
:103BB0000120FFF743FF4B68DA0708D4002415B152
:103BC0001F4B204A1A6423F0E0FE204638BD1E4BEE
:103BD000586020461D4C0B6BDB0706D4A04202D177
:103BE0004FF0FF34EBE70130F5E7A0424FF0FF3430
:103BF00018BF0024E3E701320B6B13F0080307D072
:103C00008242F8D16FF00104D9E700220F48F3E7B0
:103C10008242F7D020210C4A91620121A2F5805204
:103C200051600749094A886A800603D49342E9D063
:103C30000133F8E79342C1D1E4E700BF00900050A0
:103C4000004009503254FFFF0060095040420F000D
:103C50004FF0004238B5164B01465A664AF6CD334E
:103C6000144C154A656C236443780B205B0043F0C9
:103C70000103D363FFF7E2FE63688A7823F4F873E5
:103C800043EA02136360CA784B7943EA0223A360D4
:103C90000A798B7943EA022323610878FFF77AFFD8
:103CA000EB0744BF054B236423F06FFE012038BDB2
:103CB0000090005000400950004000503254FFFF77
:103CC0004FF00042124B70B55D6E03F580535A669B
:103CD0004AF6CD3304460F4980204E6C0B64FFF743
:103CE000ADFE0B6A23F00F030F2C94BF234343F068
:103CF0000F030B62F30744BF074B0B64002DA2BFF9
:103D00004FF00042054B5A6623F03FFE70BD00BFE6
:103D100000800050004009503254FFFF00A00050C6
:103D20004FF00042104B70B55D6E03F580535A663C
:103D30004AF6CD3304460D4980204E6C0B64FFF7E4
:103D40007DFE0B6A23F4F85343EA04230B62F30766
:103D500044BF074B0B64002DA2BF4FF00042054B40
:103D60005A6623F012FE70BD0080005000400950DA
:103D70003254FFFF00A00050072AF7B501F00306F8
:103D800014461F464FF003012CD89500A94000FAB5
:103D900005F21C48019119F0FDFC01991A4806FA38
:103DA00005F219F0F7FC194B19499DF82000002F76
:103DB00008BF1946012303FA04F40C60154B164999
:103DC000002808BF0B461C60144B9DF82400C3F864
:103DD00020441031A3F6DC33002808BF0B461C60DA
:103DE00003B0F0BDA2F10805AD00A94000FA05F24C
:103DF0000B48019119F0CEFC01990A4806FA05F228
:103E0000CFE700BF00C4035008C4035010E40350C0
:103E100010D4035014D4035014E4035000E00350B2
:103E200004C403500CC403502DE9F04105460F466D
:103E30001E4690464AB101233022194C8B4002FBAA
:103E400000443EB304F5825423600F21072F05EB95
:103E5000450388BFA7F108044FEA0313114895BF33
:103E6000BC00A40004330C3308FA04F2A140184447
:103E700019F090FCB8F1000F0AD101213020084A56
:103E800001FA07F700FB05223EB102F582521760E6
:103E9000BDE8F08104F50154D6E702F50152F6E7DA
:103EA00000C0035030C00350F8B505460E46144616
:103EB0005AB3826803F0030722F44072826019F05B
:103EC00054FCAA6882EA072303F440735340AB60B2
:103ED00019F04FFC36B9B5F1B64F17D12E20FFF7C8
:103EE000F7F80646AB680C4BD85D60430DD06FEA1F
:103EF000C4040444A319B3FBF0F3AA68013B92077E
:103F000002D5002B08BF0123AB61F8BD034B9D42D6
:103F1000E8D12F20E3E700BF189002080080065088
:103F200038B500230E4A036400F50053DA634A787B
:103F300004460D4600F108037AB903F580530222C6
:103F40001A602046D5E901122B7BFFF7ADFF204612
:103F50002978BDE8384019F02FBC03F50053EEE78F
:103F6000FFFF1F00B0F1B64F2DE9F04322D0804B88
:103F7000984240F0FA807F4B402505264FF000081C
:103F80004FF0030C996800F50054C26B12F4C06F37
:103F900016D0970510D5FD225A7009221A700022FA
:103FA000026493F90110012900D15A7093F90100BC
:103FB000BDE8F083704BDFE75605EED5FE22EBE758
:103FC0001F78082F00F2CD80DFE817F009001F00EE
:103FD00041004C006900740096009E00C2004C88AD
:103FE0000A88E5060AD5120A02F0060242F0F0023B
:103FF000012119704263C1600120D9E702F0FE027D
:10400000A10748BF42F00102F2E7170607D5802159
:1040100000F50052D1634FF608721A8062E0520632
:10402000EAD54A88E563D70604D502221A700B78D0
:104030004363E1E7920765D507221A701B7901EB0C
:10404000C3010B89012BD7D10823C360D4E717061E
:10405000DDD45206D0D54A88E563970752D583F858
:1040600000C092E74C880A88E50643BF120A02F0B6
:10407000060242F0F00202F0FE02640709D51C7944
:1040800042F0010201EBC4010989012904BF0821A2
:10409000C160042119700123C3604263ACE71706B5
:1040A000B5D45706A8D54A88E56352072AD5072212
:1040B0001A70A1E71A795F8801EBC20EBEF808906A
:1040C000B94511D80132D2B21A714F88A3F80280D3
:1040D00017F0040FC3D1FF0702D4012A7FF655AFB2
:1040E00008221A700223B0E7DEF80420791C5980F8
:1040F000D25D42630622DBE7170688D457067FF5B8
:104100007BAFE5631E7040E794067FF575AF202610
:104110001A7900F5005401EBC2010A89456AE66389
:104120005C88A24281BF4968661C5E800D55598833
:104130008A42D5D90424012AC46004D9013A9142A3
:1041400001D10822C2601A78092A3FF428AF53E748
:10415000D2057FF551AF4FF4807100F50052D16365
:104160001BE74FF609321A8019E76FF003001FE7CB
:1041700000800650A81F00209C1F0020B0F1B64F01
:1041800010B407D01A4B98422ED06FF003005DF8A0
:10419000044B7047174B0269D20744BF2022C2600C
:1041A0004A88940702D50C89002CEED0520702D51C
:1041B0000A8A002AE9D04FF480721A6000229960BE
:1041C0001A71C023C3604369DB050FD4202200F5B8
:1041D0000053DA63084A5DF8044BDA63036C43F476
:1041E000FC630364FFF7BEBE044BD4E7436AEAE70F
:1041F000008006509C1F0020FFFF1F00A81F00200A
:104200004FF400120B4B10B5C3F88020BFF34F8F53
:10421000BFF36F8F0024FF22074B21465C652020EF
:104220009A625C60FEF738FF2146BDE8104021200D
:10423000FEF732BF00E100E000000450044A054BE5
:10424000002918BF1346012202FA00F018607047D7
:10425000402004504010045010B501210446202095
:10426000FEF71AFF01212120FEF716FF0122114B54
:104270005A60227812069A606178A27842EA014276
:104280009A61FF229A6200229A631A644FF00042F8
:104290005A654FF0FF324FF4001103F500531A65D1
:1042A000054AC2F88011E3781B01DBB282F81533AE
:1042B000116010BD0000045000E100E02DE9F04164
:1042C0000125C3B2D1F8008091F80AC00F7B91F8A4
:1042D0000DE09D400C46CB7A1C491D4E0D658100BA
:1042E00001F1A04101F58821C1F80480302101FBD2
:1042F00000601B0543EA0C4343EA475322F00302E4
:10430000C0F860E0C365026719F036FA736D2B439D
:104310007365237A13B1336C2B433364637A13B11F
:10432000B36B2B43B3632279A37943EA0243074A71
:1043300093616179E37943EA014306498B61044B58
:1043400055639D64BDE8F04119F01CBA002004508B
:10435000000004500010045010B50124C0B2844085
:1043600019F00AFA044B5A6D22EA04025A659C625B
:10437000BDE8104019F006BA0000045010B5012441
:10438000C0B2844019F0F8F9074BDA6A224209D129
:104390005B6B34EA03030CBF0124002419F0F2F92B
:1043A000204610BD0024F9E7000004504FF480328D
:1043B000054B9A6641F6713203F51C33DA6301222C
:1043C00003F50053DA6070470090005041F67132F7
:1043D0000121064BDA6303F50052D1600022DA6353
:1043E0004FF48032A3F518339A66704700000350EB
:1043F000013831289ABF024B185C0020704700BF7B
:104400001C90020810B5C2F30623044602F007020E
:1044100041B942EA03220B4B42F44022063443F8EE
:10442000242010BD1846114619F0D0F9014618464F
:10443000FFF7DEFF034B41EA0020163443F8240067
:10444000EFE700BF008003504FF48032064B5A66FE
:1044500003F5E6239B69C3F38512827003F03F02E4
:104460001B0B42700370704700900050014B986C1A
:10447000D96C70470080E00F0120034B9B680A3322
:1044800003F01F03984070470080E00F70B50546A9
:1044900016461C4621B94FF42070FEF719FE01465E
:1044A000402C1BD003D8DCB1202C1BD070BD602C5D
:1044B000FCD1042303FB06F2560806EB4113B3FBC1
:1044C000F2F3094A203B02EAC303AA6822F0600221
:1044D000AA60AA681443AC60EB61E7E70623E9E74A
:1044E0001023E7E70823E5E7F8FF7F00012100F547
:1044F000805310B5596040F6AA6341F2050243614A
:104500000023094C8360C365C26000F5005203615B
:10451000C361C3649464054C8365A04204BF036512
:104520004365516010BD00BFFFFF010000C0055092
:1045300070B50D46FFF7DAFF012300F58056736072
:10454000AB7C04461BB1836843F080438360EB7C03
:104550005BB1244B9C4202BF2A7DA3F51033C3F804
:10456000C821E36D43F08003E3652A8A6B7B204614
:104570001343EA891343E3602B7BD5E90112FFF76C
:1045800085FF6B7D1BB1A36843F48033A360AB7DD3
:104590001BB1A36843F40043A360EB7D2A7E1B0795
:1045A000120502F4E00203F0E0431343A3656B7EBF
:1045B0009A1E012A4FF0020209D80B49032BC1F8B9
:1045C000202709D10423F3652B78636170BD074967
:1045D000012BC1F82027F4E7042204F50053DA6523
:1045E000F2E700BF00C0055000D0035000E00350C8
:1045F000054B9A689107FCD45A689207F9D4DA6996
:10460000002AF6D1704700BF00800A5008B5FFF7B6
:10461000EFFF0122024B03F580514A601A6108BD89
:1046200000800A50074B5A68012A0AD15A68D207FB
:1046300002D5DA69002AF9D102221A610122024B5D
:104640005A60704700800A5000A00A5010B5064C0E
:10465000FFF7CEFF6368012B03D1FFF7E3FFFFF7FE
:10466000C7FF0378E36010BD00800A50E8B94A68CC
:104670000B7812B1127843EAC2034A78002A14BFB9
:104680000222002213438A6812B1127843EA82138D
:104690008A78002A14BF042200221343CA6812B188
:1046A000127843EA4223014A9364704700800A501B
:1046B00008B9014B5964704700900A5008B9014B82
:1046C0005964704700A00A5008B9014B196470473B
:1046D00000A00A5010B9024B186C704700207047B8
:1046E00000800A5048B911B1012903D07047044B2A
:1046F000D86C7047024B186D70470020704700BFA0
:1047000000800A5040B911B1012903D07047034B12
:10471000DA647047014B1A65704700BF00800A5089
:1047200038B50446054D23F056F90FCC0FC594E873
:10473000030085E80300002038BD00BFB41F00203F
:1047400047F6FF739A42F0B566D0012966D8344D1A
:10475000CF0015F8313005EBC100012B847813D15F
:104760000025C3781B1B9D4202D3E018C0B2F0BDE8
:10477000591B4668A3EB510136F911609642D4BF2C
:104780000D4601F1FF33EEE740680028EFD0B0F9A5
:104790000030934204DBB0F902309342B8BF1346B5
:1047A00082883D44FF2A19BFC8214FF0280CB0F978
:1047B0000610B0F908C0A1EB03020CBF01260026C9
:1047C00092FBFCF26D78324412B2954201DD002A70
:1047D00001DA6A1E12B24FF47A7700EBC206F18852
:1047E000B668013213FB016112B221EAE1715C315A
:1047F0009542B1FBF7F104DD00EBC206B6888E42AC
:10480000EBD200EBC20232F8040C884228BF084603
:10481000A04238BF2046A9E7FF20A8E70020A6E76E
:10482000B41F00200129F0B553D82B4800EBC10478
:1048300010F83110636801290FD1E078A478904214
:1048400094BFC4EB0001C4EB0201001BCAB2824258
:10485000C8BF002233F91200F0BD002B39D0A17877
:10486000914202D3B3F90200F6E7E178B3F9000010
:104870009142F1D999886478A1F1FF06013C714217
:1048800003F10405E4B2714103F10C071FFA82FC45
:10489000CEB2B44216D805EBC1014FF47A756A4323
:1048A000B1F902404968521A04EBD47102EB61027B
:1048B00092FBF4F29042CFDBB3F902009042CBDCE2
:1048C00010B2C9E737F831E04E1CE645E3D3314674
:1048D000DEE70248C0E700BFB41F00200080FFFFF2
:1048E0000148FFF71DBF00BF509002080048704705
:1048F0008C0C00207FB50222084B0949CDE9012329
:104900004FF00073CDE90313072301A94FF0FF30E7
:10491000059323F098F807B05DF804FB006A1800CF
:104920000002060008B5B0B14FF480620B4B9A66E6
:1049300018F082FF4FF098435A6CD202FCD54FF426
:104940008062586D064B10F470209A6604D0BDE862
:10495000084018F0AABF212008BD00BF00900050F9
:1049600000A000502DE9F0418CB08846DDE91276B8
:104970001D460446002847D0002945D0002F43D0CB
:10498000002E41D013F00F033ED120482049A360F0
:10499000002A18BF0146E361C4E90013404609A993
:1049A00019F077F868BB2046099918F03CFF2946B2
:1049B000204618F038FF6946404600F085FA00BBF3
:1049C0006946204618F01BFF404603A919F02FF94D
:1049D000B8B9204603A918F012FF06970127204610
:1049E00045F0005506A90797089518F008FF2046DE
:1049F00009A909960A970B9518F00BFF2046FFF7B7
:104A000091FF0CB0BDE8F0812120FAE7000101041C
:104A100000010004F0B50C4617461E46054695B049
:104A2000002874D0002972D0002A70D0002B6ED0DC
:104A3000036B0F2B5BD80023364A3846C4E90023AA
:104A4000A360E36111A919F024F800285BD1204686
:104A5000119918F0E8FE296B20460F2984BF01F058
:104A60000F01103118F0DFFE384602A900F02CFAD1
:104A7000002848D1204602A918F0C1FE384605A9F1
:104A800019F0D5F800283ED1204605A918F0B7FE48
:104A90000122214B089509920A932B6B05F1100016
:104AA00003F00F0141F000510B900F2B0C920D9170
:104AB0000E900F9243F00052109226D90A9B08A93B
:104AC00023F0005320460A9318F099FE0BA92046C4
:104AD00018F095FE0123119612930F4B204611A951
:104AE000139318F096FE2046FFF71CFF0BE000F131
:104AF0002003019000930122102339462046FFF73E
:104B000031FF002897D015B0F0BD0EA9DFE72120B6
:104B1000F9E700BF00000404100000202DE9F04F69
:104B20009BB00D46914698460646DDF890A00028B9
:104B300000F0B380002900F0B080002A00F0AD80C2
:104B4000002B00F0AA80026B02EB0A031B09B3EBF7
:104B5000121F02F00F0700F098800023504A8B606C
:104B6000C1E90023CB61484617A918F092FF04461B
:104B7000002840F0868007EB0A0323F00F0B28463D
:104B80001799009318F04FFE5946284618F04BFE2F
:104B9000484602A900F098F90446002871D1284639
:104BA00002A918F02CFE484605A919F040F8044661
:104BB000002866D14FF00109284605A918F01FFE0C
:104BC000384A284608A90896CDF824900A9218F089
:104BD00016FE47F00051ABEB070706F1100347F054
:104BE00000570B93CDF830900D91CDF83880CDF86B
:104BF0003C9010970D99284621F000510D910BA97A
:104C0000019318F0FCFD28460EA918F0F8FDABF151
:104C10001001244A41F000511194CDF848901391AD
:104C200006F120011491CDF854901692139928465C
:104C300041F080411391139921F00051139111A972
:104C400018F0E7FD284614A918F0E3FD154A17A946
:104C500028461796CDF86090199218F0DAFD28468C
:104C6000FFF760FE009B0446ABEB0301A3EB0B02D6
:104C7000019B51441846414423F0D9FA336B534405
:104C8000336320461BB0BDE8F08F103052464146DA
:104C9000384423F0CCFA0024F0E72124F1E700BFE8
:104CA00003020004100000202DE9FF4700230E46F8
:104CB00017460446009300285BD00AB1002958D05B
:104CC00037F0030807F0030A25D04FF000094FF032
:104CD000E063C4E90039012301962046029301A94B
:104CE00048F00053C4F80890C4F81C90039318F0DF
:104CF00090FD4146204618F096FD2046FFF712FE33
:104D0000054640B142464946304623F0B7FA2846A8
:104D100004B0BDE8F0874FF00009BAF1000F2AD0C7
:104D20004FF0E063C4E900390123CDF804D00293C9
:104D3000124B204601A9C4F80890C4F81C900393B4
:104D400018F067FD0421204618F06DFD2046FFF79E
:104D5000E9FD054608B13A46D5E7034600994644C1
:104D6000DA00013321FA02F29A4506F8012BF7D155
:104D7000CDE72125CBE75546C9E700BF0400002059
:104D8000F0B50F4616461D46044693B010B92120D3
:104D900013B0F0BD0029FAD0002AF8D0002BF6D0CD
:104DA000002331461A46384618F028FE0028EFD175
:104DB000304602A918F0B8FD0028E9D1EB68022BB3
:104DC0000AD039683F48029A81426B6902D0183094
:104DD000814270D19A42DAD82B68002BD7D14FF09C
:104DE00060623846C4E90023A360E36101A918F0BA
:104DF00050FE0028CCD10199204621F4F0610191A8
:104E000018F011FD6946284618F043FE0028BFD16E
:104E10002046009918F007FD384609A900F054F81B
:104E20000028B5D1204609A918F0E9FC38460CA99C
:104E300018F0FDFE0028ABD120460CA918F0DFFCCD
:104E4000EB684BB1284606A900F03EF800289FD138
:104E5000204606A918F0D3FC304603A918F0E7FE57
:104E6000002895D1B368DA040CD59B0427D5062118
:104E7000F36932691B6801FB03225B0043F00053B6
:104E800003920593204603A918F0B9FC28460FA900
:104E900018F0CDFE00287FF47BAF20460FA918F054
:104EA000B8FC03252046FFF73DFD01287FF470AFD5
:104EB000013DF7D16CE7B3EB420F8DD267E72920B4
:104EC00066E700BF200000B0A0B199B101234B609C
:104ED000C368013B012B0AD88069074B18B10860F1
:104EE00000208B607047054A0A608B6070474FF066
:104EF0000053F5E72120704708000020FCA10208BC
:104F000005289ABF014B185C0020704704A20208D4
:104F100030B5154B87B00293144B0390049346F6BB
:104F200011030D46059300F06DF91428044616D1BF
:104F3000684618F08BFF4FF0A843032202A95A637A
:104F400019601D619A63DA6B9207FCD1142C02D1AF
:104F5000684618F089FF00F089F9044601E000284E
:104F6000E9D0204607B030BDCC1F0020040000204F
:104F70002DE9F04FB1B005468C46E9466E4F3B9E99
:104F8000DDF8F8E0409C07F1100AC84638687968F7
:104F90000837A8E803005745C146F6D10EEB0208D2
:104FA000C8F1000909F00F09002E00F0AF80774228
:104FB00007F00F070121DDF8FCB0C4F1100ACDF8AD
:104FC00010B0059144F0005106914FEA0A2101F416
:104FD000F85141F02101079106B96B460893002D65
:104FE00040F09680002C00F0938004AB0993002ED3
:104FF00000F0908046F000530A93002D40F08D8021
:10500000002C14BF0123212343EA07230B9308A993
:1050100042F00053CDF830C03D980D910E934FEA09
:10502000092343F041030F93109002B10CA9002A09
:1050300016BF00224FF00052412342EA0E021191A6
:10504000129213933C9B3D4A149310AB15933C4B27
:105050000021169340F6110317933A4B002D08BF19
:105060001346189314AB1993374B10221A9311233C
:105070001B931CAB184623F001F901221D924AF044
:1050800080421E9200220346239205B9EB46102C63
:1050900008BF01230DF1900A102200215046CDF8DF
:1050A00080B02193229423F0E9F8002C37D020AB74
:1050B000002125938F4218BF534647F08042269225
:1050C0003A9A2CA88A422892299313460CBF4FF093
:1050D00080430B46102233432B912A9323F0CEF8C2
:1050E000FEB95346C8442D932CA948F0804318A814
:1050F0002E93FFF70DFF30B92DB90346A34212D10D
:10510000002818BF2C2031B0BDE8F08F102751E7E0
:1051100001236BE747F000536EE7212374E7012377
:10512000C6E728ABDEE703F1C0026A4412F8C02CE0
:1051300001331043E2E700BF0AA202081CA20208E2
:105140001000002020A2020804000020F0B5C029B1
:105150009FB0249E4FD0B1F5807F04D0802941D0EC
:1051600029201FB0F0BD40F2344440F21445002E17
:1051700008BF2C4621271025019401240296039490
:1051800004950597259F069706B102AC0794012464
:10519000089509940A9221220B940C950D92174AB6
:1051A0000AAC0E92164A0F94109242F61102119216
:1051B000129313941495159201AA1692CBB112ABC7
:1051C0001793042318931123199316AB1A901B936A
:1051D00040F61103C9081C911AA806A91D93FFF7F0
:1051E00097FEBEE7002E14BF4FF486644FF482642E
:1051F000C0E70EABE4E70F20B3E700BF24A202082C
:105200001000001038B5164B5A6E42F004025A6670
:10521000D3F8802242F00102C3F88022114B5B6870
:10522000C3F3080343B14FF0A842D36B13F0430F0D
:10523000FBD11424204638BD4FF0A843DC6B14F09A
:105240004304FBD1084D2B681BB90421284603F009
:10525000C1FA2B68013343F000432B60EAE700BF3B
:105260000080005000ED00E0CC1F0020014B00202A
:105270005B68704700ED00E0012300F01F02A0F51D
:1052800006200949A0F550604009934051F82020BC
:105290001A4341F82020054951F8202022EA03034F
:1052A00041F82030704700BFD01F0020E41F0020CD
:1052B0000121A0F506230F4AA3F550635B0900F016
:1052C0001F0001FA00F052F8231008430A4942F87F
:1052D0002300D1E90030034488680344C8680969A1
:1052E00003445B1802BFC2E90033C2E90233136111
:1052F000704700BFE41F0020D01F00202DE9F04FB1
:10530000A9B002921F46DDE9328904460822CDE9A0
:105310000301414021FA02F34B40980702F10802D1
:1053200018BF9B00202A1C44F4D18123B4FBF3F363
:1053300003EBC313E41A784B04F506241B7804F539
:105340005064002B3CD1FDF7DFFB014620B16FF02C
:10535000910029B0BDE8F08F4022059008A822F006
:105360008DFF4022059918A822F088FF6B4EDFF8C8
:10537000C4A1334603F10F0B102208A9DAF800008C
:10538000CDF800B0059322F0E0F800220146059B1D
:10539000103608AD914244D1CDF800B01022DAF8B1
:1053A000000018A922F0DAF84FF0000B034618AD00
:1053B0005B4542D15A4B9E42DBD10122564B1A70BB
:1053C00081250026DFF86CA1A4F50623554AA3F534
:1053D00050635B0952F8232004F01F01CA40D20732
:1053E0003ED4514A52F82300C84010F001002DD09D
:1053F000002E08BF26468123A4F50724A4F2FF440B
:10540000B4FBF3F303EBC313E41A04F50624013DE4
:1054100004F55064D8D1029BD3B1CEB1349B1E6049
:1054200063E055F8040BCDE906230591FFF724FF4F
:10543000069A079B05990132ACE755F8040B0593D2
:105440000BF1010BFFF734FF059BB1E7029B13B98A
:105450006FF08B007DE7349B002E45D01E6078E70F
:10546000B8F1000F02D00023C8F80030B9F1000FE6
:1054700002D00023C9F800304FF0100B00233A4649
:105480002146DAF80000CDF800B00FF01FFA70BB2B
:10549000B8F1000F01D0C8F800B03B68234A93422E
:1054A0002FD1B8F1000F11D0B9F1000F0ED04B463B
:1054B0002146DAF8000018AA0FF05CFAB8B9D9F85A
:1054C0000030D8F800209B1AC9F80030D7E9022331
:1054D000DDE90310834208BF8A428CD1029B13B1DD
:1054E0007B68012B15D0349B1C60002031E7104BEA
:1054F000984206D01233984203D0133B9842E5D02D
:1055000025E72146DAF800000FF07AFA0028DDD00E
:105510009EE76FF084001CE7C3300020006D080098
:1055200000710800D01F0020E41F0020105D175EEE
:10553000FFDF00F0040B00202DE9F04F87B082461A
:10554000894698461646DDF840B02AB1002B4ED069
:1055500040F26C739A424DD8BBF1010F4DD8002434
:1055600006F1100739460120059419F089FD05461A
:10557000002845D021463A4622F080FE05ABCDE911
:10558000014300942B46012250464946FFF7B6FEE0
:10559000044680B110F18C0F08BF6FF08D043A46BD
:1055A0000021284622F06AFE284619F07AFD20469E
:1055B00007B0BDE8F08F144BC5E902A92B60C5F810
:1055C00004B02EB13246414605F1100022F02FFE04
:1055D0000E483B462A46059900680FF0DFF818B9D7
:1055E0000598FFF749FEDAE76FF09104D7E76FF00F
:1055F0008604DCE76FF09104D9E76FF08504D6E705
:105600006FF08C04D3E700BF105D175E040B002021
:105610002DE9F0438DB08146DDE914780C4615463E
:105620001E469BB1B8F1000F05D16FF086042046ED
:105630000DB0BDE8F083002FF7D0B7F1005FF4D3D1
:10564000C3F1005303F580239F42EED810220021BE
:1056500008A822F013FE002207AB029305AB0193CA
:1056600006AB21460093484608ABCDE90522FFF77B
:1056700045FE04460028DAD10599DEB1A94203D8D7
:105680000029D2D115B1D0E70029FBD0491BB14286
:1056900028BF3146069B0948C8F8001000913A46D9
:1056A000079900682B440FF011F9002818BF6FF01C
:1056B0009104BCE7A942E9D2B7E700BF040B002080
:1056C00030B58DB00C4605461022002108A822F006
:1056D000D5FD002207AB029305AB019306AB214633
:1056E0000093284608ABCDE90522FFF707FE0446E4
:1056F000D0B9099B012B1AD0104B079918680FF0ED
:105700007FF9B8B9012207980D49A0F50623A3F542
:1057100050635B0900F01F05AA4051F823506A400E
:1057200041F82320FFF7C4FD20460DB030BD6FF0D7
:105730008404F9E76FF09104F6E700BF040B002042
:10574000D01F0020F0B50D4614461E46C3B010B958
:105750006FF086000DE00029FAD0002AF8D0002B67
:10576000F6D0038803F44F42B2F5824F03D06FF0B6
:10577000850043B0F0BDDAB2122AF8D123F0FF035E
:10578000B3F5E24F28D14388336003BBE3003360B5
:105790003368B3F5807FEAD10023424A28191444C4
:1057A0001A4614F8016D10F8011D0A43891B0CBF3D
:1057B0004FF0FF360026854203EA060343EA010361
:1057C000EFD1002AC4D0002BC2DA0020D1E7073382
:1057D000B4EBD30FDCD0BBE7B3F5824F5FD10B78CE
:1057E000042BB5D120220021684622F047FD6846EF
:1057F00018F08BF800284FD1842200210DEB020015
:10580000209122F03BFD20220123882700210DEB6F
:105810000200013C8DF88030013522F02FFD20225E
:1058200000210D9410A8E4000C95640822F026FDD8
:1058300020AD2022002118A81495159722F01EFDF6
:10584000E02CCDE91C57346003D0B4F5807F7FF4A1
:105850007FAF154B0734089310934FF400530A930E
:105860004FF48043E408129308AA18AB684664001A
:1058700010A91994FFF784FA33680733DB085A003C
:1058800043B900283FF475AF62E705F8013B013AE0
:10589000FBD2F6E70023FAE76FF0920069E76FF0BA
:1058A000960066E728A2020820000080F8B513469B
:1058B00042880D460732072A4FEAD20104D0A94296
:1058C00002D06FF086003AE044680688C76820225C
:1058D0001846002122F0D2FC240A034614B1012C00
:1058E00052D1C460002DECD041F20102964205D0A5
:1058F000B6F5885F02D0B6F5905F0ED15D60002CE2
:1059000045D017F0020007F0010116D1B9B99A6825
:10591000084642F080729A6011E0B6F5105F07D138
:10592000182D03D0202D01D0102DCAD11D60E5E720
:1059300006F44F42B2F5824F02D06FF08500F8BDF9
:10594000F2B2122AF9D1202DF7D1124A26F0FF0621
:10595000B6F5E24F1A600DD14FF4804217F4705F34
:105960009A600DD017F4864FE7D19A6842F48062AE
:105970009A60C4E7B6F5824FA3D14FF40052EDE729
:105980009A6822F48062F3E76FF08B00D7E7204635
:10599000D5E700BF200000802DE9F0411546002228
:1059A0001C4643688AB01B0A07460E46019204D083
:1059B000012B59D06FF08B0094E0008820F0FF039A
:1059C000B3F5824F4ED17A880732D208019218F08F
:1059D000B9FA002800F001810B78042B02D06FF097
:1059E00086007FE0013DB5EB420F06F10106F6D1DE
:1059F000224638460199FFF759FF002872D1033536
:105A0000C4E9030625F003056561019D002C00F043
:105A1000C880002D00F0C5802022002102A822F0BD
:105A20002DFC2946384602AAFFF740FF002840F027
:105A3000B8802368029A9A4240F0B3806368039A60
:105A40009A4240F0AE80A368049A9A4240F0A9803E
:105A5000A369089A9A4240F0A480E369099A9A429D
:105A600040D09EE00195C3E7032DB8D991F800809E
:105A7000B8F1010F40F0B4804978002979D0F739A6
:105A8000082997D801A353F821F000BF235B000831
:105A9000EB5A0008B5590008075B0008B559000823
:105AA000B15A0008B55900083F5B0008595B00086F
:105AB0001C22002103A822F0E1FB4B4B4FF41050B5
:105AC00002930323CDE90403FC2306930AAD02AB42
:105AD0001A4603CAAA4220606160134604F1080412
