:020000021000EC
:10200000C00A0020C53601001D2903001D29030058
:102010006D3C03001D2903001D2903001D29030039
:102020001D2903001D2903001D2903001D2903008C
:102030001D29030030E80300132703001D290300B6
:102040001D2903001D2903001D2903001D2903006C
:102050001D2903001D2903001D2903001D2903005C
:102060001D2903001D2903001D2903001D2903004C
:102070002D8B01001D2903001D29030031320100B1
:10208000E52703001D2903001D2903001D29030066
:102090001D290300B13F01001D2903001D29030074
:1020A0001D2903002D410100094101001D290300E4
:1020B0001D290300590503001D290300450F0300D6
:1020C00007DE030003DE03003907030013DE03000D
:1020D0000BDE03001D0F03000FDE0300850F03005E
:1020E000E1E80200B5EA0200F10F03001D29030038
:1020F0001D2903001D2903001D2903001D290300BC
:102100001D2903001D2903001D2903001D290300AB
:102110001D2903001D2903001D2903001D2903009B
:102120001D2903001D2903001D2903001D2903008B
:102130001D2903001D2903001D2903001D2903007B
:10214000013800D0FCE770472DE9F0432DED028BFC
:10215000064687B064200D4691469846109F06F0CB
:1021600005FB354B3548CDE901370723ADF80C3079
:10217000002301A90493ADF8143003F0DFF82F4CCD
:1021800001284DD000284FD14B2006F0EFFABC7843
:102190007B78240244EA0344FB789FED298A1C43A0
:1021A000240907EE904AB8EEE77ADFED267A27EEAB
:1021B000087A67EE277AC9F8004017EE900A1FF0F8
:1021C000FFF81BA3D3E900231EF09AFF1FF050F97C
:1021D000C0B207EE900AB8EE677A012088ED007A67
:1021E00006F0C4FA3B79FA781B0243EA02437A7993
:1021F000DFED156A1343C3F3130307EE903AF8EECD
:10220000E77A9FED127A67EE887A17EEA67A336046
:10221000012085ED007A07B0BDEC028BBDE8F083AC
:10222000204602F06FFFABE70020F4E7AFF3008039
:102230003333333333534340700002000080065081
:10224000000080350000C8420000484300004842BA
:10225000002370B5404C05468AB0E36318B100888E
:1022600023600DF0D1F93D482BF07AF83C4E3D4B00
:10227000304633603C4B736025F0F8FB002130465C
:1022800018F002FA32A3D3E90023A062C4E90623BE
:1022900025F0F7FBD4E90623194310434FF0FF3331
:1022A000C4E90601CDE900014FF0FF32A06A2BF02E
:1022B000C0F802224FF0FF31A06A2BF0BFF80120D6
:1022C0000CF03AFF4FF4007300222849A06A2BF06B
:1022D0000EF9B0F5007F38D100239422CDE9073301
:1022E00009933C23CDE9033205939623A06A03A901
:1022F000069318F0E5FA35B3287C0DF0DBFB0546B4
:10230000F0B9A06A2BF0D4F90DF07CFB0CF0F6FECE
:1023100020B14FF4807000210AF04AFD0CF0FEFE5F
:1023200020B14FF4006000210AF042FD25F06DFB62
:10233000012018F0FDF90E4A0E49A06A25F094FB21
:1023400028460AB070BDFF20D7E70725F8E700BF91
:102350000DD501552000000018190020690345EC37
:102360009C2E002071F80100902E0020902C00205F
:10237000117A0300517A030010B5054C237833B964
:10238000044B13B1044800E000BF0123237010BDCB
:10239000681B0020000000006436040008B5034BF1
:1023A0001BB10349034800E000BF08BD0000000066
:1023B0006C1B002064360400A3F5803A704700BF10
:1023C000174B002B08BF134B9D46FFF7F5FF00216D
:1023D0008B460F461348144A121A2BF067FD0E4B1A
:1023E000002B00D098470D4B002B00D098470020C1
:1023F000002104000D000D48002802D00C4800E028
:1024000000BF1FF001FA2000290020F06DF91FF035
:10241000E7F900BF00000800000000000000000015
:10242000C00A0020A818002080350020000000000D
:102430000000000010B5642086B006F097F9114B3B
:1024400011481A889B7801A98DF802300F4BADF81E
:10245000002001930323ADF80C300023CDF808D001
:102460000493ADF8143002F069FF074C012804D042
:10247000B0FA80F0400906B010BD204602F042FEDE
:10248000F4E700BFC0E103000080065070000100C7
:1024900010B5642086B006F069F9114B11481A880E
:1024A0009B7801A98DF802300F4BADF80020019305
:1024B0000323ADF80C300023CDF808D00493ADF819
:1024C000143002F03BFF074C012804D0B0FA80F032
:1024D000400906B010BD204602F014FEF4E700BF2C
:1024E000C3E10300008006507000010000B50C4BF2
:1024F00089B0039301AB04930123ADF8143002AB10
:10250000069300238DF8040003A90648ADF81C309B
:1025100001F002FBB0FA80F0400909B05DF804FB5D
:10252000460001000080065030B5104B89B003937F
:1025300001AB049302AB0124069302230D468DF8F0
:10254000040003A90A48ADF81440ADF81C3001F0AE
:10255000E3FA40B920469DF808302B709DF8093009
:102560006B7009B030BD0020FBE700BF46000400DF
:102570000080065038B51C4B1B78002B33D11B4D07
:102580001B4C20F07BF920F07AF91A49286821F0D9
:102590006DF92146184800F0E9FBA37822781A4328
:1025A00023791A43A3791A43237A1A430243D2B2F6
:1025B000CAB11248234609221B21007810F096F870
:1025C00088B1022000F0F2FE68B10D49286821F0C0
:1025D0004DF920F053F920F052F928680949BDE877
:1025E000384021F043B938BD2E3400204C1C002067
:1025F000DA330020C6E10300E4330020D0330020AA
:10260000D2E10300D7E1030010B5002420F046F822
:1026100020F051F8094B224621461C705C704FF4A3
:102620008030234610F096F823462146BDE810403E
:10263000012241F6991010F08DB800BFE43300205C
:10264000F0B5334B87B01A78002A5FD00022314CA6
:102650001A7020F023F80A2006F088F82E4B2F4A33
:102660002F4930480094FFF76FFD06462E4D0A2093
:1026700006F07CF80A2006F079F829461020FFF7CA
:1026800053FF012E42D1012840D1237827488DF8ED
:102690000C30637803A98DF80D30A3788DF80E30D7
:1026A000E3788DF80F3023798DF8103063798DF849
:1026B0001130A3798DF812302B788DF813306B78A8
:1026C0001B4D8DF8143000F029FB38B120F0D6F8FE
:1026D00020F0D5F81749286821F0C8F80026164FD1
:1026E00003AC20F0CBF8013620F0C9F8394614F8D5
:1026F000012B286821F0BAF8092EF2D120F0BEF89B
:1027000020F0BDF80D49286821F0B0F807B0F0BD01
:10271000E3330020D1330020C01B0020BC1B00206D
:10272000C81B0020C41B0020D8330020E433002045
:102730004C1C00200AE2030024E20300B3E2030081
:1027400070B50368A44A23F47F4323F00703934240
:1027500005468CB000F059820AD8A2F510229342A7
:1027600022D002F5A022934200F09D810CB070BDF2
:102770009A4A934200F0E18102F1BF6202F54032D1
:102780009342F3D103791BB90122954B1A70EDE7FF
:10279000012BEBD1934B1B78DB07E7D492480CB0AD
:1027A000BDE8704020F05DB90DF11F0108A80FF0E1
:1027B000B3FF8E4C064608B38D49206821F056F8C9
:1027C0008C49206821F052F820F058F820F057F892
:1027D000894B8A4A8A4900932068BF2321F046F832
:1027E00088493346884A206821F040F8304600F096
:1027F00023FE8649206821F039F8FEE79DF8253050
:1028000001468DF828309DF8243008228DF82930B3
:102810009DF8233018208DF82A30FF238DF82B30B7
:10282000FE238DF82C309DF822308DF82D309DF848
:1028300021308DF82E309DF820308DF82F300AABE6
:102840000FF026FF064608B36949206821F00EF80C
:102850006849206821F00AF820F010F820F00FF8FD
:10286000654B664A664900932068CF2320F0FEFF3F
:1028700064493346644A206820F0F8FF304600F08F
:10288000DBFD6249206820F0F1FFFEE71FF0F6FF54
:102890001FF0F5FF2B895E490093EB88AA8820681A
:1028A00020F0E4FF1FF0EAFF1FF0E9FF9DF8203061
:1028B0009DF81F0004939DF82130564903939DF81D
:1028C0002230554A02939DF82330544E01939DF8CF
:1028D0002430002808BF0A46009351499DF825304E
:1028E000206820F0C3FF30460FF05EFE054608B3B7
:1028F0003F49206820F0BAFF3E49206820F0B6FF2B
:102900001FF0BCFF1FF0BBFF3B4B3C4A3C49009310
:102910002068E02320F0AAFF3A492B463A4A206873
:1029200020F0A4FF284600F087FD3849206820F0F9
:102930009DFFFEE7022130780FF070FE054608B3D8
:102940002B49206820F092FF2A49206820F08EFF52
:102950001FF094FF1FF093FF274B284A284900934C
:102960002068E52320F082FF26492B46264A20686E
:1029700020F07CFF284600F05FFD2449206820F00D
:1029800075FFFEE7A02200900346114630780FF055
:1029900023FE054600284BD01549206820F066FF2D
:1029A0001449206820F062FF1FF068FF1FF067FFE6
:1029B000114B124A124900932068ED2320F056FF74
:1029C000184A1949206820F051FF2A461749206803
:1029D00020F04CFFFEE700BFA0000A00A0000601A7
:1029E000E33300202E34002080E703004C1C00203D
:1029F000B3E2030045E203001CE403004AE20300E3
:102A000053E2030062E203005FE2030077E20300A7
:102A100088E2030037E2030029E203000E0D0020E4
:102A2000B5E20300EAE20300FDE2030015E3030060
:102A3000022130780FF006FE054608B39E49206853
:102A400020F014FF9D49206820F010FF1FF016FFB2
:102A50001FF015FF9A4B9B4A9B4900932068F52372
:102A600020F004FF99492B46994A206820F0FEFE89
:102A7000284600F0E1FC9749206820F0F7FEFEE7C9
:102A8000032000F093FC00283FF470AE92492068C8
:102A900020F0ECFE1FF0F2FE1FF0F1FE8F492068DF
:102AA00020F0E4FE62E6032000F080FC60B18C4C74
:102AB0008949206820F0DAFE1FF0E0FE1FF0DFFEFB
:102AC0008849206820F0D2FE2A7B874B4FF47A7128
:102AD0001A700123854A00938548002300F0FCFC0E
:102AE000054618B37E4C7449206820F0BFFE734938
:102AF000206820F0BBFE1FF0C1FE1FF0C0FE704B2F
:102B0000704A71490093206840F2051320F0AEFE30
:102B10006E492B466E4A206820F0A8FE284600F039
:102B20008BFC6C49206820F0A1FEFEE70021704874
:102B30000CB0BDE87040FFF71DBD032000F036FC6F
:102B400068B1674C6449206820F090FE1FF096FE43
:102B50001FF095FEAA886749206820F087FEFF22B3
:102B6000614B1A7000231A46194618460FF0F2FD01
:102B7000054600B35A4C5049206820F077FE4F4973
:102B8000206820F073FE1FF079FE1FF078FE4C4B9A
:102B90004C4A4D49009320684FF48A7320F066FE3A
:102BA000554A5649206820F061FE2A46544920685B
:102BB00020F05CFEFEE7534B022118780FF042FD37
:102BC000054600283FF4D2AD454C3B49206820F033
:102BD0004DFE3A49206820F049FE1FF04FFE1FF0DD
:102BE0004EFE374B374A3849009320684FF48E73B6
:102BF00020F03CFE404A4149206820F037FE2A463A
:102C00004149206820F032FEFEE7B0F805301E2B67
:102C10007FF4ACADC37A3D4D314C93B100232B70A2
:102C20001FF02CFE1FF02BFE3949206820F01EFEFD
:102C30002B78012B10D12E480CB0BDE8704000F06D
:102C400031BC34481FF00AFF01232B701FF016FE21
:102C50001FF015FE3049E8E701234FF47A71009325
:102C6000224A0023224800F037FC054600283FF4A2
:102C70005DAF1149206820F0F9FD1049206820F06F
:102C8000F5FD1FF0FBFD1FF0FAFD0D4B0D4A0E493F
:102C9000009320684FF4BD7320F0E8FD0B492B46EC
:102CA0000B4A206820F0E2FD284600F0C5FB0949E8
:102CB000206820F0DBFDFEE7B3E2030045E20300FD
:102CC0001CE403004AE2030053E2030062E2030053
:102CD0005FE2030077E2030043E3030048E30300FD
:102CE0004C1C00206CE30300D0330020752501004C
:102CF000841B002080E30300EAE20300FDE20300FE
:102D0000A5E303000E0D0020D2E303002E340020C3
:102D1000FBE3030080E703000BE4030038B504463F
:102D20001FF0EEFC90B909226378481E02FB0342B3
:102D30000831023210F8015F884202F8015BF9D1D4
:102D40000120013303F00703637038BD1FF096FDC7
:102D50001FF095FD034B0449186820F087FD002003
:102D6000F3E700BF4C1C00202BE4030008B50278F9
:102D700043789A420AD11FF081FD1FF080FD0C4B71
:102D80000C49186820F072FD002008BD002203786D
:102D900003EBC303034413449B788B540132092A89
:102DA000F5D10378013303F0070303700120ECE74A
:102DB0004C1C00203DE4030030B503687F4A23F437
:102DC0007F4323F00703934289B040F0F480082248
:102DD000002112207A4B0FF05BFC044610B3794DB2
:102DE0007949286820F042FD7849286820F03EFDA6
:102DF0001FF044FD1FF043FD754B764A0093764962
:102E00003D23286820F032FD74492346744A28681F
:102E100020F02CFD204600F00FFB7249286820F0BE
:102E200025FDFEE70146032214206F4B0FF030FC16
:102E3000044610B3634D6449286820F017FD6349C8
:102E4000286820F013FD1FF019FD1FF018FD604BDE
:102E5000604A009360494B23286820F007FD5F49D2
:102E600023465F4A286820F001FD204600F0E4FA7E
:102E70005C49286820F0FAFCFEE70146052216208E
:102E80005A4B0FF005FC054610B34E4C4E492068D6
:102E900020F0ECFC4D49206820F0E8FC1FF0EEFC2F
:102EA0001FF0EDFC4A4B4B4A00934B4959232068D5
:102EB00020F0DCFC49492B46494A206820F0D6FC2A
:102EC000284600F0B9FA4749206820F0CFFCFEE719
:102ED0000DF10F0104A80FF01FFC044610B3394D8B
:102EE0003949286820F0C2FC3849286820F0BEFC27
:102EF0001FF0C4FC1FF0C3FC354B364A0093364923
:102F00006423286820F0B2FC34492346344A2868F8
:102F100020F0ACFC204600F08FFA3249286820F0FF
:102F2000A5FCFEE79DF8153001468DF818309DF898
:102F3000143008228DF819309DF8133018208DF8C0
:102F40001A30FF238DF81B30FE238DF81C309DF8BE
:102F500012308DF81D309DF811308DF81E309DF81F
:102F600010308DF81F3006AB0FF092FB054610B302
:102F7000144C1549206820F079FC1449206820F091
:102F800075FC1FF07BFC1FF07AFC114B114A00937B
:102F900011497423206820F069FC10492B46104A1F
:102FA000206820F063FC284600F046FA0D492068AE
:102FB00020F05CFCFEE709B030BD00BFA0000100BE
:102FC00050E403004C1C0020B3E2030045E2030080
:102FD0008BE4030059E4030053E2030062E20300C0
:102FE0005FE2030077E2030081E4030085E403006D
:102FF00010B5234C01F082FB01F0A2FD236F23F0FA
:10300000070343F0030323671FF080FE1D4B0020DE
:103010009B6A9B075EBF01221B4B9A62D4F820314A
:1030200023F0030343F00203C4F82031D4F8243121
:1030300023F0070343F00203C4F82431D4F84031ED
:1030400023F0030343F00203C4F84031D4F86031A5
:1030500023F0030343F00203C4F86031D4F8403294
:1030600023F0030343F00203C4F84032D4F80032E3
:1030700023F0070343F00203C4F8003210BD00BF81
:103080000080005000C0005000E0005008B502F081
:1030900013FB01280ED1144B04205A6E4FF48023E9
:1030A0001249520358BF124A4B6601F5104108629B
:1030B00058BF536604F050F91FF0EDFB04F0DAF846
:1030C00004F034F904F0F8F820F07CFBFFF790FFEF
:1030D00004F0E0F81FF0D6FB00F0ACFB01F038F88C
:1030E000BDE8084004F0EABD0080005000900050A8
:1030F00000A0005008B53A20012101F023FABDE8F4
:103100000840014800F090BCC00A002030B5224DB4
:1031100095B00DAC0FCD0FC495E80700032384E8EC
:1031200007008DF84D3029231C4A1D49CDE90223A3
:103130001C4B1024CDE904134FF480732246002168
:1031400009A806932AF0B2FE4FF4A020164B07A957
:10315000CDE907030F238DF82430144B0DAA0A93F1
:1031600020230B9301238DF83130114B114800932C
:1031700002AB8DF8254004F039FB04469DF832304F
:103180004FF4E130002B0CBF032100211FF0B7FBEF
:10319000204615B030BD00BF4CE7030000000650CC
:1031A0000005000600080007240006502F34002008
:1031B000CC1B0020281C0020831E012B10B512D828
:1031C000012910D8114B04221B6905210020C3F3EB
:1031D000401301F0F5FE0E4B1B681868A8B1BDE85E
:1031E0001040436A18478B1E012B0CD801280CD8BD
:1031F000BDE810400022054B05211B691046C3F3B2
:10320000401301F0DDBE0129E5D910BD00C0035017
:10321000DC0A002008B50449044804F013FEBDE8A8
:103220000840FFF773BF00BFD40A0020201C002015
:10323000014820F0D1BC00BF281C0020014B1A6AB5
:1032400018681047281C002001481FF077BB00BFFA
:1032500068E7030001481FF0FEBB00BF80E70300E2
:103260007FB500240368464A23F47F4323F0070315
:10327000934205468DF808408DF809408DF80A40C4
:103280008DF80B408DF80C408DF80D406DD002F19B
:103290008272934271D1B0F80530212B6DD1FF239A
:1032A00004A91A4611E903001FF0E1FA012814BF2E
:1032B00041F2FC14334B4FF0210108BF187004F0A9
:1032C000FC0228790FF0FAF9064610B32E4C2F496C
:1032D000206820F0CBFA2E49206820F0C7FA1FF0B2
:1032E000CDFA1FF0CCFA2B4B2B4A00932B494E23DF
:1032F000206820F0BBFA2A4933462A4A206820F089
:10330000B5FA304600F098F82749206820F0AEFA68
:10331000FEE71C4B1B78002B2FD028790FF0A6F965
:10332000054650B3184C1949206820F09FFA1849F7
:10333000206820F09BFA1FF0A1FA1FF0A0FA154BAD
:10334000154A009315495423206820F08FFA144938
:103350002B46144A206820F089FA284600F06CF8C1
:103360001149206820F082FAFEE7064B1B7823B152
:1033700004B0BDE8704020F065BD04B070BD00BF72
:10338000A00006014F3400204C1C0020B3E20300D3
:1033900045E2030006E8030098E7030053E2030058
:1033A00062E203005FE2030077E203000B4B024698
:1033B0001B788BB10A4B1B78834234BF002001205D
:1033C000084B1B783BB1084B1B7843FA02F212F012
:1033D000010F08BF002070470120F1E7120D002007
:1033E000130D002050340020140D0020012208B5D8
:1033F000074B1A700022074B1A700422064B1A70F2
:103400001F22064B1A7003F0D1FF054B186008BD50
:10341000120D002050340020130D0020140D002048
:103420004C1C0020024B0349186820F01FBA00BF53
:103430004C1C002026E8030070B50C4C0C490646D5
:10344000206820F013FA03F0B1FF0546206803F06E
:10345000A1FF3046FFF7E6FF284603F09BFF2068F8
:103460000449BDE8704020F001BA00BF4C1C0020A8
:1034700028E803002AE80300002209490B684BB141
:10348000834204D1836A4AB19362012070471A468D
:103490009B6AF4E70028F5D0184670470B60F4E704
:1034A000501C002010B5044690B105F0BDF8204630
:1034B000FFF7E2FF58B194F82C0040B11FF042FC36
:1034C000044A1368013B13601FF042FC002010BD4A
:1034D0002220FCE7541C00202DE9F04F85B0054662
:1034E000914698460E469DF8387009B9002F62D172
:1034F0002846FFF7D7FF044600283CD185F82C006A
:10350000686305F0A9F9864239D905F017F940F248
:10351000E7318C462146E6FB00C14FF47A726046E3
:1035200000231DF0C5FF4FF0FF32002383468A467B
:103530001DF0BEFF4FF0FF32E8860023584651468B
:103540001DF0B6FF2B4611462846CDE900441B4A24
:1035500020F005FC044670B9194AC5E908981368BB
:1035600085F82D702E6323B31A469B6A002BFBD17E
:1035700095620023AB62204605B0BDE8F08F47B1ED
:103580002B4631462846CDE900440C4A05F028F97F
:10359000E0E7304603A905F005F904460028EAD122
:1035A0002B462846CDE90077044A039920F0B3FB67
:1035B000D0E71560DDE72124DDE700BFC535010058
:1035C000501C002091F82C3013B50C4683B98B8E1B
:1035D000CA8E93420ED243B9CDE9003320460B4642
:1035E000104A4FF0FF3120F07AFBA38E0133A386FF
:1035F00002B010BD52B191F82D307BB10123009380
:10360000D1E908232046096BFFF766FF0123064A2C
:1036100084F82C30136801331360E9E7084605F09D
:1036200003F8F3E7C5350100541C002070B5104DB8
:103630002B681BB100260F4B1C6804B970BD94F8B1
:103640002C3093B11FF07EFB2B6884F82C60013B7B
:103650002B601FF07DFB94F82D3013B92046FFF747
:103660000BFFD4E9083120469847A46AE5E700BF7C
:10367000541C0020501C0020034B1B68002B0CBF67
:1036800001200420704700BF541C0020024B186822
:10369000B0FA80F040097047541C002007B508209C
:1036A0001FF0C0F902238DF80030054B68460193E6
:1036B0001FF0F5F8082003B05DF804EB1FF0BEB969
:1036C000006A181008B500F02DF8124B12498B4211
:1036D00012D30020114B12498B4218D3FEF770FE13
:1036E000186850F82240586840F822400132986823
:1036F0008242F5D30C33EAE70022F8E71C6844F86D
:10370000220001325C68A242F8D30833E4E70022C9
:10371000F8E700BF6C360400783604007836040001
:10372000783604004FF400414FF0FF30124B134A3B
:1037300010B59A60D3F8882042F47002C3F888204C
:103740000F4A916601F1884101F5005210664FF66B
:10375000DF7050660220C3F8D000BFF34F8FBFF375
:103760006F8F08244FF440330648C0F88041D3607F
:1037700004600B6110BD00BF00ED00E000200100FF
:103780000090005000E100E0014B1868704700BF56
:10379000E40A0020084B1B6F03F00703022B04D040
:1037A000032B05D0012B05D0FEE7044B18687047AA
:1037B000034BFBE70348704700800050E40A0020F9
:1037C000E80A0020002D310108B5FFF7E3FF054BA3
:1037D0001B6FC3F303330133B0FBF3F0024B1860EC
:1037E00008BD00BF00800050E00A0020004870477C
:1037F00000B4C404014B1868704700BFE80A0020F9
:10380000054B1860054B1B6F03F00703032B01D119
:10381000FFF7DABF704700BFE80A002000800050C1
:1038200000487047002D3101014B1868704700BFF8
:10383000EC0A00200020836A10B5B3F5903F0ED249
:103840001968084A91420AD1074C227812F0FD0FFC
:1038500004D1DB69984708B90123237010BD4FF4E8
:103860008170FBE707B0CD5E513400204FF000536C
:10387000074A1A60BFF34F8F0649074BCA6802F424
:10388000E0621343CB60BFF34F8F00BFFDE700BF83
:1038900002020FF000ED00E00400FA0505490A6895
:1038A0001318054883428CBF4FF0FF320B6010465F
:1038B000704700BFF00A00200080002037B5046880
:1038C000012105463A2000F03DFE002301226179E6
:1038D000207901F075FB14223023217913FB012399
:1038E00003F1A04303F570331B686279D340DB43D7
:1038F00003F001032370A379022B0ED100F0AEFB7D
:103900002A460749607900F0D3FB0123024661791A
:103910002079CDE9003301F0FBFA002003B030BD7F
:103920004929030008B501213A2000F00BFE0321CC
:1039300001230422002001F043FB00201FF023FAA2
:103940000122214B4FF46070C3F844241FF016F994
:103950001E4B00F5D520D3F8F02000F2FC4042F0D9
:103960000102C3F8F020D3F8FC2042F08072C3F8C3
:10397000FC20174AA3F55D431A60164B0222B0FBE8
:10398000F3F0154B01381861C3F8F0204FF4807242
:10399000C3F804234FF06043104A0020C3F8B02F4F
:1039A0000F4AC3F8802ED3F8002E42F48072C3F879
:1039B000002EFF2283F82020D3F8002E22F48072FC
:1039C000C3F8002E08BD00BF00D0035000ED00E09A
:1039D000FF030040F8590D00000004E055CEACC5CF
:1039E000090001004FF06043D3F8802E30B5D207B4
:1039F00015D501240B4D8440D5F8FC2042F080728F
:103A0000C5F8FC20D3F8002E2243C3F8002E53F84B
:103A10002020002AF0D003F82010002030BD112013
:103A2000FCE700BF00ED00E02DE9FF410368374AE5
:103A30000446934204D0364A934251D12F2000E0ED
:103A40002E20012100F07EFD01230A2261792079D8
:103A500001F0B6FA01230A22E179A07901F0B0FA67
:103A60000A2601272B4D4FF0300842F2100322792D
:103A7000617908FB025207FA01F1D150642005F088
:103A800087F841F210012379627908FB035307FAA2
:103A900002F264205A5005F07BF8013EE3D1206821
:103AA0001A4B98421FD10323C5F8903462792379C9
:103AB00043EA0243C5F89434E279A37943EA024326
:103AC000C5F8983440F20113ADF80030E368694658
:103AD0000293A3680193237C8DF80C3001F0F0FA77
:103AE00004B0BDE8F0810A4B9842EBD10323C5F83E
:103AF000A0346279237943EA0243C5F8A434E27919
:103B0000A37943EA0243C5F8A834DBE70000015A71
:103B10000080065000C0035038B5054601F00EFC89
:103B2000044C012801D1013C00D138BD284601F0E8
:103B3000E9FAF6E7E193040010B501224378017831
:103B4000847830209A40054B00FB01331CB942F2C7
:103B500010015A5010BD41F21001FAE700C00350A5
:103B600010B5012243780178847830209A40054BC3
:103B700000FB01331CB941F210015A5010BD42F252
:103B80001001FAE700C003502DE9F04F9A46564B5A
:103B900085B01B7806460F461546DDF83C909DF82B
:103BA00044B0DDF85080002B00F08D80072A00F231
:103BB0008C800E9B002B00F08880B9F1000F00F084
:103BC0008480129BB3F5006F7FDC012802D1109B2B
:103BD000002B7AD0454B03EB05131B7B002B76D0D3
:103BE000434C1022002168462AF060F904EB45148A
:103BF0001022002F59D1394620462AF057F943F2B6
:103C000010036380BBF1000F03D1E37843F003039B
:103C1000E370374A0E9B02EB451CCCE90193129BE3
:103C20006901013BC3F30A009DF84C30012E03F0FB
:103C300003034FEA836343EA001E53582D48CDF82F
:103C400000A000EA03004EEA0003535041D11323C1
:103C50000CF1100ECCF80C309CE80F008EE80F0031
:103C60006FF00301DCF81C20109B61F39F02012F11
:103C7000CCF81C20CCF8143003D1CCF81890CCF838
:103C800004300027194A290102EB051342F801808C
:103C9000159A28465A60694622469F605E7301F075
:103CA000EFFB384605B0BDE8F08F002120462AF032
:103CB000FDF84FF444736380BBF1000FA9D1E378A2
:103CC00043F03003A4E70C48ECE70C48EAE70C4863
:103CD000E8E7B8F1000FD4D19CF8023068F3041380
:103CE0008CF80230CDE700BF52340020581C002071
:103CF000D81C00200F80FFF3028000F0018000F04C
:103D0000078000F038B5124B05461B78DBB1E0B1F7
:103D10001FF018F80F4A00231146147B54B92B608A
:103D200001251A0101EB03131D738C501FF010F8CD
:103D3000204638BD0133082B02F11002EDD11FF0EF
:103D400007F80548F5E70548F3E70548F1E700BF40
:103D500052340020581C0020048000F0028000F043
:103D6000018000F013B51EF0EDFF00230B4A147B19
:103D70007CB90133082B02F11002F8D1019001F057
:103D800021FB074B01981C701EF0E2FF204602B099
:103D900010BD1EF0DDFF0348F9E700BF581C0020EE
:103DA00052340020058000F00D4B10B51B780446FE
:103DB00093B1072812D81EF0C5FF0A4B03EB04137A
:103DC0001A7B2AB100241C731EF0C2FF204610BDCE
:103DD0001EF0BEFF0448FAE70448F8E70448F6E797
:103DE00052340020581C0020068000F0028000F0B1
:103DF000018000F0154B13B51868002301908DF871
:103E000004301EF09FFF124B1C7824B11EF0A0FF5F
:103E1000104802B010BD01221A701EF099FF0E4B1F
:103E200001A81C731C7783F82C4083F83C4083F86E
:103E30004C4083F85C4083F86C4083F87C40082356
:103E40008DF8073001F0EAFA2046E2E780E8030047
:103E500052340020038000F0581C00200A4A08B5A4
:103E600012785AB107280BD8084A02EB00131B7BC3
:103E700043B1002101F0C4FA002008BD0448FCE76A
:103E80000448FAE70448F8E752340020581C0020A0
:103E9000028000F0018000F0078000F00A4A08B5B7
:103EA00012785AB107280BD8084A02EB00131B7B83
:103EB00043B1012101F0A4FA002008BD0448FCE749
:103EC0000448FAE70448F8E752340020581C002060
:103ED000028000F0018000F0078000F00A4A08B577
:103EE000127852B107280AD8084A02EB00131B7B4C
:103EF0003BB101F013FB002008BD0548FCE7054875
:103F0000FAE70548F8E700BF52340020581C0020AB
:103F1000028000F0018000F0078000F00D4B1B785C
:103F200093B1072812D889B10B4B03EB00131B7B0D
:103F300073B10A4B1A6D012303FA00F010401ABF47
:103F400000200B700870704705487047054870479F
:103F50000548704752340020581C002000000450CF
:103F6000028000F0018000F0078000F00B4A10B5DD
:103F700012780C4662B107280CD859B1084A02EBF6
:103F800000131B7B43B101F0DBFA2070002010BD51
:103F90000448FCE70448FAE70448F8E752340020F4
:103FA000581C0020028000F0018000F0078000F023
:103FB0002DE9F843174B1F6D5B6D1F4000D5FEE7E1
:103FC00001260025144CDFF85480DFF85490374266
:103FD00017D02368C8F850609BB1A168284601310A
:103FE0006268A1609847637B012B0AD148B909EB4D
:103FF00045131A7B60F341021A731A7F60F3410282
:104000001A770135082D4FEA460604F11004DED177
:10401000BDE8F88300000450581C00200020045024
:10402000D81C002070B5044601250B4E04B970BDA4
:1040300094FAA4F0B0FA80F005FA00F306EB00124F
:1040400024EA03045368002BF0D0117B11B191686E
:104050009847EBE79847E9E7D81D002008B51920F5
:1040600000F09AFD28B14FF00072074BC3F8802191
:104070001A601A2000F090FD28B14FF08062024BC8
:10408000C3F880211A6008BD00E100E038B505469C
:104090000C461EF057FE0022044B03EB05135C6038
:1040A0001A73BDE838401EF053BE00BFD81D002073
:1040B000F8B505460F4616461EF044FE104B05F0B7
:1040C000FC02D3F824140023EC1804F00304144376
:1040D00021FA04FC1CF0010F07D00133042BF3D1AB
:1040E000FF241EF035FE2046F8BDFF2CF9D001223A
:1040F000044B03EB0413C3E901761A73F1E700BF25
:1041000000C00350D81D0020074BD3F82404D3F877
:10411000202403F50053104000F0553020F05020CB
:10412000C3F82004FFF77EBF00C00350074BD3F84D
:104130002404D3F8202403F50053104000F0AA30E3
:1041400020F0A020C3F82004FFF76CBF00C003508C
:10415000024B1968024B186815F0AABEF80A002035
:10416000F40A002037B5920004460D4601922AF069
:104170000FF8431C0BD060B929462046019A29F05C
:104180005EFE0028044808BF002003B030BD03488D
:10419000FBE70348F9E700BF10E000F021E000F082
:1041A00024E000F010B504462AF002F8431C10D0B9
:1041B00088B901F089FA234620F003002044984290
:1041C00001D1002010BD53F8042B0132F7D0034871
:1041D000F8E70348F6E70348F4E700BF0EE000F015
:1041E00021E000F024E000F008B51EF0A4FD014B32
:1041F000186008BD18260020014B18681EF09FBDEE
:1042000018260020044BD3F88420D206FBD4D3F820
:104210008400C0F3811070470040005038B5104B47
:104220000546D3F820310C4603F00303022B0BD0D4
:10423000032B0DD0012B0FD1FFF7A6FA052305B1F3
:10424000286004B1236038BDFFF7D4FA0323F6E7F2
:10425000FFF7E6FA0223F2E701230020EFE700BFB1
:104260000080005073B50D4600210E4B0191D3F82C
:104270008041064604F00304012C09D0022C0CD026
:104280000C460EB1019B336005B12C6002B070BDCD
:1042900001A8FFF7C3FF0F24F3E7FFF7C1FA01906E
:1042A000EFE700BF0080005038B5184B0546D3F843
:1042B00024010C4600F00700062805D8DFE800F0CE
:1042C000230B131B1F0F17000023184605B128608E
:1042D00004B1236038BDFFF757FA0523F6E7FFF76F
:1042E00053FA0623F2E7FFF785FA0323EEE7FFF719
:1042F00081FA0423EAE7FFF793FA0223E6E71EF0C8
:104300000EFB0723E2E70123E0E700BF0080005037
:1043100038B5104B0546D3F840310C4603F0030383
:10432000022B0BD0032B0DD0012B0FD11EF0F9FA6D
:10433000092305B1286004B1236038BDFFF774FA82
:104340000823F6E71EF0F0FA0B23F2E70123002022
:10435000EFE700BF0080005038B5144B0546D3F896
:1043600000020C4600F00700042804D8DFE800F043
:104370001B0A0E1216000023184605B1286004B16E
:10438000236038BD1EF0CDFA0923F6E7FFF74CFA9B
:104390000823F2E71EF0C8FA0B23EEE7FFF714FA42
:1043A0000E23800AE9E70123E7E700BF0080005001
:1043B00038B5104B0546D3F840320C4603F00303E2
:1043C000022B0BD0032B0DD0012B0FD11EF0A9FA1D
:1043D000092305B1286004B1236038BDFFF724FA32
:1043E0000823F6E71EF0A0FA0B23F2E70023184695
:1043F000EFE700BF0080005038B5104B0546D3F8FA
:1044000060310C4603F00303022B0BD0032B0DD0BD
:10441000012B0FD11EF085FA092305B1286004B1E4
:10442000236038BDFFF700FA0823F6E71EF07CFA98
:104430000B23F2E701230020EFE700BF00800050CC
:1044400010B40D4C0B46D4F8204204F00304012CA8
:104450000AD0022C0CD008B1002101600BB100225F
:104460001A605DF8044B70475DF8044BFFF7D6BE49
:104470005DF8044BFFF74CBF0080005038B50C4688
:1044800005461EF058FC064B9A6A82EA040101EACE
:10449000050454409C62BDE838401EF050BC00BF8B
:1044A00000C00050B0F5207F1FD009D8B0F5007FC4
:1044B00015D003D868B1B0F5C07F0AD000200CE059
:1044C000B0F5607FFAD10B4BD3F88000C0F3011038
:1044D00003E0084B186FC0F3033001307047054B01
:1044E000D3F89000C0F30460F7E7024B186FC0F3F5
:1044F0008020F2E7008000504FF400320E4B01465E
:1045000010B500209A66FFF7CDFF41F6713248439F
:104510000A490B4B88428CBF4FF480100020DC69A5
:10452000DA639A6822F4401202439A60E20344BFBD
:104530000022DA6310BD00BF00900050005A6202F2
:1045400000000350420910B510D0012A10D00B4BC7
:104550000B4C022A18BF234600F01F0051B103F58F
:104560008053012202FA00F0186010BD1346F3E7F1
:10457000044BF1E703F50053F3E700BF68800050F8
:10458000608200506480005008B580201EF0F6FA6A
:10459000034B98429EBF4FF48032024B1A6708BD0E
:1045A000005A620200A000501FB50023B0F5807FC2
:1045B000019377D028D8382800F094800BD824387D
:1045C000092810D809280ED8DFE800F06767676768
:1045D0000D0D620D377D52285FD008D83D283BD0A5
:1045E0003E2800F08480019805B05DF804FB802827
:1045F000F9D1414B1B6F03F00703013B032BF2D8AA
:10460000DFE803F044413F6CB0F5D06F5BD019D8C0
:10461000B0F5A06F66D00AD8B0F5806F3DD0B0F588
:10462000906FE0D1002001A9FFF73EFEDBE7B0F577
:10463000B06F2DD0B0F5C06FD5D1002001A9FFF724
:1046400067FED0E7B0F5006FECD00AD8B0F5E06FA8
:104650004DD0B0F5F06FC6D1002001A9FFF7CCFE18
:10466000C1E7B0F5086FBED1234BD3F8003103F09A
:104670000303022B2CD0032B2ED0012B30D1FFF7BC
:10468000B9F8032300E005230193ACE70223FBE71D
:10469000002001A9FFF7E6FDA5E7002001A9FFF72B
:1046A000BDFDA0E702934FF0E0231B695B0705D532
:1046B000FFF78AF80C230393039BE5E703A902A8FD
:1046C000FFF726FEF8E7002001A9FFF745FE8AE77D
:1046D000FFF7AAF80823D7E71EF021F90723D3E74D
:1046E0000123D1E7002001A9FFF7AAFE7BE7002004
:1046F00001A9FFF75DFE76E7008000504FF400222D
:10470000034B5A66012203F580439A62704700BF4B
:104710000090005008B5FFF747FF082811D009386E
:10472000012811D84FF40012094B4FF6FF705A665A
:1047300003F5D8335B6A13F0010F18BF4FF4FA701A
:1047400008BD044B1888FBE74FF6FF70F8E700BF81
:1047500000900050FC0C002070B504468020FFF74C
:1047600023FF032800F082804FF40022444B0221F3
:104770005A6645F60E03434AC2F88030424B9962AE
:10478000012103F580539962936DD903FCD4D4E9D8
:1047900000131B0543EA0163E17B94F822500B43AD
:1047A000217B94F8236043EA0143617B43EA0133B0
:1047B000A17B43EA811313619169D4E904031B06C9
:1047C00043EA806301F000410B43A17EE07E0B438E
:1047D000217E43EA0143617E43EA01239361E36959
:1047E000126A002B0CBF0021082122F00D0242EAC0
:1047F000030242EA8002234B42EA01021A6294F861
:1048000020204FEA421232D1986A94F8211020F009
:10481000330042EA0112024342F001029A621B4A4B
:10482000996D32EA0101FBD1022217498A621A65A9
:104830009A6D5200FCD41869A26820F4700040EA16
:1048400002504FF0004218610F4B9A611DB90222CD
:1048500003F580539A6216B901220D4B9A6294F8BF
:1048600024301BB1074B0B4AC3F8802070BD996AF6
:1048700021F0330131430A4342EA4502EEE700BF2B
:104880000090005000C0005000D0005003000140D4
:1048900000E00050F1A7FFFF1E4B13B5996A9A6D17
:1048A00012F4803F18BF01241B4A18BF94620224EF
:1048B00094629B6DDB0303D5164A936D9C07FCD570
:1048C0000222154B134C1A65A36D5B00FCD4134BED
:1048D000A26993F9003022F47F020344000222F41B
:1048E0007F4280B283F30803104340EA0340A06193
:1048F00002200191FFF7C2FDA36D019913F4803FDF
:1049000005D0012002B0BDE81040FFF7B7BD02B0EE
:1049100010BD00BF00C0005000D000505334002034
:10492000014B93F9000070475334002001221248D4
:10493000124B816A9A62826D02F00302032AFAD155
:1049400002229A621A650C4B9A6D5000FCD4012029
:104950009A6D0A4A10659A6D9207FCD4064B9A6DBF
:104960009007FCD50220054A10659A6D9207FCD588
:104970000320FFF783BD00BF00C0005000D00050EF
:10498000F0B5D0E901434FF480061A4A4178057822
:1049900056664FF4D156022702F5B8325662164ECB
:1049A0004F2977604FF0010728BF4F2106F5805649
:1049B00077601669F603FCD441EA052151611B01B9
:1049C000417B43EA04230B43017B43EA41039360A9
:1049D000C37B817B1B0143EA4113417C0B43017C78
:1049E00043EA41035360837C13B16FF4D1535362A4
:1049F000F0BD00BF0090005000100250014B188025
:104A0000704700BFFC0C0020014B1880704700BFAE
:104A1000FA0C00204FF4001208B5184B5A66022316
:104A2000174A5360936813F48033FBD1012822D1D5
:104A3000FEF7E0FE134B984215D003F5122303F561
:104A4000F863984213D0104B00EB8002400AB3FB8E
:104A5000F0F0520A0A4BDA62012218635A6200220D
:104A6000074B5A6008BD45F67A10084AF2E745F64A
:104A70001A00074AEEE75362F1E700BF00900050CA
:104A80000040025000F0490264666666D8B805002E
:104A9000BBCF0500B0F5207F10B50C4642D008D83A
:104AA000B0F5007F33D003D888B1B0F5C07F0ED009
:104AB00010BDB0F5607FFBD11F4B013CD3F88010D7
:104AC00021F0300141EA0414C3F88040F0E71EF001
:104AD0004DF81EF016F94FF48031184A164B116745
:104AE000196F013C21F4704141EA04341C67FEF760
:104AF0006BFE0446FFF786FBC0F1020120461EF064
:104B0000FAF800F02DF8BDE81040FFF73DBD0A4B64
:104B1000013CD3F8901021F0F85141EA0464C3F845
:104B20009040C5E7044B013C196F21F4806141EAD4
:104B300084241C67BCE700BF008000500090005038
:104B400008B50121022000F0E5F81EF00FF81EF074
:104B5000D8F84FF48032014B1A6708BD009000501E
:104B600008B54FF4C0701EF009F8BDE808400449CC
:104B700088428CBF022101214FF42070FFF78ABFC9
:104B800080F0FA02034B5868C0F30800003818BFE1
:104B90000120704700ED00E0054B420953F8223038
:104BA00000F01F0023FA00F0C04300F0010070473E
:104BB00000E100E0194B10B51B6873B3184A526846
:104BC000012A2AD0174A8020C2F80031FFF7ECFCF6
:104BD00005281FD14FF4C070FFF764FC012804467C
:104BE00004D102214FF4C070FFF754FF07220E4B8F
:104BF0001A610122A3F580535A60094A1369DB0741
:104C0000FCD5012C09D12146BDE810404FF4C070FD
:104C1000FFF740BF0122054B5A6010BDCC26002093
:104C200000C001500080005000E0015000D0015051
:104C300000224FF40031074B1A60074A516602F513
:104C400098325268012A02BF044AD2F800211A6041
:104C5000704700BFCC26002000900050008000501C
:104C6000044A4178536F23F4407343EA01235367A6
:104C7000704700BF0040005010B5044608B1FFF770
:104C8000D7FF0E4A136943F00403136103F0DAFA05
:104C90001EF061F81EF04FF829F082FA1EF04FF86E
:104CA0001EF05AF803F0E2FA1CB1BDE81040FFF71D
:104CB00081BFBDE81040FEF787BD00BF00ED00E0FA
:104CC00010B5044608B1FFF7B3FF0C4A136943F06F
:104CD0000403136103F0B6FA1EF02DF829F060FA10
:104CE0001EF02DF803F0C2FA1CB1BDE81040FFF72A
:104CF00061BFBDE81040FEF767BD00BF00ED00E0FA
:104D0000034A0179D36E23F030030B43D366704717
:104D100000400050F8B504461C4BD3F88420D1065F
:104D2000FBD4D3F88430C3F381139C422CD0FEF71C
:104D300031FD012C064602D121461DF0DCFF1DF09D
:104D4000FAFF4FF00072124B07465A6620461EF0DB
:104D500008F84FF480630D4D621E93402B676B6E15
:104D60009A0103D4D5F884309B060AD538461DF045
:104D7000E6FF022C08D13046BDE8F84000211DF0C6
:104D8000BABFD5F88430EAE7F8BD00BF0040005054
:104D90000060005007B518B90191FEF7FBFC0199BE
:104DA000064B1B7843B1064B984205D8012003B04F
:104DB0005DF804EBFFF7AEBF0220F8E754340020A3
:104DC000005A62020278034B012100201A70FFF79B
:104DD000E1BF00BF543400204FF00042012138B53C
:104DE000274B5A6603F50C2359604AF6CD33254A02
:104DF000556C13640D4048BB94680C4009D0224B9D
:104E0000224C9960D36ADB0710D4A0420CD14FF03A
:104E1000FF3401221C4B5A6015B11A4B1C4A1A640C
:104E200028F021FB204638BD0130EBE7A0424FF0CF
:104E3000FF3418BF0024ECE70131D36A13F00803F4
:104E400007D08142F8D16FF00104E5E700210F4857
:104E5000F3E78142F7D020210B4A51620121A2F5EC
:104E6000805291600749094A486A800603D49342F8
:104E7000E9D00133F8E79342E5D00024CCE700BF46
:104E800000900050004009500060095040420F005F
:104E90003254FFFF4FF0004238B5194B194C5A6697
:104EA000012203F50C235A604AF6CD33656C236466
:104EB0004378154093401343134AD363A368827821
:104EC00023F0740343EA0213C278002A14BF0422B9
:104ED00000221343A3600279837943EA022323610A
:104EE0004279C37943EA022363610078FFF774FFD4
:104EF0000DB1064B236428F0B6FA012038BD00BF7F
:104F00000090005000400950004000503254FFFF14
:104F1000072AF7B501F0030614461F464FF00301B8
:104F20002CD89500A94000FA05F21C4801911DF00B
:104F300019FF01991A4806FA05F21DF013FF194BE3
:104F400019499DF82000002F08BF1946012303FAD4
:104F500004F40C60154B1649002808BF0B461C6072
:104F6000144B9DF82400C3F820441031A3F6DC3321
:104F7000002808BF0B461C6003B0F0BDA2F1080575
:104F8000AD00A94000FA05F20B4801911DF0EAFEC0
:104F900001990A4806FA05F2CFE700BF00C40350A2
:104FA00008C4035010E4035010D4035014D4035029
:104FB00014E4035000E0035004C403500CC4035035
:104FC000F8B504460D461F4616464AB101238B40EC
:104FD0003021194A01FB0022FFB141F21001535068
:104FE00004EB4403072D4FF00F014FEA031317D8CA
:104FF000A80006FA00F28140104818441DF0B2FEE5
:1050000056B9012130230C4801FA05F503FB0400D1
:1050100077B141F21003C550F8BD42F21001DEE74E
:10502000A5F10800800006FA00F281400448E4E798
:1050300042F21003EFE700BF00C0035004C003506A
:105040000CC00350F8B505460E4614465AB38268A4
:1050500003F0030722F4407282601DF06CFEAA6820
:1050600082EA072303F440735340AB601DF067FEF0
:1050700036B9104B9D4217D12E201DF07FFD0646FC
:10508000AB680D4BD85D60430DD06FEAC404044497
:10509000A319B3FBF0F3AA68013B920702D5002BDA
:1050A00008BF0123AB61F8BD044B9D42E8D12F201E
:1050B000E3E700BF0000015AA8E8030000800650A3
:1050C00038B500230E4A036400F50053DA634A78CA
:1050D00004460D4600F108037AB903F58053022215
:1050E0001A602046D5E901122B7BFFF7ABFF204663
:1050F0002978BDE838401DF047BE03F50053EEE7C0
:10510000FFFF1F00884B2DE9F043984222D0874BC8
:10511000984240F00581864B402505264FF0000857
:105120004FF0030C996800F50054C26B12F4C06F85
:1051300016D0970510D5FD225A7009221A70002248
:10514000026493F90110012900D15A7093F901000A
:10515000BDE8F083774BDFE75605EED5FE22EBE79F
:105160001F78082F00F2D880DFE817F009001F0031
:1051700041004C006900740096009E00CD004C88F0
:105180000A88E5060AD5120A02F0060242F0F00289
:10519000012119704263C1600120D9E702F0FE02CB
:1051A000A10748BF42F00102F2E7170607D58021A8
:1051B00000F50052D1634FF608721A8062E0520681
:1051C000EAD54A88E563D70604D502221A700B781F
:1051D0004363E1E7920765D507221A701B7901EB5B
:1051E000C3010B89012BD7D10823C360D4E717066D
:1051F000DDD45206D0D54A88E563970752D583F8A7
:1052000000C092E74C880A88E50643BF120A02F004
:10521000060242F0F00202F0FE02640709D51C7992
:1052200042F0010201EBC4010989012904BF0821F0
:10523000C160042119700123C3604263ACE7170603
:10524000B5D45706A8D54A88E56352072AD5072260
:105250001A70A1E71A795F8801EBC20EBEF80890B8
:10526000B94511D80132D2B21A714F88A3F8028021
:1052700017F0040FC3D1FF0702D4012A7FF655AF00
:1052800008221A700223B0E7DEF80420791C598046
:10529000D25D42630622DBE7170688D457067FF506
:1052A0007BAFE5631E7040E794067FF575AF456AF6
:1052B000214C46691A793440B4F5003F04BF466A70
:1052C0004FF4005601EBC20100F500540A8908BFF3
:1052D000E6632026E6635C88A24281BF4968661CBB
:1052E0005E800D5559888A42CAD90424012AC460B7
:1052F00004D9013A914201D10822C2601A78092AE0
:105300003FF41DAF48E7D2057FF546AF4FF48071FB
:1053100000F50052D16310E74FF609321A800EE70C
:105320006FF0030014E700BF0000015A0080065030
:10533000DC260020D0260020200002001C4B10B4E8
:10534000984207D01B4B98422ED06FF003005DF8B7
:10535000044B7047184B0269D20744BF2022C26039
:105360004A88940702D50C89002CEED0520702D54A
:105370000A8A002AE9D04FF480721A6000229960EC
:105380001A71C023C3604369DB050FD4202200F5E6
:105390000053DA63094A5DF8044BDA63036C43F4A3
:1053A000FC630364FFF7AEBE054BD4E7436AEAE74C
:1053B0000000015A00800650D0260020FFFF1F0089
:1053C000DC2600204FF400120B4B10B5C3F88020F0
:1053D000BFF34F8FBFF36F8F0024FF22074B21468F
:1053E0005C6520209A625C60FFF7ACF82146BDE85E
:1053F00010402120FFF7A6B800E100E000000450B3
:10540000044A054B002918BF1346012202FA00F096
:1054100018607047402004504010045010B501211E
:1054200004462020FFF78EF801212120FFF78AF89B
:105430000122114B5A60227812069A606178A27894
:1054400042EA01429A61FF229A6200229A631A6438
:105450004FF000425A654FF0FF324FF4001103F550
:1054600000531A65054AC2F88011E3781B01DBB2CC
:1054700082F81533116010BD0000045000E100E017
:105480002DE9F04101250C46C3B2DFF888E0D1F8E0
:1054900000809D408F7ACB7A94F80DC0097BCEF8BE
:1054A00050500EF5005E4EF820804FF0300E184E32
:1054B0001B050EFB006043EA074343EA415322F019
:1054C0000302C0F860C0C36502671DF03BFC736D4A
:1054D0002B437365237A13B1336C2B433364637AA4
:1054E00013B1B36B2B43B3632279A37943EA02432D
:1054F000084A93616179E37943EA014306498B6184
:10550000034B55639D64BDE8F0411DF021BC00BF15
:1055100000000450002004500010045010B5012475
:10552000C0B284401DF00EFC044B5A6D22EA040206
:105530005A659C62BDE810401DF00ABC0000045092
:1055400010B50124C0B284401DF0FCFB074BDA6AA1
:10555000224209D15B6B34EA03030CBF012400240F
:105560001DF0F6FB204610BD0024F9E700000450B2
:105570004FF40032054B9A6641F6713203F51C3345
:10558000DA63012203F50053DA607047009000509F
:1055900041F671320121064BDA6303F50052D16006
:1055A0000022DA634FF40032A3F518339A6670478D
:1055B00000000350CB784A7810B55B010C7843EAC1
:1055C00082030A79234343EA02130C22424302F185
:1055D000B0421363012C02BF8A78024B43F82020AB
:1055E00010BD00BFE880035008B54FF0B0435A68C3
:1055F00002B960B15B680BB11DF0D0FB4FF0B04158
:1056000030B10120074B58601DF0C8FBC86008BDD1
:105610001DF0C4FB0223CB601DF0C0FB0122024B36
:105620005A60F4E700100058002000584FF0B043D3
:105630005B6870B50BB11DF0B1FB0121104B4578D3
:10564000596083780679002BC37814BF02240024A4
:10565000002B14BF042200224379DB0043EA061327
:105660002B43234313434FF0B0429360054B5960E3
:105670000378002B14BF0B460223D36070BD00BF1C
:1056800000200058001000584FF48032064B5A6634
:1056900003F5E6235B69C3F38512827003F03F02D2
:1056A0001B0B42700370704700900050014B986CC8
:1056B000D96C70470080E00F024B1868C0F30740B8
:1056C000704700BF0080E00F0120034B9B680A3346
:1056D00003F01F03984070470080E00F70B5054647
:1056E00016461C4621B94FF420701DF047FA0146BA
:1056F000402C1BD003D8DCB1202C1BD070BD602CFB
:10570000FCD1042303FB06F2560806EB4113B3FB5E
:10571000F2F3094A203B02EAC303AA6822F06002BE
:10572000AA60AA681443AC60EB61E7E70623E9E7E7
:105730001023E7E70823E5E7F8FF7F00012200F5E3
:10574000805310B55A6040F6AA6341F205024361E6
:1057500000230E498360C365C26000F500520361F7
:10576000C361C36491640A498365884202D0094CCD
:10577000A04207D18842036502D0064B984201D16E
:10578000002343650123536010BD00BFFFFF0100EC
:1057900000C005500000065070B50D46FFF7CEFF63
:1057A000012300F580567360AB7C04461BB183680F
:1057B00043F080438360EB7C5BB1354A2B7D9442A0
:1057C00045D1A2F51032C2F88C31E36D43F080036D
:1057D000E3652A8A6B7B20461343EA891343E3601F
:1057E0002B7BD5E90112FFF779FF6B7D1BB1A36815
:1057F00043F48033A360AB7D1BB1A36843F4004343
:10580000A360EB7D2A7E1B07120502F4E00203F081
:10581000E0431343A365697E1D4A8B1E012B1D4B7C
:105820001FD894421BD002F5804294420CBF012243
:105830004FF0FF3203EB4213022041F21C620329B6
:10584000985020D10423F3652B78636170BD124A10
:10585000944204BFA2F52032C2F89C31B5E7002281
:10586000E8E794420DD00C4A94420CBF01224FF05D
:10587000FF3203EB4213022042F21C6201299850CE
:10588000DFE70022F5E7042204F50053DA65DBE7E1
:1058900000C0055000C003500000065038B5044653
:1058A000054D27F007FE0FCC0FC594E8030085E8EF
:1058B0000300002038BD00BFE826002047F6FF7334
:1058C0009A42F0B566D0012966D8344DCF0015F85C
:1058D000313005EBC100012B847813D10025C3784A
:1058E0001B1B9D4202D3E018C0B2F0BD591B466895
:1058F000A3EB510136F911609642D4BF0D4601F178
:10590000FF33EEE740680028EFD0B0F90030934253
:1059100004DBB0F902309342B8BF134682883D449D
:10592000FF2A19BFC8214FF0280CB0F90610B0F9B2
:1059300008C0A1EB03020CBF0126002692FBFCF27B
:105940006D78324412B2954201DD002A01DA6A1EF6
:1059500012B24FF47A7700EBC206F188B6680132D2
:1059600013FB016112B221EAE1715C319542B1FB96
:10597000F7F104DD00EBC206B6888E42EBD200EBF5
:10598000C20232F8040C884228BF0846A04238BF41
:105990002046A9E7FF20A8E70020A6E7E826002088
:1059A0000129F0B553D82B4800EBC10410F8311091
:1059B000636801290FD1E078A478904294BFC4EBCA
:1059C0000001C4EB0201001BCAB28242C8BF002220
:1059D00033F91200F0BD002B39D0A178914202D3E7
:1059E000B3F90200F6E7E178B3F900009142F1D98A
:1059F00099886478A1F1FF06013C714203F1040526
:105A0000E4B2714103F10C071FFA82FCCEB2B4423A
:105A100016D805EBC1014FF47A756A43B1F902401B
:105A20004968521A04EBD47102EB610292FBF4F262
:105A30009042CFDBB3F902009042CBDC10B2C9E751
:105A400037F831E04E1CE645E3D33146DEE7024845
:105A5000C0E700BFE82600200080FFFF08B504482B
:105A6000FFF71CFFBDE80840012027F027BD00BF5D
:105A700038F1030000487047FE0C00207FB5022279
:105A8000084B0949CDE901234FF00073CDE9031319
:105A9000052301A94FF0FF30059327F045FD07B01E
:105AA0005DF804FB006A1800000204001B0603F006
:105AB000706300F00F000902034301F470611204E7
:105AC00002F470220B431343014A1360704700BF76
:105AD0000020025C60B5054619B10139B1F5806F4F
:105AE00010D2094EF06810F48030FBD143EA012156
:105AF000120741EA050302F08052134343F00043CA
:105B0000736060BD0120FCE70020025C0122054BB0
:105B10009A60DA68D203FCD4D86820F00F00000441
:105B2000000C70470020025C014B1868704700BFF2
:105B30000040025C014B5868704700BF0010025CD7
:105B4000014B186B704700BF0010025C014B1868D6
:105B5000704700BF0010025C014B9860704700BFA7
:105B60000010025C014B1864704700BF0010025C1B
:105B7000014B5864704700BF0010025C014B586332
:105B8000704700BF0010025C0022014B1A60704792
:105B90000010025C024A136843F00103136070476F
:105BA0000010025C43F20402014B1A60704700BF10
:105BB0000010025C024A136843F030031360704720
:105BC0000010025C044B1A6842F480721A601A6872
:105BD00022F480721A6070470010025C024A136857
:105BE00043F48063136070470010025C034A13683B
:105BF00023F4702343EA0040106070470010025CF9
:105C0000044B1A6902605A6942609A698260DB69D2
:105C1000C36070470010025C0268044B1A6142685E
:105C20005A6182689A61C268DA6170470010025C4A
:105C3000024B1A6BD207FCD4186270470010025C4A
:105C4000024B186B00F00E00704700BF0010025CA2
:105C500082B01FB507930A9B04AC8B4228BF0B464A
:105C600004E907001048D100079948BF03330160D9
:105C7000099948BF23F0030323F0704301F0E0418A
:105C8000194341F000518160002102F0E042019C83
:105C9000134343F00053C16004618361416304B066
:105CA000BDE8104002B070470000025C3F22034B89
:105CB0001A631022DA6103229A6370470000025CC3
:105CC000024AD36B9B07FCD4704700BF0000025C04
:105CD000034B986A10F0240018BF0420704700BFDF
:105CE0000000025C08B5FFF7F3FF064BDB6B23F403
:105CF0007F4323F0EF0303431EBF0122024BC3F88F
:105D0000FC2F08BD0000025C00F0FF3F032208B535
:105D1000054B186019615A63FFF7C8FFFFF7D0FF02
:105D2000BDE80840FFF7DEBF0000025C42680346A2
:105D3000182A10B50AD0202A1DD0102A2BD1174AB4
:105D4000D2F80424D4010AD4012013E0134AD2F873
:105D500004249001F8D50A6842F008020A6010484D
:105D60001A6882424FF000000ED10A6842F04002E9
:105D70000A60586010BD094AD2F804245201E3D5E4
:105D80000A6842F00402E9E7064CA242F2D10A682E
:105D900042F08002ECE70720ECE700BF0000025C65
:105DA00055340020563400200B4607B50749D1F87A
:105DB0000414C90708D5002100920246084600F0E5
:105DC0005BF803B05DF804FB0120FAE70000025C19
:105DD0001346064AD2F80424D20504D50A460146E1
:105DE00000201DF0F7B90120704700BF0000025CE1
:105DF00013B5084CD4F80444E40508D500931346C1
:105E00000A460146002000F061F802B010BD0120F2
:105E1000FBE700BF0000025C13B5084CD4F8044453
:105E2000E40508D5009313460A460146002000F019
:105E300071F802B010BD0120FBE700BF0000025C5A
:105E400070B504460D4616468CB00A4A09AB07CA1F
:105E500083E807001A462146CDE90563CDE90333FF
:105E6000CDE9013300954FF480301DF0D7F80CB028
:105E700070BD00BFACE80300F0B51C465B6815467A
:105E80008DB01A07129E1AD1CBB17268934216D107
:105E90000C4B0D4A53F8217009AB07CA83E8070081
:105EA0001A462946CDE90533CDE90333CDE901632F
:105EB000009447F480701DF0B1F80DB0F0BD0720DC
:105EC000FBE700BFB8E80300ACE80300F0B51646F6
:105ED0005A688DB0102A0D46129F15D17A68102A83
:105EE00012D10A4A09AC07CA84E8070022462946AB
:105EF000CDE90547CDE90344CDE9014404480096C6
:105F00001DF08CF80DB0F0BD0720FBE7ACE80300F6
:105F100030000100F0B516465A688DB0102A0D46C3
:105F2000129F15D17A68102A12D10A4A09AC07CA01
:105F300084E8070022462946CDE90574CDE90344EB
:105F4000CDE90144044800961DF068F80DB0F0BD9D
:105F50000720FBE7ACE803001000010082B070B539
:105F600086B0149D03AE202D86E807000B9359D808
:105F700005EB85038B4203D006236B438B4253D141
:105F80000C9BAB4250D10F9BB3EB450F4CD1129AF7
:105F9000934249D1012229462220159BFFF79AFD01
:105FA000044630BB034606220E210C20FFF77EFD7F
:105FB0000123CDE900332B4696E807001CF0CBFF08
:105FC0000E230BAA009307CA2B461CF00FFF0C23CD
:105FD000164C00930EAA2B4607CA1CF037FF6368C5
:105FE00023F07F0343F026036360FFF78FFD30B19A
:105FF0000624204606B0BDE8704002B070476368D2
:1060000023F07F0343F022036360FFF77FFD044624
:106010000028EDD1062311AA009307CA2B461CF0D5
:1060200048FFE6E70124E4E70724E2E70020025CFA
:1060300070B598B0002843D02C4C08AD0FCC0FC5DC
:106040000FCC0FC50FCC0FC594E80F0085E80F00EB
:106050006D4604AE04F1100320340FCB85E80F0029
:1060600094E80F0086E80F00FFF7ACFD0420FFF76F
:10607000BDFDFFF797FD3046FFF7CEFD002408AECB
:1060800056F8040B0134FFF7D3FD102CF8D1FFF7BD
:1060900051FD0328FBD90024FFF776FD2646FFF7C4
:1060A00043FD55F8043B01365840042E44EA0004F1
:1060B000F5D12CB1012206200D4B1A7018B070BD1D
:1060C000FFF780FD0820FFF747FD0020FFF74AFD9E
:1060D0000720FFF74DFD4FF40070FFF74FFD08203C
:1060E000FFF784FDFFF756FD0020E7E794E9030082
:1060F0005834002008B5FFF765FD0122014B1A70E6
:1061000008BD00BF5734002030B589B005AC84E825
:106110000700FFF715FDC30501D5FFF7EBFF0A4D9B
:106120002B781BB11DF0D1F900232B70074B069A79
:10613000D3E901018DE8030002921B6894E807008F
:106140001DF0CCF809B030BD57340020F4E903004D
:106150001FB51DF0BAF9044630B1012206240D4BDB
:106160001A70204604B010BDFFF7DEFC0090FFF768
:10617000DBFC0190FFF7D8FC0290FFF7D5FC039001
:106180006846FFF749FDFFF7B5FFFFF713FDFFF77F
:1061900025FDE6E75834002005289ABF014B185C1E
:1061A0000020704700EA030030B5154B87B002931A
:1061B000144B0390049346F611030D46059300F02B
:1061C0006DF91428044616D168461DF036FA4FF0D2
:1061D000A843032202A95A6319601D619A63DA6B0E
:1061E0009207FCD1142C02D168461DF034FA00F05D
:1061F00089F9044601E00028E9D0204607B030BD07
:1062000000270020040000202DE9F04FB1B0054622
:106210008C46E9466E4F3B9EDDF8F8E0409C07F166
:10622000100AC846386879680837A8E80300574557
:10623000C146F6D10EEB0208C8F1000909F00F09BA
:10624000002E00F0AF80774207F00F070121DDF844
:10625000FCB0C4F1100ACDF810B0059144F0005123
:1062600006914FEA0A2101F4F85141F0210107910A
:1062700006B96B460893002D40F09680002C00F084
:10628000938004AB0993002E00F0908046F00053F9
:106290000A93002D40F08D80002C14BF0123212390
:1062A00043EA07230B9308A942F00053CDF830C00E
:1062B0003D980D910E934FEA092343F041030F934C
:1062C000109002B10CA9002A16BF00224FF0005214
:1062D000412342EA0E021191129213933C9B3D4AD4
:1062E000149310AB15933C4B0021169340F6110309
:1062F00017933A4B002D08BF1346189314AB19930C
:10630000374B10221A9311231B931CAB184627F00E
:10631000CDFD01221D924AF080421E9200220346CA
:10632000239205B9EB46102C08BF01230DF1900A0A
:10633000102200215046CDF880B02193229427F0FE
:10634000B5FD002C37D020AB002125938F4218BF1C
:10635000534647F0804226923A9A2CA88A422892C5
:10636000299313460CBF4FF080430B461022334352
:106370002B912A9327F09AFDFEB95346C8442D93DA
:106380002CA948F0804318A82E93FFF70DFF30B9D1
:106390002DB90346A34212D1002818BF2C2031B0DA
:1063A000BDE8F08F102751E701236BE747F000535A
:1063B0006EE7212374E70123C6E728ABDEE703F18C
:1063C000C0026A4412F8C02C01331043E2E700BF58
:1063D00006EA030018EA0300100000201CEA03008C
:1063E00004000020F0B5C0299FB0249E4FD0B1F525
:1063F000807F04D0802941D029201FB0F0BD40F219
:10640000344440F21445002E08BF2C4621271025A5
:10641000019401240296039404950597259F0697FD
:1064200006B102AC07940124089509940A9221222E
:106430000B940C950D92174A0AAC0E92164A0F94C3
:10644000109242F611021192129313941495159220
:1064500001AA1692CBB112AB179304231893112300
:10646000199316AB1A901B9340F61103C9081C919F
:106470001AA806A91D93FFF797FEBEE7002E14BFCA
:106480004FF486644FF48264C0E70EABE4E70F205C
:10649000B3E700BF20EA03001000001038B5164B28
:1064A0005A6E42F004025A66D3F8802242F001028A
:1064B000C3F88022114B5B68C3F3080343B14FF06C
:1064C000A842D36B13F0430FFBD11424204638BDF0
:1064D0004FF0A843DC6B14F04304FBD1084D2B684C
:1064E0001BB90421284602F03FFE2B68013343F01C
:1064F00000432B60EAE700BF0080005000ED00E0A1
:1065000000270020014B00205B68704700ED00E091
:106510004FF40052034B00209A660322C3F8602216
:10652000704700BF0090005008B5FFF70FFBC3078E
:1065300008D5FFF785FB062804D00A28F5D1FFF718
:10654000D9FDF2E74FF40052034B00209A66032274
:10655000C3F8602208BD00BF00A000501FB54FF473
:106560000052164B9A660322C3F86022FFF7EEFA38
:10657000C30710D401201CF0B5FF002814BF6FF032
:1065800092040024FFF7D0FF00280CBF20466FF0D4
:10659000920004B010BD10220021684627F086FC4E
:1065A0006846FFF72DFBDDE900321343029A1343DF
:1065B000039A1343DED00024E4E700BF00900050AC
:1065C000012300F01F02A0F506200949A0F5506044
:1065D0004009934051F820201A4341F820200549F2
:1065E00051F8202022EA030341F82030704700BF11
:1065F00004270020182700200121A0F506230F4AB8
:10660000A3F550635B0900F01F0001FA00F052F897
:10661000231008430A4942F82300D1E9003003441B
:1066200088680344C868096903445B1802BFC2E96B
:106630000033C2E902331361704700BF18270020FE
:10664000042700202DE9F04FA9B002921F46DDE992
:10665000328904460822CDE90301414021FA02F3C0
:106660004B40980702F1080218BF9B00202A1C44E7
:10667000F4D18123B4FBF3F303EBC313E41A784B97
:1066800004F506241B7804F55064002B3CD1FDF77B
:106690005FFD014620B16FF0910029B0BDE8F08F99
:1066A0004022059008A827F001FC4022059918A86F
:1066B00027F0FCFB6B4EDFF8C4A1334603F10F0B50
:1066C000102208A9DAF80000CDF800B0059326F0F2
:1066D0008EFC00220146059B103608AD914244D144
:1066E000CDF800B01022DAF8000018A926F088FCD6
:1066F0004FF0000B034618AD5B4542D15A4B9E420A
:10670000DBD10122564B1A7081250026DFF86CA1DF
:10671000A4F50623554AA3F550635B0952F82320DC
:1067200004F01F01CA40D2073ED4514A52F8230058
:10673000C84010F001002DD0002E08BF264681234E
:10674000A4F50724A4F2FF44B4FBF3F303EBC31353
:10675000E41A04F50624013D04F55064D8D1029BE7
:10676000D3B1CEB1349B1E6063E055F8040BCDE984
:1067700006230591FFF724FF069A079B059901322E
:10678000ACE755F8040B05930BF1010BFFF734FF51
:10679000059BB1E7029B13B96FF08B007DE7349B3B
:1067A000002E45D01E6078E7B8F1000F02D000231C
:1067B000C8F80030B9F1000F02D00023C9F800304A
:1067C0004FF0100B00233A462146DAF80000CDF8CE
:1067D00000B013F0DBFC70BBB8F1000F01D0C8F8BB
:1067E00000B03B68234A93422FD1B8F1000F11D07B
:1067F000B9F1000F0ED04B462146DAF8000018AA76
:1068000013F018FDB8B9D9F80030D8F800209B1A59
:10681000C9F80030D7E90223DDE90310834208BF3D
:106820008A428CD1029B13B17B68012B15D0349B1B
:106830001C60002031E7104B984206D0123398427A
:1068400003D0133B9842E5D025E72146DAF8000053
:1068500013F036FD0028DDD09EE76FF084001CE7C2
:1068600059340020006D0800007108000427002042
:1068700018270020105D175EFFDF00F0F40A0020EB
:106880002DE9F04F87B08246894698461646DDF8D6
:1068900040B02AB1002B4ED040F26C739A424DD8D2
:1068A000BBF1010F4DD8002406F110073946012035
:1068B00005941DF0E2FA0546002845D021463A46E7
:1068C00027F0F4FA05ABCDE9014300942B460122F1
:1068D00050464946FFF7B6FE044680B110F18C0FD2
:1068E00008BF6FF08D043A460021284627F0DEFAF3
:1068F00028461DF0D3FA204607B0BDE8F08F144BB0
:10690000C5E902A92B60C5F804B02EB13246414654
:1069100005F1100027F0A3FA0E483B462A460599D8
:10692000006813F09BFB18B90598FFF749FEDAE7FA
:106930006FF09104D7E76FF08604DCE76FF0910405
:10694000D9E76FF08504D6E76FF08C04D3E700BF7A
:10695000105D175EF40A00202DE9F0438DB08146EA
:10696000DDE914780C4615461E469BB1B8F1000FC0
:1069700005D16FF0860420460DB0BDE8F083002FEE
:10698000F7D0B7F1005FF4D3C3F1005303F5004330
:106990009F42EED81022002108A827F087FA002293
:1069A00007AB029305AB019306AB21460093484623
:1069B00008ABCDE90522FFF745FE04460028DAD1F1
:1069C0000599DEB1A94203D80029D2D115B1D0E78B
:1069D0000029FBD0491BB14228BF3146069B09481C
:1069E000C8F8001000913A46079900682B4413F04C
:1069F000CDFB002818BF6FF09104BCE7A942E9D293
:106A0000B7E700BFF40A002030B58DB00C4605464C
:106A10001022002108A827F049FA002207AB0293B0
:106A200005AB019306AB21460093284608ABCDE9A0
:106A30000522FFF707FE0446D0B9099B012B1AD0A7
:106A4000104B0799186813F03BFCB8B9012207985E
:106A50000D49A0F50623A3F550635B0900F01F055F
:106A6000AA4051F823506A4041F82320FFF7C4FDA3
:106A700020460DB030BD6FF08404F9E76FF091044B
:106A8000F6E700BFF40A0020042700202DE9F043B8
:106A90008BB01746DDE91545DDE913269C46DDE997
:106AA0001738894621B96FF086000BB0BDE8F08336
:106AB000002FF8D00EB9002CF5D1129909B9002A8F
:106AC000F1D10DB9002BEED1B8F1000FEBD0254A72
:106AD000944544D10288B2F5105F40D14288B7EBAB
:106AE000D20FE0D322F04001802902D0B2F5807F9E
:106AF000D9D11CB92046C8F80040D6E7AE421CD216
:106B00003219954219D29C42CDD8314622462846A8
:106B100027F0B2F92E4614F00F03C4D1CDE9019746
:106B2000CDE90336CDE90543CDE907540993FFF7D5
:106B3000EFFC38B16FF09200B7E79C42EBD96FF0F1
:106B40008900B2E707AA04A901A8FFF72DF90546B5
:106B5000FFF7EAFC2843EDD1C8F80040A5E76FF045
:106B60008500A2E7004440042DE9F04FA9B0834618
:106B700017469A460E46DDF8C890DDF8D88029B948
:106B80006FF08603184629B0BDE8F08F002AF7D0D1
:106B9000B9F1000FF4D0349B002BF1D0B8F1000F05
:106BA000EED00024434B0CAD93E8070085E80700C6
:106BB0003C22214619A8189427F078F93288718868
:106BC00002F4E040B0F5804FDAD03B4E3B480BEA90
:106BD000060646F01066864265D1B1F5807F62D127
:106BE00047F212118A425ED106203549BAF11F0FD1
:106BF0000A69CB6800FB02F209680B93CDE90C121D
:106C00000E94BDD9339B402BBAD9359B1F2B4DD940
:106C100009F1010220261292402299F800300F97C4
:106C2000042B18AFCDE91324CDE9157210961194F9
:106C30001794A5D1FFF76CFC03460028A2D10B9B4B
:106C400015AACDE9086305AB07CA83E8070002ABC4
:106C500012AA07CA83E80700DDE910018DE80300E6
:106C60000F9B95E80700FFF779F90546FFF75CFCF5
:106C700055EA000384D13D46349A20AE2C4603CC1D
:106C8000B44210605160254602F10802F6D100229C
:106C90001046B9180132412A03D12022C8F8002039
:106CA00070E70870F5E76FF085036BE76FF0890315
:106CB00068E700BFACE803000000FFF6000002092F
:106CC00080E90300F0B50F461D468DB000285AD06C
:106CD000002958D0002A56D0002B54D00388B0F891
:106CE00002C0194603F44F44B4F5824F18BF002385
:106CF00021F0FF01B1F5E24FDBB203D06FF0850068
:106D00000DB0F0BD122B01D0172BF7D10CF10701FC
:106D1000B2EBD10F4FEAD10638D31F4A06ACBCF50F
:106D2000807F07CA84E80700E8D1122B07D11B4BEC
:106D30001A691B681344CDE9063200230893002327
:106D4000CDE909760B93FFF709FC0028D8D1FFF7AE
:106D5000DFFB0028D4D1124B1149059302AB0490FC
:106D600083E803000CAB13E903008DE80300099BE3
:106D700094E807001CF038FA0446FFF7D5FB2043DF
:106D800007D12E60BCE76FF08600B9E76FF089008D
:106D9000B6E76FF09200B3E7ACE8030080E90300C8
:106DA000053503002DE9F0438FB01D46DDE916C619
:106DB000002863D0002961D0002A5FD0002B5DD06D
:106DC000BCF1000F5AD0002E58D00388B0F802E072
:106DD0001C4603F44F47B7F5824F18BF002324F039
:106DE000FF00B0F5824FDBB24ED0B7F5824F4BD1EA
:106DF000122B01D0172B47D10EF10700B2EBD00FA9
:106E00004FEAD0083AD34FEA4802571C674538D8B2
:106E1000BEF5807F38D1122B18BF4FF000094FF01C
:106E2000000308BF1B4CCDE9081805F1010114BF90
:106E30004C46D4F80C90CDE90B120A930D93FFF752
:106E400067FBC0B9CDE9058902AB08AA07CA83E888
:106E500007000EAB13E903008DE803000B9B94E8D9
:106E600007001CF0E0F90446FFF75EFB20430ED15B
:106E700004232B7037600FB0BDE8F0836FF08600FD
:106E8000F9E76FF08900F6E76FF08500F3E76FF040
:106E90009200F0E780E903002DE9F04389B00D4648
:106EA00014461F46DDF8488020B96FF0860009B00F
:106EB000BDE8F0830029F8D0002AF6D0B8F1000F21
:106EC000F3D0028802F44F43B3F5824F0CBF134650
:106ED0000023DBB202D06FF08500E8E7122B01D06F
:106EE000172BF8D122F0FF02B2F5E24F40D14288D1
:106EF000C8F80020002A36D1E200C8F80020D8F8EF
:106F00000020B2F5807FE6D1122B09BF384B00225A
:106F10001A681B6905EB040608BFD218002318463F
:106F2000224412F801CD16F8011D0843B1EB0C0103
:106F30000CBF4FF0FF3C4FF0000CB5420CEA0303CE
:106F400043EA0103EDD10028AFD0002BADDA109B4E
:106F50009C4249D822462946384626F080FF119B9C
:106F600000201C60A3E70732B4EBD20FC7D09CE728
:106F70002A78042A99D1621ED2005208B2F5807F85
:106F8000C8F80020A7D1122B05F1010318BF4FF05C
:106F900000094FF0400205934FF000030ABF144E62
:106FA0004E46D6F80C90CDE90623FFF7B1FA00283B
:106FB0007FF47DAFCDF80C90D8F800300733DB08B4
:106FC000029308AB13E903008DE80300059B96E8E4
:106FD00007001CF0D1F90646FFF7A6FA00287FF457
:106FE00066AF002EB3D060E76FF089005FE700BFA7
:106FF00080E903002DE9F04F8FB00546DDE918A9BF
:1070000093461E46DDF868801C9F09B300B3B8F1B3
:10701000000F1DD0E7B1BAF1000F02D1B9F1000F96
:1070200016D1284B26F47E129A4247D128461CF0EE
:1070300043FB0446B0BB6B88BBEBD30F4FEAD302D4
:1070400006D316F47C1FC6F3054504D0102D03D9D2
:107050006FF0860426E010251B9B9D422BD8002351
:10706000CDE901121022CDE905930DF12809CDE9F2
:10707000033ACDE90823CDF81C90FFF749FA0446FE
:1070800080B907AA04A901A8FEF7A2FE0646FFF7E9
:107090004BFA044656B958B92A464946404626F0A6
:1070A000DEFE3D6020460FB0BDE8F08F6FF0920429
:1070B00000233B60F6E76FF08904F3E76FF0850487
:1070C000F0E700BF0002C0032DE9F041069F0C4627
:1070D0001646054610B309B302B9FBB96288B3EB93
:1070E000D20F4FEAD20819D34C220021284626F0AD
:1070F000DDFE0D4B27F47E129A4212D120461CF081
:10710000DBFA044638B942463146281D26F0A7FE70
:10711000C5F824802F602046BDE8F0816FF086041A
:10712000F9E76FF08504F6E70002C0032DE9F041AE
:107130000E4614460546002840D000293ED012B91C
:107140000020BDE8F08103681F4823F47E138342CA
:1071500037D1AF6BE7B1C7F1100807F128004245FE
:10716000284404D226F07BFE3C44AC63E8E7424668
:1071700026F075FE1022103C3C19AA63E0D0284688
:1071800005F128011CF0B4FA0028DAD14644A863BE
:10719000102C0CD9671E27F00F073A4631462846B7
:1071A0001CF0A6FA0028CCD1E41BC9D03E442246EC
:1071B000314605F1280026F052FED6E76FF0860032
:1071C000BFE76FF08800BCE70002C0032DE9F04381
:1071D00088461F4605468BB070B169B163B103683C
:1071E000234923F47E1088423ED113F47C1FC3F35D
:1071F000054604D0102E03D96FF086042AE010262D
:1072000096422BD8FFF784F9044618BBAB6B05F107
:107210002802CDE901236B6A2A1DCDE9042310233E
:10722000CDE9083007AB1A460390069005F13C09FA
:1072300001A904A8CDF81C90FEF7EEFD0546FFF766
:1072400073F904466DB928B932464946404626F0DE
:1072500006FE3E6020460BB0BDE8F0836FF0890467
:10726000F8E76FF09204F5E76FF08504F2E700BFEE
:107270000002C00307B56B46054A1068516803C396
:107280006846FDF707FE002003B05DF804FB00BF71
:1072900024EA030013B50024064A6846536F43F0FE
:1072A0000103536700948DF80440FDF729FD204643
:1072B00002B010BD0040005030B58BB06C46174D89
:1072C0000FCD0FC40FCD0FC495E8030084E8030071
:1072D000134BD3F84C21120318D4D3F85041E4B225
:1072E0008DF81940FDF71CFB204480F308008DF851
:1072F00018000C48FCF784FA6846FDF72DFA4FF4A5
:10730000FA70FDF781FB00200BB030BD064B1C88E6
:107310004FF6FF739C4208BF8C24E1E72CEA030080
:107320000080E00F00F049020001E00F30B5094D88
:1073300087B001AC0FCD0FC42B6801A823601923BF
:107340008DF80530FDF71CFB6420FDF757FB00208E
:1073500007B030BD54EA03006FF00402502110B5AD
:107360000A480B4C12F0800FD3B21BBF03F00F037F
:10737000043BA3181B1802F101020CBF83F8001391
:107380001976402AEED1002010BD00BF00ED00E0CC
:1073900000E100E010B504461BF0CDFC024B1C6080
:1073A0001BF0CDFC002010BD2C27002010B51BF0D9
:1073B000C2FC034B1C681BF0C2FC204610BD00BF82
:1073C0002C270020034B02221868002380681946EE
:1073D0001AF03EBB040C002008B5074B1A6842B9EE
:1073E000012208201A601BF01DFB0449044800F02C
:1073F00029FD002008BD00BF38270020180B002001
:107400003027002030B51446054687B010461CF0E2
:10741000C1FA6369024683423CBFD4E903315B1879
:107420001B1A7BB10F49284603910021CDE9013198
:10743000012304940093D4E900131BF048FB0020BF
:1074400007B030BD0122627694F82D20002AF6D0D4
:1074500084F835301321E369204698472046636A53
:107460009847ECE7057401002DE9F04788B0044621
:107470008846174699461BF065FC8246002F7AD055
:10748000237E03F0FF02002B00F0A28020461CF0B8
:1074900081FA6669B04205D1637ED4E9035215448E
:1074A000AD1B01E0F9D9851BBD4228BF3D461BF04D
:1074B00049FC94F82D300646002B6DD12A464046F3
:1074C000616926F0CCFC63692F462B44636121E09F
:1074D000037803F0FD0111295BD1216B814205D1B5
:1074E000A3F111014B424B4184F83430013F6369F1
:1074F000216B01328B4203F1010308BF23636361F7
:1075000095426069E4D1D4E90323216B1344994285
:1075100000D122630025D4E9032361691344994211
:1075200008BF6261207A6576FCF798FC20461CF063
:1075300031FA6369834232D1257694F82D30E568BB
:10754000656103B125632046636A9847214B2A464B
:107550000393002302932369216801930123207A76
:107560000093049463681BF0B2FA207AFCF796FC4F
:1075700030461BF0EDFB5046C9F800701BF0E8FBED
:10758000D9F80030002B0CBF1B20002008B0BDE84C
:10759000F08708F8013BAAE72F460022B0E7012355
:1075A000207A23760DF11E01FCF7E0FC9DF81E30D9
:1075B000002BDAD00DF11F01207AFCF7AFFC9DF80B
:1075C0001F100029D1D12246207AFFF71BFFCCE7FC
:1075D0001746D0E705740100002808DB01234209A3
:1075E00000F01F0003FA00F0014B43F8220070473F
:1075F00000E100E0002809DB0122430900F01F0040
:1076000002FA00F0024A603342F82300704700BFDC
:1076100000E100E070B504460568FFF7C7FE84424C
:1076200002D10020FFF7B6FE95F93600FFF7E2FF22
:1076300095F93630002B0DDB01215A0903F01F03A9
:1076400001FA03F31849203241F82230BFF34F8F7B
:10765000BFF36F8F95F93700FFF7CCFF95F93730FF
:10766000002B0DDB01215A0903F01F0301FA03F37C
:107670000D49203241F82230BFF34F8FBFF36F8F97
:10768000287AFCF72BFC287AFCF78EFBFCF76AFBC8
:1076900000232846C4E90033C4E90433A360AB6A7D
:1076A000BDE87040184700BF00E100E02DE9F0415F
:1076B0000C461546064686B04022002120461F464D
:1076C00026F0F4FB95E8030000232A692376EB6893
:1076D00084E80300C4E904232A7DE36084F82C20B5
:1076E000AA7D2363012384F8343084F835300C9B61
:1076F00084F82D2023620D9BE76163620E9BA362D9
:107700002B7A84F836306B7A84F837302D4B34601E
:1077100073602D4BB3602D4B33612D4B73612D4B3B
:10772000F360FCF767FB38B12B4B984204D0102470
:10773000204606B0BDE8F081002104F10800FCF706
:10774000E1FA07460028F2D14FF00108234B3362DB
:10775000234B84F83C80B361224BF3619DF84030A9
:1077600084F8390084F83B309DF83C30204684F89A
:107770003A30697D84F838801CF01CF995F90900CD
:10778000FFF738FF95F90900FFF726FF164B049421
:10779000CDE902732369CDE900836368E26821685B
:1077A000207A1BF094F904460028C0D195F908000E
:1077B000FFF720FF95F90800FFF70EFF3046FFF7AF
:1077C000E9FDB5E7053A0300697401008339030058
:1077D0008939030015760100038000F05939030050
:1077E000B53903008F390300057401002DE9F0411C
:1077F00001271C46594B86B00293594B0C9D0193AF
:10780000584B904600930A46CDE903772946564BDC
:10781000FFF74CFF064600287BD1236839462B64CE
:1078200063683A206B64637A85F84930237A85F877
:107830004830E37A85F84B30A37A85F84A30637B89
:1078400085F84D30237B85F84C30E37B85F84F304D
:10785000A37B85F84E30FCF775FE3B460422617A27
:10786000207AFDF7ADFB3B460222E17AA07AFDF7D4
:10787000A7FB39466068FCF765FE88F80060414662
:107880002068FDF789FF1422637C5B0103F1A043AC
:1078900003F57033C3F81C26617A227A42EA01426A
:1078A000C3F83426E17AA27A42EA0142C3F82C26D0
:1078B00085F8506098F81930032B4DD8DFE803F0B5
:1078C0001A022D470123002785F850300023022299
:1078D000617B207BFDF774FB637B227B617C42EA4A
:1078E0000342224B49015A500422236803F5805376
:1078F000DA65AFB9237A2A6C85F84830637A0521B6
:1079000085F84930D36C206843F00403D3641BF03E
:107910004DFA304606B0BDE8F081022385F85030BC
:1079200000230422E17BA07BFDF74AFB022741F202
:107930001C61627C0E4B03EB42104750E07BA17B45
:10794000B13241EA004103EB42139960D2E70323CD
:10795000012785F85030B9E72326DAE72F3B0300EB
:10796000233B0300BB3B0300AF3B030024D6035083
:1079700000C0035010B51C46044B18681DF041FAB6
:10798000002820600CBF1B20002010BD200B002011
:1079900013B5064C2378009311231BF09CFF10B9FC
:1079A00023780133237002B010BD00BF7A34002069
:1079B00010B5FFF711FD0F4C20601DF030FA2022AA
:1079C0000D4901230D4801F0C5FE0D4B18600D4B0C
:1079D000204663600C4BA360FFF7DCFC1BF0ABF9A7
:1079E00001210446084600F09BF920461BF0A7F948
:1079F000002010BD3C2700205A34002068EA030014
:107A0000200B00209179010075790100BFF35F8F91
:107A1000074B5A6A22F480325A62D3F8942022F03B
:107A20000102C3F89420BFF34F8FBFF36F8F7047ED
:107A300000ED00E070B52648264CFFF7E7FF8442D2
:107A400008BF4FF08043244A18BF20F01F03D2F82C
:107A5000C01018BF203B21F0FF0141F0A001B3F19D
:107A6000005FC2F8C0100CD31C4D1D4E296843F0B6
:107A70000103C2F898100131C2F89C60C2F8A0302E
:107A80002960844210D01548164B0268124923F031
:107A90001F0343F00303C1F89820C1F89C30124B38
:107AA0000132C1F8A0300260BFF35F8F05220A4B9C
:107AB000C3F894205A6A42F480325A62BFF34F8F5F
:107AC000BFF36F8FBFF34F8FBFF36F8F70BD00BFDA
:107AD000300D0020080F002000ED00E048270020B6
