:1000000000100020050D0000F3480000F348000038
:10001000F3480000F3480000F3480000F3480000F4
:10002000F3480000F3480000F3480000F3480000E4
:10003000F3480000F3480000F3480000F3480000D4
:10004000F3480000F3480000F3480000F3480000C4
:10005000F3480000F3480000F3480000F3480000B4
:10006000F3480000F3480000F3480000F3480000A4
:100070000D2C0000F3480000F3480000F348000096
:10008000F3480000F3480000F3480000F348000084
:10009000F3480000F3480000F3480000F348000074
:1000A000F3480000F3480000F3480000F348000064
:1000B000F3480000F3480000F3480000F348000054
:1000C000F3480000F3480000F3480000F348000044
:1000D000F3480000F3480000F3480000F348000034
:1000E000F3480000F3480000F3480000F348000024
:1000F000F3480000F3480000F3480000F348000014
:10010000F3480000F3480000F3480000F348000003
:10011000F3480000F3480000F3480000F3480000F3
:10012000F3480000F3480000F3480000F3480000E3
:10013000F3480000F3480000F3480000F3480000D3
:10014000013800D0FCE770472DE9F04F2DED088B0A
:100150008DB09DED1E7B09EE903ADDE920430A93B8
:10016000229B09EE100A8A460792069351EC170B60
:1001700053EC172BB0EE478AF0EE678A03F080FD50
:1001800080B14FF0FF3251EC180BCF4B03F0A0FDC4
:1001900040B94FF0FF326FF4801351EC180B03F0AD
:1001A00079FD98B1069B514622930A9B19EE100ADD
:1001B000CDE9204319EE903A079A8DED1E8B0DB0D4
:1001C000BDEC088BBDE8F04F00F0A2B9002200237F
:1001D00051EC180B03F05EFD002800F0448118EE8E
:1001E000903A18EE108A03F10049069BC9F30A50B1
:1001F00013F48063A0F2FF3008BF06240B9303F0D2
:100200006DFAA1A3D3E9002303F0D2FAA0A3D3E9A6
:10021000002303F017F9C9F313050F4645F07F518A
:1002200006460022A94B404641F4401103F008F96C
:1002300099A3D3E9002303F0BBFA02460B463046EC
:10024000394603F0FFF803F04DFD834603F046FA0C
:1002500093A3D3E9002306460F4603F0A9FA002230
:100260009B4B03F0EFF803F03DFD8FA3D3E9002390
:1002700005463946304603F09BFA064628460F46A7
:1002800003F02CFA8AA3D3E9002303F091FA024683
:100290000B463046394603F0D3F802460B46064675
:1002A0000F4603F085FA324641EC1A0B3B463046C6
:1002B000394603F0C7F8002241EC1B0B854B51EC8B
:1002C0001A0B03F09FFB0022834B03F0BBF802469E
:1002D0000B4651EC1A0B03F095FB00227F4B03F009
:1002E000B1F802460B4651EC1A0B03F08BFB324679
:1002F00041EC1A0B3B4600204FF0804103F0A0F880
:1003000002460B4651EC1A0B03F09CF802460B46D2
:1003100051EC1B0B03F076FB05F2FF350022704B0E
:1003200003F090F800222B0503F042FA42464B46B8
:1003300006460F4603F0CCFC002840F09780CDE93C
:1003400008670BF16303C72B069B34BF0425052503
:10035000190521D558A3D3E900234046494603F0A7
:10036000ADFC002800F0BE8055A3D3E90023404631
:10037000494603F08FFC002800F0B48000255C455E
:10038000CCBFA4EB0B000024AB46069BC8BF00F11A
:10039000FF3443F4806306930A9B9D4238BF5E1B83
:1003A000069B28BF002613F0020702D0002D18BFBD
:1003B0000026BBF1000F07D0DDE90823404649467F
:1003C00003F020FB804689460022002351EC180BE5
:1003D00003F060FC10B109F100439946069B5146B9
:1003E00023F40063CDE9036319EE100A19EE903A85
:1003F000CDE90089079A029400F08AF875B3069B4C
:10040000024613F0200F00F1010619EE903A14BFD6
:1004100045206520514619EE104AA04705230022C9
:1004200005930A238BEAEB70CDE90232A0EBEB7067
:100430004FEADB73013D0193009019EE903A32468A
:10044000514619EE100A049504F054FC37B1079B8D
:10045000C51A079B58190A9BAB424CD80DB0BDEC8E
:10046000088BBDE8F08F59EC188BBEE600223046B1
:100470003946194B03F0C6FA0BF1FF3BCDE90801F1
:100480005FE700BFAFF30080FB799F501344D33F79
:10049000B3C8608B288AC63F61436F63A787D23F8A
:1004A00071A379094F930A401655B5BBB16B024051
:1004B000EF39FAFE422EE63F2D431CEBE2361A3F9F
:1004C0000000000080842E41FFFFEF7F0000F83F16
:1004D0000000E03F00002C400000244000001840D5
:1004E0000000F03F002C3FF457AF0B9B002B3FF474
:1004F00053AF013C50E7024619EE903A5146202096
:1005000019EE104AA0470135A3E700BF0000000024
:100510002DE9F04F2DED088B8FB0DDE920AB08EE13
:10052000100A0F4608EE902A09EE103ADDE9225330
:100530005246049350465B465946249E03F0A0FB66
:10054000A0B9049B2396229303232193B84B2093B5
:1005500018EE902A19EE103A394618EE100A0FB02C
:10056000BDEC088BBDE8F04F04F0FCBA4FF0FF3251
:100570006FF480135046594603F08CFB30B1049B56
:100580002396229304232193AA4BE0E74FF0FF32F6
:1005900050465946A84B03F09BFB70B1A74A06F0A2
:1005A0000403002B08BF0322A54B1CBF13460422E3
:1005B00004992396CDE92121C9E7504698A3D3E9B0
:1005C0000023594603F084FB38B997A3D3E90023ED
:1005D0005046594603F05EFB98B1049B18EE902AF2
:1005E000CDE92253394619EE103A18EE100ACDE93A
:1005F00020AB24960FB0BDEC088BBDE8F04FFFF7A1
:10060000A3BD002200235046594603F043FB0028B7
:1006100000F081805B4652460020002102F010FF6E
:10062000012382468B46059316F4806F08BF06258A
:100630003021A94606ABA5F12002B9F1090FA5EBBF
:10064000090406D909F1FF394A4503F8011BF4D121
:1006500020245946504603F045FB7A4B054603EBF0
:10066000C90393ED007BB0EE47AAF0EE67AA03F052
:1006700035F802460B465046594602F0E1FE53EC6F
:100680001A2B03F095F802460B4643EC1B2B03F0A4
:1006900051FB804603F012F802460B4651EC1B0B4F
:1006A00002F0CEFE02460B4643EC1B2B0022664BAB
:1006B00003F00EFB88B308F10108404602F0FEFF8C
:1006C00002460B4651EC1A0B03F0EEFA10B14FF054
:1006D00000080135B9F1000F51D1284602F0FEFFA4
:1006E00002460B465046594602F0AAFE0022564BDF
:1006F0008046894603F0CEFA30B100224046494692
:10070000514B03F0E5FA10B1E80700D5013506AB0F
:100710000A2223445AE0059086E7002251EC1B0B85
:10072000494B03F0B7FA0028D4D1B8F1000F02D03A
:1007300018F0010FCED008F10108CBE7B8FBF1F0BB
:1007400001FB1082B8F1090F02F1300209F1FF3903
:1007500004F1010403F8012B28D83021A14406AA92
:10076000202C11D04C4504F1010321D104F13802B1
:100770000DEB02042E2204F8202C1C46C7E70A21A8
:1007800006AB2344202CD9D106F00303012B06AB82
:1007900039D1049A002A36D0059A12B916F00C0FF6
:1007A00002D0049A013A0492302214E08046E9E72C
:1007B000A1541C46D4E795FBF2F102FB11553035EC
:1007C00003F8015B01340D460029DDD0202CF2D165
:1007D000DAE71A5501340499A14214D9202CF8D132
:1007E000049A0093CDE9014219EE103A18EE902ACE
:1007F000394618EE100A039604F0B4F90FB0BDECB8
:10080000088BBDE8F08F202CEAD0059AF2B12D219B
:1008100004F138026A4402F8201C0134E0E700BF0A
:100820000000000065CDCD410000000065CDCDC1C8
:100830009C540000A0540000FFFFEF7F975400007D
:1008400093540000A85400000000E03F710704D555
:1008500004F138022B216A44DDE73207C0D504F1E8
:10086000380220216A44D6E710B5054C237833B905
:10087000044B13B1044800E000BF0123237010BDF6
:10088000A81C0020000000007855000008B5034BAC
:100890001BB10349034800E000BF08BD0000000091
:1008A000AC1C002078550000A3F5803A704700BFCB
:1008B000174B002B08BF134B9D46FFF7F5FF002198
:1008C0008B460F461348144A121A04F021FB0E4BB4
:1008D000002B00D098470D4B002B00D098470020EC
:1008E000002104000D000D48002802D00C4800E053
:1008F00000BF03F0E3FB2000290003F0A5FF03F095
:10090000C9FB00BF0000080000000000000000005C
:1009100000100020A81C0020241D00200000000062
:100920000000000010B586B0642002F011F8114BF1
:1009300011481A889B7801A98DF802300F4BADF849
:10094000002001930323ADF80C300023CDF808D02C
:100950000493ADF8143001F013FD074C012804D0C6
:10096000003818BF012006B010BD204601F0E6FB9C
:10097000F4E700BF785000000080065070000100CE
:1009800010B586B0642001F0E3FF114B11481A88BE
:100990009B7801A98DF802300F4BADF80020019330
:1009A0000323ADF80C300023CDF808D00493ADF844
:1009B000143001F0E5FC074C012804D0003818BFC2
:1009C000012006B010BD204601F0B8FBF4E700BFDF
:1009D0007B50000000800650700001002DE9F041BE
:1009E00086B0154B012601930023144D01A914482C
:1009F000ADF80C600493ADF81430029501F0C0FC22
:100A00000446304601F0A4FF4FF010080C4E0D4F85
:100A1000012C05D0201E18BF012006B0BDE8F081D2
:100A2000304601F08BFBC7F810802B780446002B72
:100A3000EED00120F1E700BF70000200121D00207F
:100A40000080065000D003502DE9F04387B00D46DA
:100A500090461F460646FFF7C1FF642001F078FF6D
:100A6000294BDFF8BC9001930623ADF80C3000232E
:100A7000264801A9CDF808900493ADF8143001F090
:100A80007FFC224C012839D0E0BB99F8012099F86D
:100A9000024099F80330240244EA02441C4324092A
:100AA00007EE904A9FED1A7AF8EEE77ADFED196AC1
:100AB00067EE877A67EEA67AC8F80040C7ED007A3D
:100AC00099F8031099F8043099F805201B0243EABD
:100AD00001431343C3F3130307EE903AF8EEE77AAA
:100AE000DFED0D6A67EE877A9FED0C7A17EEA67A36
:100AF000336085ED007A07B0BDE8F083204601F051
:100B00001DFBBFE70120F6E77000020000800650E1
:100B1000000080350000C842000048430000484201
:100B2000131D002030B585B0134D144C2B462146C3
:100B3000134A1448FFF788FF28B1134805B0BDE8F1
:100B4000304002F04DBB2B4621460D4A0D48FFF7C1
:100B50007BFF286802F0D4FD02460B462068CDE9F1
:100B6000022302F0CDFDDDE90223CDE900010748B3
:100B700002F036FB05B030BDC81C0020D01C0020A0
:100B8000C41C0020CC1C00207E5000009F500000A0
:100B900008B500F08FF8FFF7C5FEFFF7F1FE054836
:100BA00002F01EFB044802F01BFBBDE808400348AE
:100BB00002F016BBC4500000DD500000E4500000FD
:100BC00010B5234C00F024FE01F016F8236F23F03B
:100BD000070343F00303236703F0B4FE1D4B00201B
:100BE0009B6A9B075EBF01221B4B9A62D4F820319F
:100BF00023F0030343F00203C4F82031D4F8243176
:100C000023F0070343F00203C4F82431D4F8403141
:100C100023F0030343F00203C4F84031D4F86031F9
:100C200023F0030343F00203C4F86031D4F84032E8
:100C300023F0030343F00203C4F84032D4F8003237
:100C400023F0070343F00203C4F8003210BD00BFD5
:100C50000080005000C0005000E0005008B501F0D6
:100C600061FC01280ED1104B04205A6E4FF48023F2
:100C70000E49520358BF0E4A4B6601F510410862F7
:100C800058BF536601F0C8FC03F02FFE01F052FC80
:100C900001F0ACFC01F070FCFFF792FF01F05AFC90
:100CA000BDE8084003F018BE0080005000900050DE
:100CB00000A0005008B53A20012100F0F1FBBDE88A
:100CC0000840014800F068B90010002008B5012272
:100CD000074B1A700022074B1A700422064B1A7039
:100CE0001F22064B1A7001F0C1FC054B186008BDAD
:100CF000A8100020191D0020A9100020AA10002013
:100D0000D41C002008B500F02DF8124B12498B427C
:100D100012D30020114B12498B4218D3FFF7C8FDA4
:100D2000186850F82240586840F82240013298680C
:100D30008242F5D30C33EAE70022F8E71C6844F856
:100D4000220001325C68A242F8D30833E4E70022B3
:100D5000F8E700BF805500008C5500008C5500005E
:100D60008C55000010B54FF400414FF0FF30124B8E
:100D7000124A9A60D3F8882042F47002C3F888209F
:100D80000F4A916601F1884101F5005210664FF655
:100D9000DF7050660220C3F8D000BFF34F8FBFF35F
:100DA0006F8F08244FF440330648C0F88041D36069
:100DB00004600B6110BD00BF00ED00E0000000000A
:100DC0000090005000E100E0014B1868704700BF40
:100DD00018100020084B1B6F03F00703022B04D0F0
:100DE000032B05D0012B05D0FEE7044B1868704794
:100DF000034BFBE7034870470080005018100020A9
:100E00001C100020002D310108B5FFF7E3FF054B52
:100E10001B6FC3F303330133B0FBF3F0024B1860D5
:100E200008BD00BF0080005014100020004870472B
:100E300000B4C404014B1868704700BF1C100020A8
:100E4000054B1860054B1B6F03F00703032B01D103
:100E5000FFF7DABF704700BF1C1000200080005071
:100E600000487047002D3101014B1868704700BFE2
:100E70002010002005490A681318054883428CBFDA
:100E80004FF0FF320B601046704700BF2410002067
:100E90000080002008B501213A2000F001FB032169
:100EA00001230422002001F033F8002003F082FD2A
:100EB0000122214B4FF46070C3F8442400F01AFB68
:100EC0001E4B00F5D520D3F8F02000F2FC4042F094
:100ED0000102C3F8F020D3F8FC2042F08072C3F87E
:100EE000FC20174AA3F55D431A60164B0222B0FBA3
:100EF000F3F0154B01381861C3F8F0204FF48072FD
:100F0000C3F804234FF06043104A0020C3F8B02F09
:100F10000F4AC3F8802ED3F8002E42F48072C3F833
:100F2000002EFF2283F82020D3F8002E22F48072B6
:100F3000C3F8002E08BD00BF00D0035000ED00E054
:100F4000FF030040F8590D00000004E055CEACC589
:100F50000900010030B54FF06043D3F8802ED2076E
:100F600015D501240B4D8440D5F8FC2042F0807249
:100F7000C5F8FC20D3F8002E2243C3F8002E53F806
:100F80002020002AF0D003F82010002030BD1120CE
:100F9000FCE700BF00ED00E02DE9FF47044618B96B
:100FA0003921584803F0AEFC2368574A93420AD0CF
:100FB000564A934200F083804F21524804B0BDE866
:100FC000F04703F09FBC2E20012100F069FA0123B5
:100FD0000A226179207900F09BFF01230A22E1793E
:100FE000A07900F095FF0A274FF00108DFF824915F
:100FF000474D267994F805A0002E62D0012E63D0CB
:10100000022E63D0032E04D10C2323FA0AF3DA074D
:1010100004D440F2FE31484603F074FC302202FB57
:10102000065642F2100208FA0AF3B350642001F0A7
:1010300007FE267994F805A0002E49D0012E4AD04B
:10104000022E4AD0032E04D10C2323FA0AF3DB0725
:1010500004D440F22D41484603F054FC302202FBF8
:10106000065641F2100208FA0AF36420B35001F068
:10107000E7FD013FBDD12068234B98422FD10323C8
:10108000C5F890346279237943EA0243C5F8943471
:10109000E279A37943EA0243C5F8983440F2011398
:1010A000ADF80030E36869460293A3680193237C9E
:1010B0008DF80C3001F00EF804B0BDE8F0872F2059
:1010C00082E740F2FF13A0E71F239EE7FF239CE780
:1010D00040F2FF13B9E71F23B7E7FF23B5E70B4B38
:1010E0009842DBD10323C5F8A0346279237943EA1F
:1010F0000243C5F8A434E279A37943EA0243C5F870
:10110000A834CBE7EC5000000000015A00800650E4
:1011100000C0035042510000044BD3F88420D20693
:10112000FBD4D3F88400C0F3811070470040005016
:1011300038B5104B0546D3F820310C4603F00303B5
:10114000022B0BD0032B0DD0012B0FD1FFF73CFE50
:10115000052305B1286004B1236038BDFFF76AFE9E
:101160000323F6E7FFF77CFE0223F2E701230020CA
:10117000EFE700BF00800050F7B50027114B019743
:10118000D3F88041064604F00304012C0D4608D034
:10119000022C12D041F27A310B4803F0B3FB3C46EB
:1011A00004E0394601A8FFF7C3FF0F240EB1019BED
:1011B000336005B12C6003B0F0BDFFF751FE019024
:1011C000F4E700BF008000508E51000038B51A4B84
:1011D0000546D3F824010C4600F00700062821D864
:1011E000DFE800F0280410181C0C1400FFF7ECFDD9
:1011F000052305B1286004B1236038BDFFF7E4FD85
:101200000623F6E7FFF716FE0323F2E7FFF712FEC9
:101210000423EEE7FFF724FE0223EAE703F06AFB6C
:101220000723E6E7054840F6717103F06BFB0023E6
:101230001846DEE70123DCE7008000508E510000F5
:1012400038B5104B0546D3F840310C4603F0030384
:10125000022B0BD0032B0DD0012B0FD103F04CFB35
:10126000092305B1286004B1236038BDFFF7FCFDF8
:101270000823F6E703F043FB0B23F2E701230020EA
:10128000EFE700BF0080005038B5164B0546D3F895
:1012900000020C4600F00700042819D8DFE800F02F
:1012A00020030B0F130003F027FB092305B128606F
:1012B00004B1236038BDFFF7D7FD0823F6E703F03C
:1012C0001EFB0B23F2E7FFF79FFD0E23800AEDE7DD
:1012D000054841F2384103F015FB00231846E5E7C5
:1012E0000123E3E7008000508E51000038B5124B17
:1012F0000546D3F840320C4603F00303022B0BD013
:10130000032B0DD0012B0FD103F0F6FA092305B101
:10131000286004B1236038BDFFF7A6FD0823F6E777
:1013200003F0EDFA0B23F2E7044841F2C33103F076
:10133000E9FA00231846EAE7008000508E510000C9
:1013400038B5104B0546D3F860310C4603F0030363
:10135000022B0BD0032B0DD0012B0FD103F0CCFAB5
:10136000092305B1286004B1236038BDFFF77CFD77
:101370000823F6E703F0C3FA0B23F2E7012300206A
:10138000EFE700BF0080005010B40F4C0B46D4F8BC
:10139000204204F00304012C0ED0022C10D008B11E
:1013A000002101600BB100221A6040F69B710748D2
:1013B0005DF8044B03F0A6BA5DF8044BFFF7B8BE26
:1013C0005DF8044BFFF73CBF008000508E510000D9
:1013D00010B5B0F5207F34D009D8B0F5007F2AD001
:1013E00003D898B1B0F5C07F10D0002421E0B0F54B
:1013F000607FFAD1154BD3F88030C3F301149B06FC
:1014000017D5032C15D040F285210FE00F4B1C6F30
:10141000230B13F00E0FC4F303340AD0032C08D0AF
:10142000072C06D00F2C04D040F27521084803F099
:1014300069FA601C10BD054BD3F89040C4F30464F6
:10144000F7E7024B1C6FC4F38024F2E700800050E2
:101450008E51000010B54FF400320E4B04469A66D0
:101460000020FFF7B5FF41F6713260430A4C0B4B89
:10147000A0428CBF4FF480100020D969DA639A68CB
:1014800022F4401202439A60CA0344BF0022DA6386
:1014900010BD00BF00900050005A620200000350CF
:1014A00070B5460904460D460FD14FF447710D48FB
:1014B00003F028FA334604F01F0485B103F5805386
:1014C000012000FA04F41C6070BD012E05D0064B0B
:1014D000064A022E18BF1346EDE7054BEBE703F56E
:1014E0000053EDE78E51000068800050608200508C
:1014F0006480005030B585B00023802804460193F5
:1015000074D02AD8002877D0A0F12004412C32D8FA
:10151000412C30D8DFE804F07073707386868686BD
:101520007373903FA6653F7373732F2F2F2F2F2F49
:101530008B57737373B0AB732F2F2F2F2F2F2F2F2A
:101540002F2F2F2F2F702F707070862F2F2F2F2F50
:101550002F2F2F2F2F2F2F2F7070B0F5806F61D06E
:1015600024D8B0F5007F54D00BD8B0F5807F68D078
:10157000B0F5C07F40D040F27941424803F0C2F953
:1015800037E0B0F5607F44D0F5D8B0F5207F36D095
:10159000B0F5407FEFD1FFF737FC04464FF42070E1
:1015A000FFF716FFB4FBF0F0400821E0B0F5C06F84
:1015B00058D00DD8B0F5A06F39D0B0F5B06F3BD092
:1015C000B0F5906FD7D1002101A8FFF7FFFD10E023
:1015D000B0F5E06F4BD0B0F5F06F4DD0B0F5D06FF7
:1015E000C9D1002101A8FFF74FFE02E0FFF7F2FB8F
:1015F0000190019805B030BDFFF706FCF8E7FFF752
:1016000003FC04464FF42070FFF7E2FEB4FBF0F059
:10161000EEE7FFF7DFFB05462046FFF7D9FEB5FBF7
:10162000F0F0E5E7002101A8FFF782FDE1E70021E6
:1016300001A8FFF7A9FEDCE7002101A8FFF79CFD48
:10164000D7E702934FF0E0231B695B0705D5FFF74F
:10165000DBFB0290029B0193CBE703A902A8FFF7F3
:10166000EFFDF7E7002101A8FFF7EAFDC1E7002140
:1016700001A8FFF73BFEBCE7002101A8FFF760FED1
:10168000B7E700BF8E51000008B58020FFF732FF9A
:10169000034B98429EBF4FF48032024B1A6708BD3D
:1016A000005A620200A000501FB50023B0F5807FF1
:1016B00001937FD027D8382800F09C800BD824389D
:1016C000092810D809280ED8DFE800F06F6F6F6F77
:1016D0000D0D670D3685522867D007D83D283AD0C2
:1016E0003E2800F08C8040F25A5152E08028FAD116
:1016F000454B1B6F03F00703013B032B47D8DFE883
:1017000003F044413F75B0F5D06F64D019D8B0F5FF
:10171000A06F6FD00AD8B0F5806F46D0B0F5906F4B
:10172000E1D1002001A9FFF751FD3AE0B0F5B06F1B
:1017300033D0B0F5C06FD6D1002001A9FFF780FDEE
:101740002FE0B0F5006FECD00AD8B0F5E06F56D0BE
:10175000B0F5F06FC7D1002001A9FFF7F1FD20E03F
:10176000B0F5086FBFD1284BD3F8003103F0030365
:10177000022B35D0032B37D0012B39D1FFF75AFB81
:10178000032300E0052301930BE00223FBE740F273
:10179000AB411E4803F0B6F803E0002001A9FFF7B3
:1017A000EBFC019805B05DF804FB002001A9FFF7F0
:1017B000BFFCF6E702934FF0E0231B695B0705D5FA
:1017C000FFF722FB0C230393039BDCE703A902A88A
:1017D000FFF736FDF8E7002001A9FFF755FDE0E728
:1017E000FFF742FB0823CEE703F084F80723CAE79C
:1017F0000123C8E7002001A9FFF7C6FDD1E70020BB
:1018000001A9FFF773FDCCE7008000508E51000066
:101810004FF40022034B5A66012203F580439A627B
:10182000704700BF0090005070B5036804460F2B4E
:1018300004D940F646316E4803F064F863680F2B14
:1018400004D940F649316A4803F05CF8A3680F2BCD
:1018500004D940F64C31664803F054F8237B0F2B33
:1018600004D940F64F31624803F04CF8637B0F2BEC
:1018700004D940F652315E4803F044F8A37B3F2B75
:1018800004D940F655315A4803F03CF8E37B3F2B2E
:1018900004D940F65831564803F034F82369032B35
:1018A00004D940F65B31524803F02CF86369032BEE
:1018B00004D940F65E314E4803F024F8E369012B69
:1018C00004D940F661314A4803F01CF88020FFF744
:1018D000EBFE032800F082804FF40022454B0221EA
:1018E0005A6645F60E03444AC2F88030434B99626B
:1018F000012103F580539962936DD903FCD4D4E997
:1019000000131B0543EA0163E17B94F822500B436B
:10191000217B94F8236043EA0143617B43EA01336E
:10192000A17B43EA811313619169D4E904031B0687
:1019300043EA806301F000410B43A17EE07E0B434C
:10194000217E43EA0143617E43EA01239361E36917
:10195000126A002B0CBF0021082122F00D0242EA7E
:10196000030242EA8002244B42EA01021A6294F81E
:1019700020204FEA421232D1986A94F8211020F0C8
:10198000330042EA0112024342F001029A621C4A09
:10199000996D32EA0101FBD1022218498A621A6567
:1019A0009A6D5200FCD41869A26820F4700040EAD5
:1019B00002504FF000421861104B9A611DB902228B
:1019C00003F580539A6216B901220E4B9A6294F87D
:1019D00024301BB1084B0C4AC3F8802070BD996AB3
:1019E00021F0330131430A4342EA4502EEE700BFEA
:1019F0008E5100000090005000C0005000D00050F8
:101A00000300014000E00050F1A7FFFF014B93F9F4
:101A1000000070471A1D002010B543680446072BCC
:101A200004D940F67C512A4802F06CFFA368032BCE
:101A300004D940F67E51264802F064FF2378032B38
:101A400004D94FF45861224802F05CFF94F9013048
:101A5000002B04DA40F682511D4802F053FF4FF488
:101A600080011C4A637851664FF4D151022002F57F
:101A7000B832516218494F2B48604FF0010028BF1F
:101A80004F2301F5805148601169C903FCD42178C6
:101A900043EA01235361D4E901131B0143EA012303
:101AA000617B0B43217B43EA41039360E37BA17B92
:101AB0001B0143EA4113617C0B43217C43EA410350
:101AC0005360A37C13B16FF4D153536210BD00BFB8
:101AD0008E5100000090005000100250014B188001
:101AE000704700BFA6100020014B1880704700BF50
:101AF000A410002010B5B0F5207F65D00ED8B0F549
:101B0000007F4FD003D800B3B0F5C07F1DD040F2A6
:101B1000FF21BDE81040344802F0F4BEB0F5607F0C
:101B2000F5D14C1E012C06D9042904D040F2E22143
:101B30002D4802F0E7FE2D4AD2F8803023F0300322
:101B400043EA0413C2F8803010BD102901F1FF34BC
:101B500004D8274B23FA01F1CB0704D440F2B62175
:101B6000214802F0CFFE02F0DAFE02F0E6FE4FF46A
:101B70008031204B1D4A1967136F23F4704343EAE9
:101B800004331367FFF740F90446FFF7C5FAC0F1C5
:101B90000201204602F0CBFE00F03EF8BDE8104006
:101BA000FFF772BD4C1E1F2C04D940F2F3210E48E2
:101BB00002F0A8FE0D4BD3F8901021F0F85141EA45
:101BC0000461C3F89010BFE74C1E012C04D940F209
:101BD000F921054802F096FE044B196F21F480614B
:101BE00041EA84211967AFE78E5100000080005060
:101BF000160101000090005008B50121022000F0FC
:101C000027F802F08CFE02F098FE4FF48032014B70
:101C10001A6708BD0090005008B54FF4C070FFF778
:101C200069FCBDE80840044988428CBF02210121BB
:101C30004FF42070FFF75EBF80F0FA02034A01798B
:101C4000D36E23F030030B43D3667047004000503F
:101C50002DE9F0410446264BD3F88420D006FBD46E
:101C6000D3F88430C3F381139C423ED0FFF7B2F81F
:101C7000012C05460BD11F4B984204D940F2477105
:101C80001D4802F03FFE0121284602F050FE02F0FE
:101C90006EFE4FF00072194B07465A66204602F05E
:101CA00076FE4FF48063124E621E9340DFF8488048
:101CB0003367736E9A0103D4D6F884309B060AD535
:101CC000384602F058FE022C0FD12846BDE8F041FC
:101CD000002102F02CBED6F884309906E9D540F2F6
:101CE0005571404602F00EFEE3E7BDE8F08100BF0B
:101CF00000400050005A6202D951000000600050BC
:101D000007B518B90191FFF765F80199064B1B78E3
:101D100043B1064B984205D8012003B05DF804EBAF
:101D2000FFF796BF0220F8E71B1D0020005A620251
:101D300038B54FF000420121274B5A6603F50C23BA
:101D400059604AF6CD33254A556C13640D4048BBA3
:101D500094680C4009D0224B224C9960D36ADB076F
:101D600010D4A0420CD14FF0FF3401221C4B5A601A
:101D700015B11A4B1C4A1A6402F00AFE204638BDFF
:101D80000130EBE7A0424FF0FF3418BF0024ECE72E
:101D90000131D36A13F0080307D08142F8D16FF004
:101DA0000104E5E700210F48F3E78142F7D0202145
:101DB0000B4A51620121A2F5805291600749094AFC
:101DC000486A800603D49342E9D00133F8E793428E
:101DD000E5D00024CCE700BF00900050004009503F
:101DE0000060095040420F003254FFFF38B54FF0F9
:101DF0000042194B194C5A66012203F50C235A6014
:101E00004AF6CD33656C2364437815409340134301
:101E1000134AD363A368827823F0740343EA02135E
:101E2000C278002A14BF042200221343A36002795F
:101E3000837943EA022323614279C37943EA022387
:101E400063610078FFF774FF0DB1064B236402F065
:101E50009FFD012038BD00BF009000500040095098
:101E6000004000503254FFFF38B50D460446D8B14B
:101E700001281CD002281CD0032803D10C23EB40DE
:101E8000DB0704D440F22D410B4802F03BFD30202B
:101E9000012141F21003444304F1A04401FA05F585
:101EA00004F57034E55038BD40F2FF13E7E71F2317
:101EB000E5E7FF23E3E700BF4251000038B50D46D8
:101EC0000446D8B101281CD002281CD0032803D115
:101ED0000C23EB40DB0704D440F2FE310B4802F048
:101EE00011FD3020012142F21003444304F1A044CB
:101EF00001FA05F504F57034E55038BD40F2FF13E2
:101F0000E7E71F23E5E7FF23E3E700BF42510000B7
:101F1000F8B50D4616461F46044660B301282DD07D
:101F200002282DD0032803D10C22EA40D30704D481
:101F30004FF4B0711B4802F0E5FC26B1294620465B
:101F400007B3FFF791FF04EB4403072D4FF00F0198
:101F50004FEA031319D8A80006FA00F2814012488C
:101F6000184402F016FDE6B929462046AFB1BDE897
:101F7000F840FFF779BF40F2FF12D6E71F22D4E7FF
:101F8000FF22D2E7FFF79AFFDDE7A5F10800800006
:101F900006FA00F281400548E2E7BDE8F840FFF7A5
:101FA0008DBFF8BD2452000004C003500CC0035084
:101FB000F8B506460C4615469ABB40F20F11BDE82F
:101FC000F8402F4802F09EBC2E4B9E4201D12F209C
:101FD0003DE040F229112A4802F094FC3AE0032F38
:101FE00042D0294B3CE06FEAC50505442C44B4FBC4
:101FF000F0F4013C0AD540F27511214802F082FC50
:102000004FF4BB711E4802F07DFC02E0B4F5007F86
:10201000F6D2B3689B0702D5002C08BF0124B46137
:10202000F8BD03F00307836823F44073836002F074
:102030009EFCB26882EA072303F440735340B36006
:1020400002F099FC34B9114B9E42BDD12E20FFF70E
:1020500051FA0446B3689A07C1D5032F04D00C4B3C
:1020600053F827309C4204D84FF4AF71044802F073
:1020700049FC084BD85D6843B5D140F26F119EE72B
:102080007052000000800650C85200000000015A43
:10209000BC520000D452000038B50B4B04469842A5
:1020A0000D4607D0094B984204D040F28F110848E2
:1020B00002F028FC043425B104F580540123236088
:1020C00038BD04F50054F9E70000015A00800650BD
:1020D0007052000038B5154B044698420D4607D0A3
:1020E000134B984204D04FF4D271124802F00AFC0C
:1020F0000023114A236404F50053DA636A7804F17B
:1021000008037AB903F5805302221A602046D5E904
:1021100001122B7BFFF74CFF20462978BDE83840A1
:10212000FFF7BABF03F50053EEE700BF0000015A06
:102130000080065070520000FFFF1F002DE9F84399
:10214000894B98420BD0894B984226D0884840F260
:10215000FB1102F0D7FB6FF00300BDE8F883854B5D
:10216000402505264FF000084FF0030C996800F554
:102170000054C26B12F4C06F15D097050FD5FD2225
:102180005A7009221A700022026493F90110012981
:1021900000D15A7093F90100DFE7774BE0E756056D
:1021A000EFD5FE22ECE71F78082F00F2D880DFE899
:1021B00017F009001F0041004C00690074009600F0
:1021C0009E00CD004C880A88E5060AD5120A02F066
:1021D000060242F0F002012119704263C160012041
:1021E000BBE702F0FE02A10748BF42F00102F2E79E
:1021F000170607D5802100F50052D1634FF608720B
:102200001A8062E05206EAD54A88E563D70604D50B
:1022100002221A700B784363E1E7920765D5072223
:102220001A701B7901EBC3010B89012BD7D108234D
:10223000C360D4E71706DDD45206D0D54A88E563DB
:10224000970752D583F800C093E74C880A88E506C3
:1022500043BF120A02F0060242F0F00202F0FE0250
:10226000640709D51C7942F0010201EBC401098918
:10227000012904BF0821C160042119700123C36032
:102280004263ACE71706B5D45706A8D54A88E5637C
:1022900052072AD507221A70A1E71A795F8801EB45
:1022A000C20EBEF80890B94511D80132D2B21A71E7
:1022B0004F88A3F8028017F0040FC3D1FF0702D4A0
:1022C000012A7FF656AF08221A700223B0E7DEF823
:1022D0000420791C5980D25D42630622DBE7170691
:1022E00088D457067FF57BAFE5631E7041E79406FF
:1022F0007FF575AF456A214C46691A793440B4F5CB
:10230000003F04BF466A4FF4005601EBC20100F5DE
:1023100000540A8908BFE6632026E6635C88A2426F
:1023200081BF4968661C5E800D5559888A42CAD9AA
:102330000424012AC46004D9013A914201D108223F
:10234000C2601A78092A3FF41EAF48E7D2057FF52C
:1023500046AF4FF4807100F50052D16311E74FF69C
:1023600009321A800FE700BF0000015A00800650B2
:1023700070520000D81C0020E41C00202000020045
:1023800038B5284B044698420D4644D0264B984217
:102390003ED040F25E31254802F0B4FA002D3DD126
:1023A00040F25F31214802F0ADFA1E4B9C4228D129
:1023B0001F4B2269D00744BF2022E2606A88910740
:1023C00001D5298951B3520701D52A8A32B34FF476
:1023D00080721A6000229D601A71C023E3606369F5
:1023E000DB0513D4202204F50053DA63114A20469A
:1023F000DA63236C43F4FC632364BDE83840FFF7E1
:102400009DBE094B9C4209D10B4BD2E7636AE6E7BC
:102410000029F9D1C4E70029CAD1C1E76FF0030050
:1024200038BD00BF0000015A008006507052000005
:10243000D81C0020FFFF1F00E41C002038B5022834
:1024400005460C4603D94C210C4802F05BFAE378B0
:10245000627821785B0143EA820322790B4343EAE5
:1024600002130C226A4302F1B0421363012902BF36
:10247000A278034B43F8252038BD00BFD852000096
:10248000E880035008B54FF0B0435A6802B960B114
:102490005B680BB102F08FFA4FF0B04130B1012010
:1024A000074B586002F087FAC86008BD02F083FA53
:1024B0000223CB6002F07FFA0122024B5A60F4E75C
:1024C000001000580020005870B54FF0B0435B6812
:1024D0000BB102F070FA0121104B457859608378F6
:1024E0000679002BC37814BF02240024002B14BFEC
:1024F000042200224379DB0043EA06132B432343E3
:1025000013434FF0B0429360054B59600378002BA2
:1025100014BF0B460223D36070BD00BF00200058DB
:1025200000100058024B1868C0F30740704700BF06
:102530000080E00F07B56B46054A1068516803C379
:102540006846FFF753FC002003B05DF804FB00BFB2
:102550002453000013B50024064A6846536F43F025
:102560000103536700948DF80440FFF767FB204692
:1025700002B010BD0040005030B58BB06C46174D16
:102580000FCD0FC40FCD0FC495E8030084E80300FE
:10259000134BD3F84C21120318D4D3F85041E4B2B2
:1025A0008DF81940FFF732FA204480F308008DF8C7
:1025B00018000C48FEF744FC6846FFF735F94FF465
:1025C000FA70FFF791FA00200BB030BD064B1C8863
:1025D0004FF6FF739C4208BF8C24E1E72C530000A8
:1025E0000080E00F00F049020001E00F30B587B035
:1025F000084D01AC0FCD0FC42B6801A8236019232F
:102600008DF80530FFF708FA6420FFF767FA00201D
:1026100007B030BD5453000010B56FF004025021D4
:102620000A480B4C12F0800FD3B21BBF03F00F030C
:10263000043BA3181B1802F101020CBF83F800131E
:102640001976402AEED1002010BD00BF00ED00E059
:1026500000E100E010B5044602F089F9024B1C606D
:1026600002F089F9002010BDF01C002010B502F026
:102670007EF9034B1C6802F07EF9204610BD00BFB6
:10268000F01C002010B50020144602F09CF918B18F
:10269000BF21024802F036F9204610BD6853000001
:1026A00013B5002301241A4619461846009400F079
:1026B00065FE002300941A461946184600F08EFE67
:1026C0000248FFF7C7FF002002B010BD281000200D
:1026D000034B0222186800238068194601F012BDDE
:1026E0004010002010B5002002F00DF9044610B98A
:1026F0000248FFF7AFFF204610BD00BF3410002096
:1027000030B50F4C41612368ABB92060836011E0A4
:10271000891A9A681D4641612AB113465A698A424C
:10272000F6D955B11A461346A860836013B15A69A9
:10273000511A596130BD0025F0E72060F5E700BF70
:10274000001D002010B502F0D7F90A4C0A4B196899
:102750002368C31A01B10BB9206010BD4A699A42BF
:102760003ABF9B1A0022D21A4A6128BF0023896807
:10277000F0E700BFF41C0020001D002038B5134D09
:102780002B685B6993B1124A022014681C4402F062
:10279000BAF9204600F0E8F900230E492A680B70C8
:1027A000D088800709D501230B7038BD022002F0C4
:1027B000AAF9022000F022FAEEE79268002AF4D08B
:1027C00050690344012BEBD9EFE700BF001D002047
:1027D000F41C00201D1D002070B516469DF8142025
:1027E000C0E903360271049ABDF818300260002275
:1027F00004460D468260C38006BB02F07DF9284482
:10280000A0613DB9E368656113B12046216898472E
:1028100096B1354602F0ABF80646FFF793FF29461E
:102820002046FFF76DFF074B1B68A34201D1FFF75E
:10283000A5FF304602F09FF8002070BD02F05CF961
:102840003044DDE7001D002000220C490B687BB1FD
:1028500083420AD183687AB1936083681BB15A6955
:1028600041690A445A61002070471A469B68EEE7A6
:102870000028EFD0022070470B60EEE7001D00201B
:1028800070B502F07BF8144E05463478FCB9134B52
:102890001C60134B1C60134B1C8000F021F90120BD
:1028A00002F031F902F03BF90F4B0246186020B9F3
:1028B000284602F069F8232070BD234640F2E73134
:1028C0000A4801F057FA0A4B186001233370284672
:1028D00002F05AF80020EFE71C1D0020001D002028
:1028E000F41C0020101D0020FC1C002018FCFFFF21
:1028F000F81C002038B50C46054698B191B100236C
:102900000B7002F03BF80121074B1B680BB12278DA
:102910001AB102F039F8002038BDAB4214BF9B68F1
:102920002170F3E72220F7E7001D002038B540F2C0
:10293000E7340021054B4FF47A721D680023E5FB54
:102940000041204601F016FA38BD00BFFC1C0020F3
:1029500000B58DB001238DF80F30FFF7E7FF00239E
:102960000146CDE90033074A0DF10F0304A802F038
:102970009DF818B99DF80F30002BFBD10DB05DF814
:1029800004FB00BFA74A00002DE9F84FC207044628
:102990000BD54F4A138801339BB21380FFF7D2FE49
:1029A0004C4B1B680BB1FFF7E9FEA30740F18E808B
:1029B00001F0E4FF4FF0000A05465646FFF7C2FE5D
:1029C000D046444FDFF814913C680CB163698BB179
:1029D0000022414B012E1A7003D11AF0020F18BFCA
:1029E0001E70002C62D0FFF7C9FE2846BDE8F84FE4
:1029F00001F0CABF23461A792179914288BF1C464B
:102A00009B6813B15A69002AF5D0284601F0BCFF33
:102A1000D4F810A0BAF1000F4CD002F06DF8A26902
:102A2000851AEB17AA4578EB030344DA23691344AC
:102A30000122A36123691BB312BBEB17BAEB050597
:102A400063EB4303002B04DA40F22151484601F0C6
:102A500059FFA38B33B1E28B13449BB2B3F57A7F5A
:102A60001CD2E38301F08AFF824629462046FFF705
:102A700047FEA369226950461344A36101F084FF15
:102A8000E368B4F806A0013613B1204621689847E0
:102A900001F074FF0546FFF755FE95E7A3F57A733D
:102AA000E383A369013D013BA361DBE7022000F062
:102AB0008DF89AE7554601F061FF83462046FFF7FF
:102AC000C3FE584601F060FF0022B3E7BDE8F88F6F
:102AD000101D0020001D00201E1D0020D2530000EC
:102AE0001FB500241D4B012118689A880290D3F865
:102AF00006009B7A00903E20ADF80C208DF8043043
:102B0000FEF7CEFC8DF8084001F0F4FF8DF80C00C4
:102B100002A8FFF7D9FC694601208DF80040FFF7B5
:102B20008DFC4FF0B04240F2FF31936923F47F7384
:102B300023F0030393610A4B5961936A13F008036E
:102B4000FBD113620120FFF79DFC4FF48052054B2F
:102B5000C3F880211A6004B010BD00BF31540000DA
:102B60000020005800E100E010B5044601F0FFFE2F
:102B70004FF0B042936A1907FCD4136A116C526982
:102B8000520604D4CA1A032A01D88B420ED1E21A83
:102B9000022A98BFDC1CB4F1FF3F38BF013C4FF064
:102BA000B0431C649A6942F040029A6101F0E3FE6E
:102BB000054A13783BB14FF0B041CB6B43F00203B1
:102BC000CB630023137010BDAB100020820700F010
:102BD00001030AD50121084A43F0400311704FF068
:102BE000B041CA6B22F00302CA634FF0B0418A6958
:102BF00022EA03038B617047AB100020830742BFBA
:102C00004022014B5A6170470010005810B501F086
:102C1000B5FE4FF0B04304465B695A06074A03F01D
:102C2000010003F0510348BF40F002005361FFF779
:102C3000ABFE2046BDE8104001F0A6BE00200058C3
:102C400010B50446FEF7E0F84FF47A729042B0FBFC
:102C5000F2F105D23621BDE810400C4801F052BE19
:102C60000B4BB3FBF1F30B49884201D93C21F2E74E
:102C700002FB04F0B0FBF3F0022806D9BDE81040D7
:102C80000323B0FBF3F0FDF75BBA10BD3C5400002A
:102C900040420F00E7CD9A3B2DE9F04F91B00A93E7
:102CA000BB4B0029904614BF8146994600251A9EC9
:102CB0000A9B187868B9454538BF2A4643464FF005
:102CC000000028BF08F1FF32C847284611B0BDE810
:102CD000F08F0A9B252803F101030A9306D02A46A8
:102CE00043466C1C0B91C8472546B6E1002206E01E
:102CF0002D2B14D0302B0CD142F001020A900A98EF
:102D000010F8013B2B2B0DD0F2D8202B0DD0232B0C
:102D10000ED0A3F13004092C28D8002710E042F08F
:102D20000202EBE742F00402E8E742F00802E5E7BE
:102D300042F01002E2E70A2404FB07370A90303F12
:102D40000A9810F8013BA3F13004092CF3D90A9B2F
:102D50001B782E2B67D10A9B42F48062581C5B784B
:102D6000A3F13004092C55D8002411E02A2B08D1F6
:102D700056F8047B0A90002FBCBF42F002027F424B
:102D8000E5E70027E3E70A2000FB04346046303C17
:102D900084461CF8013BA3F1300EBEF1090FF2D9B5
:102DA000034613F801CBBCF16C0F48D03ED8BCF100
:102DB000680F4DD0BCF16A0F55D0034613F8010BD4
:102DC00078280A938BD8572850D8452805D086D91B
:102DD000462800F02F81472881D100F0DF03472BE0
:102DE00004BF00F0FD0042F40062452808BF42F035
:102DF0002002CDE90372073626F007060294F6E8B2
:102E000002234846CDE9002343462A460B91FDF7AD
:102E10009BF921E12A2B07D156F8044B0A9824EAA2
:102E2000E4740230BCE70A980024B9E7BCF1740FDF
:102E300002D0BCF17A0FC0D142F48072BEE790F8A4
:102E400001C0BCF16C0FF7D142F44072831CB5E7AE
:102E500090F801C0BCF1680F02D042F08002ADE7EB
:102E600042F0C002F2E742F40072A7E7A0F1580373
:102E7000202B3FF634AF0FF2080C5CF823F000BFB4
:102E8000052F0000DF2C0000DF2C0000DF2C0000ED
:102E9000DF2C0000DF2C0000DF2C0000DF2C000006
:102EA000DF2C0000DF2C0000052F00005F30000049
:102EB000052F0000DB2D000039300000DB2D000065
:102EC000DF2C0000052F0000DF2C0000DF2C0000AD
:102ED000DF2C0000DF2C0000DF2C0000052F00009D
:102EE000A7310000DF2C0000DF2C0000DB300000E9
:102EF000DF2C0000052F0000DF2C0000DF2C00007D
:102F0000052F0000782800F06481582800F05F81C8
:102F10006F2800F06081622800F05F8169284FF01F
:102F20000A0322F0100203D0642801D022F00C0220
:102F300012F4806F18BF22F00102692802F4007CAD
:102F400001D0642841D1BCF1000F23D0073626F010
:102F50000706B24676685AF8080B049300230593D7
:102F6000F30F002E0293CDE907720346069402DAAE
:102F7000434266EB4606CDE9003643462A464846BC
:102F80000B9101F0F9FE054656460B9990E600BFFD
:102F9000634B0000D00506F1040A0CD53068CDE97A
:102FA0000472CDE9023400284FEAD0730193B8BF10
:102FB0004042009027E012F0400F306801D0C0B2CC
:102FC000EDE7160648BF00B2E9E7BCF1000F0ED0EE
:102FD000CDE907720022CDE90432073626F0070A50
:102FE00006940292FAE80223CDE90023C5E7D00552
:102FF00006F1040A0ED5CDE90472CDE90234CDF80C
:1030000004C03368009343462A4648460B9101F0BA
:1030100071FEB8E712F0400F306807D0C0B2CDE9BA
:1030200002340023CDE904720193C2E7160648BFBB
:1030300080B2F4E742F02002CDE90372073626F0B1
:1030400007060294F6E802234846CDE900234346EA
:103050002A460B91FDF75CFA05460B9928E612F01B
:10306000020426D04FF0010A56F8040B0B91434698
:103070002A46C0B2C84705F1010B0B995CB3544610
:103080005A4620E00B9143462020C8470B990AEB93
:1030900005020AF1010A5745F4D8002F07F1FF3362
:1030A00008BF002307F1010A1D4408BF4FF0020AC0
:1030B000DAE7A246EBE7551C0B9143462020C847B0
:1030C0002A460B990134BC42F5D3A7EB0A035745B6
:1030D00038BF00239B445D46EAE5334653F804AB12
:1030E000002C0B9314BF23464FF0FF33D3465344B9
:1030F0009BF8000008B19B4511D112F48063ABEB43
:103100000A0B0C9302D0A34528BFA34612F002037A
:103110000D931BD1ABEB05032A460E9309E00BF18F
:10312000010BE5E7561C0F9143462020C847324665
:103130000F990E9BD3189F42F4D8A7EB0B035F4562
:1031400038BF00230BF1010B1D449B445646A5EBF1
:103150000A0A05E01C460E9143462A46C8470E99C6
:103160000AEB060516F8010B28B10C9B002BF2D0D8
:10317000631E002CEED10D9B9BB12A46ABEB0504E0
:1031800006E0561C0C9143462020C84732460C9955
:103190001319BB42F5D3A7EB0B035F4538BF0023E0
:1031A0001D440B9E84E5082342F02102CDE9034330
:1031B000059200231022CDE9013256F8043B2A463D
:1031C0000093484643460B9101F094FD44E742F0DA
:1031D00020021023AAE60823A8E60223A6E600BFE1
:1031E0000FB41FB506AA52F8043B02A9039200923D
:1031F00004484FF0FF32FFF74FFD05B05DF804EBD8
:1032000004B070472F4E000010B5124CA8220021C8
:10321000204601F07DFE03230F492361636104F121
:10322000A803A1614FF48062E36100232262A362DC
:103230006362E362216604F595616166A266074AEE
:103240002367E366636712F80119E1540133102B19
:10325000F9D110BD00140020F854000010550000F2
:103260002DE9F84FDFF87C80824698F800308946D7
:1032700016460BB9FFF7C8FF182707FB0A873D6FF3
:10328000D7F86CB05D452BD9BC6E796E641BB44227
:1032900028BF344648462944224601F02CFEBB6E26
:1032A0002544AB4208BF0025A144361BABEB050209
:1032B000964228BF164656B1182303FB0A83596E5F
:1032C00032462944484601F016FE3444354424B1C0
:1032D000182000FB0A88C8F870502046BDE8F88F17
:1032E0000024E3E70014002070B5182400FB044517
:1032F000144B16461D4404FB0033DC6A012C0ED02F
:10330000022C18D0E4B9284601F099FD864204D871
:103310003246284601F09CFD3446204670BD2846C2
:1033200001F08DFD8642344628BF044628462246D9
:1033300001F08EFDF1E72846BDE8704001F0A4BD24
:103340000024EAE70014002037B50B4B0C461B782D
:103350002BB9CDE90002FFF757FFDDE90002EFF3DB
:1033600011854FF0200181F311882146FFF7BCFF42
:1033700085F3118803B030BD001400202DE9F04121
:10338000154C1E4623780546884617460BB9FFF7AD
:103390003BFF022D1DD8EFF3118C4FF0200181F37C
:1033A000118865B1182005FB000344F80380E2187A
:1033B0000023576000FB0542166293625362182097
:1033C00000FB0544069BE3628CF311880020BDE8F6
:1033D000F0814FF0FF30FAE7001400202DE9F843A8
:1033E000144E1F4633780546894690460BB9FFF7C1
:1033F0000BFF022D1BD8EFF311824FF0200181F358
:10340000118855B11824002304FB0564C4F86090AA
:10341000C4F86480A7662367E366182000FB05658F
:10342000089B6B6782F311880020BDE8F8834FF09A
:10343000FF30FAE70014002081F0004102E000BFF5
:1034400083F0004330B54FEA41044FEA430594EA64
:10345000050F08BF90EA020F1FBF54EA000C55EA9F
:10346000020C7FEA645C7FEA655C00F0E2804FEA70
:103470005454D4EB5555B8BF6D420CDD2C4480EA52
:10348000020281EA030382EA000083EA010180EA82
:10349000020281EA0303362D88BF30BD11F0004FD0
:1034A0004FEA01314FF4801C4CEA113102D0404206
:1034B00061EB410113F0004F4FEA03334CEA133341
:1034C00002D0524263EB430394EA050F00F0A78059
:1034D000A4F10104D5F1200E0DDB02FA0EFC22FA54
:1034E00005F2801841F1000103FA0EF2801843FA48
:1034F00005F359410EE0A5F120050EF1200E012A39
:1035000003FA0EFC28BF4CF0020C43FA05F3C01876
:1035100051EBE37101F0004507D54FF0000EDCF1EF
:10352000000C7EEB00006EEB0101B1F5801F1BD398
:10353000B1F5001F0CD349085FEA30004FEA3C0C9C
:1035400004F101044FEA445212F5800F80F09A8092
:10355000BCF1004F08BF5FEA500C50F1000041EB96
:10356000045141EA050130BD5FEA4C0C404141EB9A
:103570000101013C28BFB1F5801FE9D291F0000F95
:1035800004BF01460020B1FA81F308BF2033A3F144
:103590000B03B3F120020CDA0C3208DD02F1140C3B
:1035A000C2F10C0201FA0CF021FA02F10CE002F176
:1035B0001402D8BFC2F1200C01FA02F120FA0CFC6F
:1035C000DCBF41EA0C019040E41AA2BF01EB0451B8
:1035D000294330BD6FEA04041F3C1CDA0C340EDCB6
:1035E00004F11404C4F1200220FA04F001FA02F3F9
:1035F00040EA030021FA04F345EA030130BDC4F1B7
:103600000C04C4F1200220FA02F001FA04F340EAAB
:103610000300294630BD21FA04F0294630BD94F05C
:10362000000F83F4801306BF81F480110134013D43
:103630004EE77FEA645C18BF7FEA655C29D094EAB4
:10364000050F08BF90EA020F05D054EA000C04BF32
:103650001946104630BD91EA030F1EBF002100201D
:1036600030BD5FEA545C05D14000494128BF41F0BC
:10367000004130BD14F580043CBF01F5801130BD20
:1036800001F0004545F0FE4141F470014FF00000AB
:1036900030BD7FEA645C1ABF194610467FEA655C5C
:1036A0001CBF0B46024650EA013406BF52EA0335FE
:1036B00091EA030F41F4002130BD00BF90F0000FEC
:1036C00004BF0021704730B54FF4806404F1320428
:1036D0004FF000054FF0000150E700BF90F0000FE1
:1036E00004BF0021704730B54FF4806404F1320408
:1036F00010F0004548BF40424FF000013EE700BFD8
:1037000042004FEAE2014FEA31014FEA02701FBF67
:1037100012F07F4393F07F4F81F06051704732F099
:103720007F4208BF704793F07F4F04BF41F40021F0
:10373000704730B54FF4607401F0004521F000414E
:103740001CE700BF50EA010208BF704730B54FF0D8
:1037500000050AE050EA010208BF704730B511F0D9
:10376000004502D5404261EB41014FF4806404F111
:1037700032045FEA915C3FF4D8AE4FF003025FEA97
:10378000DC0C18BF03325FEADC0C18BF033202EB1B
:10379000DC02C2F1200300FA03FC20FA02F001FA75
:1037A00003FE40EA0E0021FA02F11444BDE600BF18
:1037B00070B54FF0FF0C4CF4E06C1CEA11541DBFC7
:1037C0001CEA135594EA0C0F95EA0C0F00F0DEF892
:1037D0002C4481EA030621EA4C5123EA4C5350EA77
:1037E000013518BF52EA033541F4801143F48013C8
:1037F00038D0A0FB02CE4FF00005E1FB02E506F059
:103800000042E0FB03E54FF00006E1FB03569CF0AD
:10381000000F18BF4EF0010EA4F1FF04B6F5007FB3
:1038200064F5407404D25FEA4E0E6D4146EB060625
:1038300042EAC62141EA55514FEAC52040EA5E50AE
:103840004FEACE2EB4F1FD0C88BFBCF5E06F1ED858
:10385000BEF1004F08BF5FEA500E50F1000041EB8F
:10386000045170BD06F0004646EA010140EA02003C
:1038700081EA0301B4EB5C04C2BFD4EB0C0541EA5E
:10388000045170BD41F480114FF0000E013C00F373
:10389000AB8014F1360FDEBF002001F0004170BD97
:1038A000C4F10004203C35DA0C341BDC04F11404B0
:1038B000C4F1200500FA05F320FA04F001FA05F23C
:1038C00040EA020001F0004221F0004110EBD37009
:1038D00021FA04F642EB06015EEA430E08BF20EA35
:1038E000D37070BDC4F10C04C4F1200500FA04F3D8
:1038F00020FA05F001FA04F240EA020001F000416A
:1039000010EBD37041F100015EEA430E08BF20EADC
:10391000D37070BDC4F1200500FA05F24EEA020E24
:1039200020FA04F301FA05F243EA020321FA04F053
:1039300001F0004121FA04F220EA020000EBD3700A
:103940005EEA430E08BF20EAD37070BD94F0000F0A
:103950000FD101F00046400041EB010111F4801F3E
:1039600008BF013CF7D041EA060195F0000F18BFEF
:10397000704703F00046520043EB030313F4801F2B
:1039800008BF013DF7D043EA0603704794EA0C0FE5
:103990000CEA135518BF95EA0C0F0CD050EA4106FB
:1039A00018BF52EA4306D1D181EA030101F0004178
:1039B0004FF0000070BD50EA410606BF10461946A0
:1039C00052EA430619D094EA0C0F02D150EA0136AC
:1039D00013D195EA0C0F05D152EA03361CBF1046ED
:1039E00019460AD181EA030101F0004141F0FE418C
:1039F00041F470014FF0000070BD41F0FE4141F410
:103A0000780170BD70B54FF0FF0C4CF4E06C1CEA0F
:103A100011541DBF1CEA135594EA0C0F95EA0C0FC4
:103A200000F0A7F8A4EB050481EA030E52EA03357F
:103A30004FEA013100F088804FEA03334FF08055A0
:103A400045EA131343EA12634FEA022245EA1115CD
:103A500045EA10654FEA00260EF000419D4208BF7E
:103A6000964244F1FD0404F5407402D25B084FEA2B
:103A70003202B61A65EB03055B084FEA32024FF4D7
:103A800080104FF4002CB6EB020E75EB030E22BF34
:103A9000B61A754640EA0C005B084FEA3202B6EBF4
:103AA000020E75EB030E22BFB61A754640EA5C00A3
:103AB0005B084FEA3202B6EB020E75EB030E22BF33
:103AC000B61A754640EA9C005B084FEA3202B6EB34
:103AD000020E75EB030E22BFB61A754640EADC00F3
:103AE00055EA060E18D04FEA051545EA16754FEA55
:103AF00006164FEAC30343EA52734FEAC2025FEA73
:103B00001C1CC0D111F4801F0BD141EA00014FF001
:103B100000004FF0004CB6E711F4801F04BF0143D2
:103B20000020B4F1FD0C88BFBCF5E06F3FF6AFAEEE
:103B3000B5EB030C04BFB6EB020C5FEA500C50F17E
:103B4000000041EB045170BD0EF0004E4EEA113101
:103B500014EB5C04C2BFD4EB0C0541EA045170BD08
:103B600041F480114FF0000E013C90E645EA060E4C
:103B70008DE60CEA135594EA0C0F08BF95EA0C0F7A
:103B80003FF43BAF94EA0C0F0AD150EA01347FF4C2
:103B900034AF95EA0C0F7FF425AF104619462CE799
:103BA00095EA0C0F06D152EA03353FF4FDAE1046FC
:103BB000194622E750EA410618BF52EA43067FF44D
:103BC000C5AE50EA41047FF40DAF52EA43057FF4DD
:103BD000EBAE12E74FF0FF3C06E000BF4FF0010CE8
:103BE00002E000BF4FF0010C4DF804CD4FEA410C4C
:103BF0007FEA6C5C4FEA430C18BF7FEA6C5C1BD019
:103C000001B050EA410C0CBF52EA430C91EA030F99
:103C100002BF90EA020F0020704710F1000F91EAF6
:103C2000030F58BF994208BF90422CBFD8176FEAC4
:103C3000E37040F0010070474FEA410C7FEA6C5C92
:103C400002D150EA013C07D14FEA430C7FEA6C5C99
:103C5000D6D152EA033CD3D05DF8040B704700BFC5
:103C60008446104662468C461946634600E000BF13
:103C700001B5FFF7B7FF002848BF10F1000F01BDE5
:103C80004DF808EDFFF7F4FF0CBF012000205DF8B0
:103C900008FB00BF4DF808EDFFF7EAFF34BF012035
:103CA00000205DF808FB00BF4DF808EDFFF7E0FFCE
:103CB00094BF012000205DF808FB00BF4DF808ED1F
:103CC000FFF7CEFF94BF012000205DF808FB00BF86
:103CD0004DF808EDFFF7C4FF34BF012000205DF868
:103CE00008FB00BF4FEA410212F5001215D211D5B0
:103CF0006FF47873B3EB625212D94FEAC12343F0E9
:103D0000004343EA505311F0004F23FA02F018BF6A
:103D1000404270474FF00000704750EA013005D133
:103D200011F0004008BF6FF0004070474FF00000F6
:103D3000704700BF4A0011D212F5001211D20DD502
:103D40006FF47873B3EB62520ED44FEAC12343F0A1
:103D5000004343EA505323FA02F070474FF000004B
:103D6000704750EA013002D14FF0FF3070474FF0FA
:103D70000000704753B94AB9002908BF00281CBF8A
:103D80004FF0FF314FF0FF3000F082B9ADF1080C79
:103D90006DE904CE00F006F8DDF804E0DDE9022369
:103DA00004B070472DE9F04F099D04460F46002BE3
:103DB00048D18A42944661D9B2FA82F343B1C3F141
:103DC00020019F4002FA03FC9C4020FA01F10F43BE
:103DD0004FEA1C411FFA8CFE220CB7FBF1F601FBE7
:103DE000167706FB0EF042EA0742904208D91CEB18
:103DF000020206F1FF3702D2904200F237813E46BE
:103E0000121AA4B2B2FBF1F001FB102200FB0EFE6D
:103E100044EA0244A64508D91CEB040400F1FF3231
:103E200002D2A64500F21C81104640EA0640A4EBEF
:103E30000E0400261DB1DC400023C5E900433146D5
:103E4000BDE8F08F8B4209D9002D00F0FD800026DF
:103E5000C5E9000130463146BDE8F08FB3FA83F67C
:103E6000002E4BD18B42C0F0F280824240F2EF80B4
:103E70003046002DE3D0C5E90047E0E702B9FFDE98
:103E8000B2FA82F3002B40F09D80891A4FEA124E5D
:103E900097B20126200CB1FBFEF20EFB121140EA94
:103EA000014107FB02F088420FD91CEB010102F12E
:103EB000FF382CBF4FF001094FF00009884203D9A9
:103EC000B9F1000F00F0CF804246091AA4B2B1FB4D
:103ED000FEF00EFB101100FB07F744EA0144A74275
:103EE00008D91CEB040400F1FF3102D2A74200F212
:103EF000B4800846E41B40EA02409BE7C6F1200775
:103F0000B34001FA06F422FA07FCF940B2404CEA49
:103F1000030C20FA07F34FEA1C491C431FFA8CFEDE
:103F200000FA06F3200CB1FBF9F809FB181140EA7E
:103F3000014108FB0EF088420FD91CEB010108F18A
:103F4000FF3A2CBF4FF0010B4FF0000B884203D912
:103F5000BBF1000F00F08D80D046091AA4B2B1FB6E
:103F6000F9F009FB101100FB0EFE44EA01418E45F9
:103F700007D91CEB010100F1FF3401D28E457FD837
:103F8000204640EA0840A1EB0E01A0FB0298414503
:103F90004C46C64602D306D14B4504D20138B9EB94
:103FA000020468EB0C0E002D70D01A1B61EB0E01A1
:103FB00022FA06F301FA07F7F14000261F43C5E98C
:103FC00000713CE702FA03FCC3F1200001FA03F29E
:103FD00021FA00F64FEA1C4E24FA00F11FFA8CF782
:103FE0009C401143B6FBFEF00A0C0EFB106642EA41
:103FF000064200FB07F696420ED91CEB020200F1C6
:10400000FF382CBF4FF001094FF00009964202D94A
:10401000B9F1000F31D04046921B89B2B2FBFEF6D7
:104020000EFB162241EA024106FB07F28A4207D93B
:104030001CEB010106F1FF3801D28A4223D8464623
:10404000891A46EA004625E72E462846F7E6841AEE
:1040500061EB030301201F460BE76444023849E784
:1040600064440238E1E6023A61442EE7023E6244CB
:10407000C6E6A8F1020861446FE702386244CBE764
:10408000023861447DE7023E6144D9E72E46D6E618
:10409000704700BF08B5074B044613B1002100E08C
:1040A00000BF054B1868836A03B19847204600F0AB
:1040B000C4FC00BF000000001455000070B50D4D99
:1040C00000260D4C641BA410A64209D10B4D0026FE
:1040D0000B4C00F0C5FF641BA410A64205D170BDB7
:1040E00055F8043B01369847EEE755F8043B013696
:1040F0009847F2E7AC100020AC100020AC10002074
:10410000B01000202DE9F7431D465C4B04460E46D7
:104110001F68904627B1BB6913B9384600F0B8F95B
:10412000574B9C4267D17C68B8F1020F06D0B8F1BA
:10413000010F00F29E80002DC0F29B80636EDB07B2
:1041400005D4A389980502D4A06D00F01FFF214675
:10415000384600F01FF9616B41B104F14403994204
:1041600002D0384600F01AFA002363630023A361EB
:104170006360A389190603D52169384600F00EFA59
:10418000A389B8F1020F23F44A6323F00303A38148
:104190006BD001AB6A462146384600F0F9FEA38990
:1041A0001843A081002D30D1009D284600F0EEF983
:1041B0000646002854D1DDF80090A94549D14FF0BA
:1041C000FF350022B4F90C30A26004F1470243F03D
:1041D0000203226022610122A3816261626ED20722
:1041E00005D413F4007F02D1A06D00F0D0FE284664
:1041F00003B0BDE8F083234B9C4201D1BC6893E738
:10420000214B9C4208BFFC688EE7002ECDD0BB69D5
:1042100013B9384600F03CF9B8F1010F266002BF2F
:10422000A38943F00103A381A28912F00803C4E922
:1042300004651CD0D30745BF00236D42A560A36071
:1042400048BFA561656E15F0010515D112F4007F18
:10425000C9E7484600F09AF906460028AFD04D4617
:10426000A38943F08003A381D1E70025A9E7A360D8
:10427000E8E74FF0FF35BAE70025B8E74010002027
:104280003855000058550000185500008A892DE95E
:10429000F041054610070C4658D44B68002B05DC4E
:1042A0000B6C002B02DC0020BDE8F081E66A002EDA
:1042B000F9D0002312F480522F682B6032D0606D49
:1042C000A3895A0705D56368C01A636B0BB1236CC9
:1042D000C01A00230246E66A2846216AB047431CFA
:1042E000A38906D129681D292CD8294ACA40D60796
:1042F00028D50022D90462602269226004D5421CBC
:1043000001D12B6803B96065616B2F600029CAD0A9
:1043100004F14403994202D0284600F03FF90020FE
:104320006063C1E7216A01232846B047411CC7D119
:104330002B68002BC4D01D2B01D0162B01D12F6070
:10434000B1E7A38943F04003A381ADE70F69002FD4
:10435000A9D093070E680F600CBF4B690023A6EB32
:1043600007088B60B8F1000F9DDD43463A46216A8D
:104370002846A66AB047002806DCA3894FF0FF3024
:1043800043F04003A3818FE70744A8EB0008E9E767
:104390000100402038B50B6905460C4613B90025CD
:1043A000284638BD18B183690BB900F071F8144B79
:1043B0009C421BD16C68B4F90C30002BEFD0626EBC
:1043C000D00704D4990502D4A06D00F0DFFD284683
:1043D0002146FFF75BFF636E0546DA07E0D4A38949
:1043E0009B05DDD4A06D00F0D2FDD9E7054B9C42C2
:1043F00001D1AC68DFE7044B9C4208BFEC68DAE708
:10440000385500005855000018550000002310B51D
:1044100004468360818119464366C2810822836114
:10442000C0E90033C0E904335C3000F071FD054B96
:1044300024626362044BA362044BE362044B236374
:1044400010BD00BFDB4F0000FD4F000035500000E5
:1044500059500000014900F079BD00BF95430000AC
:10446000014800F093BD00BF201D0020014800F06E
:104470008EBD00BF201D0020014800F087BD00BF99
:10448000211D0020014800F082BD00BF211D002039
:1044900010B50446FFF7F0FFA3691BB1BDE810405B
:1044A000FFF7F0BFC4E9123323652046124B134ACD
:1044B0001B68A262A34204BF0123A36100F020F89D
:1044C0006060204600F01CF8A060204600F018F85C
:1044D00000220421E0606068FFF798FF01220921B3
:1044E000A068FFF793FF02221221E068FFF78EFF1A
:1044F0000123A361D2E700BF14550000554400001A
:10450000F8B50746FFF7ACFF1E4B1E68B36913B939
:104510003046FFF7BDFF4836D6E90134013B03D5ED
:1045200033680BB33668F7E7B4F90C50D5B9164BBE
:1045300004F158006566E36000F027FDFFF796FF81
:104540000822294604F15C002560A561C4E90155F3
:10455000C4E9045500F0DCFCC4E90D55C4E912556A
:104560002046F8BD6834D9E70421384600F0D8FC6D
:10457000044630600028D5D1FFF778FF0C233B605C
:10458000EEE700BF145500000100FFFF024B01469B
:10459000186800F06FB800BF4010002037B5002940
:1045A00043D051F8043C0C1F0190002BB8BFE41815
:1045B00000F02AF91E4A0198136833B96360146049
:1045C00003B0BDE8304000F025B9A34208D9256802
:1045D00061198B4201BF19685B6849192160EDE7D9
:1045E0001A465B680BB1A342FAD911685518A54267
:1045F0000BD12468214454181160A342E0D11C68F7
:104600005B68214453601160DAE702D90C23036030
:10461000D6E7256861198B4202BF19685B684919A2
:10462000636008BF21605460CAE703B030BD00BFBB
:10463000041D002070B50E4E0C460546316811B9B8
:1046400000F08CF830602146284600F087F8431CC3
:104650000AD0C41C24F00304A04207D0211A284623
:1046600000F07CF8013001D14FF0FF34204670BDDE
:10467000081D00202DE9F041CD1C074625F003055B
:1046800008350C2D38BF0C25002D01DBA94205D9BA
:104690000C2300263B603046BDE8F0812E4E00F032
:1046A000B3F833681C4634BB29463846FFF7C2FFCF
:1046B000431C04464DD134682646002E40D1236861
:1046C0003146384604EB030800F048F880453AD1FB
:1046D0002168033538466D1A25F0030508350C2D81
:1046E00038BF0C252946FFF7A5FF01302BD02368E2
:1046F0002B4423600EE02268521B1ED40B2A16D9CD
:104700006119A342256018BF5960636808BF316012
:1047100062514B6004F10B06384600F07BF8231D14
:1047200026F00706F21AB6D09B1BA350B3E76268C7
:10473000A3420CBF32605A60ECE723466468B2E7DC
:1047400034467668B9E70C2338463B6000F062F8DF
:10475000A1E72560DEE700BF041D002038B5002377
:10476000054D044608462B60FCF784FB431C02D130
:104770002B6803B1236038BD0C1D002038B50446FA
:10478000064D0846114600222A601A46FDF77AFFB8
:10479000431C02D12B6803B1236038BD0C1D0020DF
:1047A00038B50023054D044608462B6000F043F958
:1047B000431C02D12B6803B1236038BD0C1D0020BF
:1047C00038B50023064D0446084611462B6000F01C
:1047D00035F9431C02D12B6803B1236038BD00BFFB
:1047E0000C1D002038B50446064D0846114600222F
:1047F0002A601A4600F027F9431C02D12B6803B146
:10480000236038BD0C1D0020014800F0BFBB00BF75
:104810001F1D0020014800F0BABB00BF1F1D002073
:1048200038B50446064D0846114600222A601A464D
:1048300000F00BF9431C02D12B6803B1236038BD93
:104840000C1D0020FCF76EB908B500F072F9FCF7FA
:104850009FF900F07BF9FFF7F5FFFAE7704710B515
:1048600001213A20FCF71CFE0023022219460120F8
:10487000FDF74EFB0023042218461146FDF748FBC6
:10488000BDE810400023042202210120FDF740BBB7
:1048900008B5FCF7FFFAFFF7E2FFBDE80840FCF7B8
:1048A00009BA7047FCF712BA7047704770477047F3
:1048B00008B5FDF7F5FEBDE80840FDF713BF08B5E4
:1048C00000F008F8FDF7DCFFFDF702FFBDE8084047
:1048D000FFF7EEBF0F20704708B501213A20FCF723
:1048E000DFFDBDE80840FFF7B9BF01213A20FCF722
:1048F000D7BDFEE7002070474FF4004070474FF4EB
:104900007A707047FEE74FF060420123D2F8001E34
:1049100003FA00F00843C2F8000E0020704708B503
:10492000FCF784FABDE808400021FCF793BD00299C
:10493000CCBF01210021FCF78DBD02214FF4207076
:10494000FDF7D8B810B5FCF75FFA0446FCF7E4FBB6
:10495000C0F102012046FFF7EAFF01210020FDF728
:10496000CFF9FDF759F9BDE81040FCF78DBEEFF324
:10497000108072B6704700B962B67047EFF31180CD
:10498000302383F31188704780F311887047704794
:10499000704770B5054614460E46FFF7E8FF2968D4
:1049A00081EA040202EA06044C402C60BDE8704033
:1049B000FFF7E1BF70474FF0B0435A6812B19A6AEF
:1049C000002AFAD1704707B530B9CDE90012FDF7DA
:1049D0004DFEDDE9001230B1436823B1006803B039
:1049E0005DF804EB1847232003B05DF804FB30B5F5
:1049F00085B01C4658B9CDE90012FDF737FEDDE958
:104A0000001204B903AC20B9232005B030BD03B9AE
:104A100003AC8568002DF7D023460068A847F4E76B
:104A200007B501228DF807100DF10701FFF7CBFF45
:104A300003B05DF804FB00207047FEE74FF400531D
:104A400000204B6070470020704707B5002001AB85
:104A50000190FFF7CCFF0198002808BF4FF0FF300E
:104A600003B05DF804FB10B500201C4600F035FAD9
:104A7000002820600CBF1B20002010BD08B50020BE
:104A8000FEF762FC002008BD38B50C468D18AC421C
:104A900001D1002006E0002014F8011BFCF75AFAAF
:104AA0000028F4D038BD00230B707047F0B587B0F4
:104AB0001F4600230D46164604468DF81730A8B150
:104AC000C3610DF11701FDF715FF9DF817207AB9A5
:104AD000BDF83430294602939DF830302046CDE9A8
:104AE00000733346FDF778FE07B0F0BD2220FBE7E8
:104AF0000320F9E7002070474FF0B0439A6A12078D
:104B0000FCD4186A704782074FF0B04200F00103EE
:104B1000916948BF43F040030B439361704708B568
:104B20003E20FCF7E7FC0346FFF7E4FF23FA00F022
:104B300008BD08B5FCF792F8FFF7AAFEFFF7BFFE25
:104B4000FFF7AFFEBDE80840FFF7ACBE08B5FFF7C2
:104B5000ABFEFFF7AAFEFFF7A9FEBDE80840FFF78E
:104B6000A6BE70472DE9F84F9946DDE90B470D9B2E
:104B700015469A0706468B4622D02A460A9901EB2B
:104B800004081444A2421FD10D9B9B0705D5A2EB3C
:104B90000508474505EB08041FD82046BDE8F88FF7
:104BA0004B4659462020B04708F10108B8450AEBAA
:104BB0000802F5D33A1BBC4288BF00222A44DDE735
:104BC000A046A5EB040AF1E702F1010A4B4659465B
:104BD00018F8010DB0475246D4E74B4622465946D5
:104BE0002020B04708F10108D3E72DE9F047DDE9BF
:104BF0000D7616F0020F9DF828E0DDE90854DDE996
:104C00000BC81FD106F001094FB1B9F1000F06D052
:104C1000BEF1000F02D116F00C0F00D0013F4FF093
:104C2000300A04E0202C04D005F804A00134A0458B
:104C3000F8D84FF0300AB9F1000F03D0BC4201D2CE
:104C40001F2C34D916F0100F1FD016F4806F33D1FB
:104C500094B3444501D0BC422ED1B4F101082AD00E
:104C6000BCF1100F33D1023C16F0200F31D11F2CB4
:104C700015D84FF0780C05F804C001341F2C0ED85D
:104C80004FF0300C05F804C001341F2C07D8BEF1DA
:104C9000000F23D04FF02D0C05F804C00134CDE9EE
:104CA0000A76CDE90854BDE8F047FFF75BBF05F889
:104CB00004A00134BFE74446BCF1100FD4D0BCF1CE
:104CC000020FDBD11F2CEAD84FF0620CD3E7444629
:104CD000F5E71F2CE3D84FF0580CCCE716F0040F83
:104CE00002D04FF02B0CD7E716F0080FD7D04FF0BB
:104CF000200CD1E72DE9F04391B0189D1A9E1D9F1D
:104D00000DB927F010077C0500D515B317F0200F5B
:104D100014BF4FF0410E4FF0610EAC4600250DF16F
:104D20002008AEF10A0EBCFBF6F906FB19C95FFAC2
:104D300089F4B9F1090F94BF30347444E4B2B44536
:104D400008F8014B05F10105BCFBF6F401D3202D59
:104D500010D11C9C069705941B9CCDE903649DF81B
:104D60006440CDE9015408AC0094FFF73EFF11B058
:104D7000BDE8F083A446D6E72DE9F04F2DED048B76
:104D800093B0289F9A46DDE92065DDE924B956EA0B
:104D9000050308BF27F0100709EE102A7A0508EE70
:104DA000100A08EE901A02D556EA05033DD017F016
:104DB000200F14BF4123612300240A3B0DF1280872
:104DC00009935A464B4630462946FEF7D3FFD2B2E6
:104DD000092A8ABF099B3032D2185E45D2B275EBE0
:104DE000090304F1010408F8012B01D3202C19D187
:104DF000279B19EE102A0593269B18EE901ACDE9F1
:104E000003B39DF8883018EE100ACDE901430AABD0
:104E1000009306975346FFF7E8FE13B0BDEC048BF2
:104E2000BDE8F08F06460D46CBE70024E0E708B169
:104E300000F001B8704701460020FFF7F1BD03699B
:104E4000C26893429CBF80681B18013B981A704748
:104E50002DE9F843D0E902940546A9EB040840681F
:104E6000904520440F46144404D900F044F8EC6007
:104E7000BDE8F8834246A4EB090400F03CF8224662
:104E8000686807EB0801F0E72DE9F8434FF00008E8
:104E9000064689461746C5683469B368A54228BFE7
:104EA000E418013C621B5C1BBC4228BF3C46944298
:104EB00028BF1446706849462844224600F01BF873
:104EC000B3682544AB4208BF00253F1BA044A14462
:104ED000F560E1D14046BDE8F88310B50B46EFF32D
:104EE00011844FF0200181F311881946FEF7B8F9BB
:104EF00084F3118810BD0A44431E914200D17047CB
:104F000010B511F8014B914203F8014FF9D110BDD2
:104F100002440346934200D1704703F8011BF9E7AE
:104F200070B568224D1E0E46554305F17401FFF71A
:104F3000A1FB044640B1002105F16802C0E900165A
:104F40000C30A060FFF7E4FF204670BD2DE9F84368
:104F50000646884600F148040027D4E90195B9F1D6
:104F6000010905D52468002CF7D13846BDE8F8833F
:104F7000AB89012B07D9B5F90E30013303D029468F
:104F80003046C04707436835E9E7704770477047C8
:104F900070B50E46B1F90E1096B0144600291D46A4
:104FA00008DAB6F90C3000222A601A0610D44FF441
:104FB00080630EE06A46FFF703FC0028F1DB019AEC
:104FC00002F47042A2F500535A425A412A60EEE7B9
:104FD00040230020236016B070BD10B50C46B1F917
:104FE0000E10FFF71DFC0028ABBF636DA3891B18D3
:104FF00023F48053ACBF6365A38110BD2DE9F0415C
:105000001F468B8905460C46DB05164605D502234F
:105010000022B1F90E10FFF7E5FBA3893246B4F97F
:105020000E10284623F48053A3813B46BDE8F0418F
:10503000FFF7A4BB10B50C46B1F90E10FFF7D2FB79
:10504000431CA38915BF606523F4805343F4805348
:10505000A38118BFA38110BDB1F90E10FFF7A0BB4B
:10506000F8B500BFF8BC08BC9E467047F8B500BF55
:10507000F8BC08BC9E467047BE0800AC33004661D1
:10508000696C656420746F2072656164206461746A
:10509000612066726F6D2041485432302E0A0048FC
:1050A000756D6964697479203D20252E32662C2047
:1050B00054656D7065726174757265203D202E2592
:1050C00032660A0053746172742067657420696ED9
:1050D000697469616C2076616C75650A00446F6E55
:1050E00065210A005374617274210A00433A2F55F6
:1050F000736572732F41444D494E2F53696D706C27
:10510000696369747953747564696F2F53444B7381
:105110002F6765636B6F5F73646B2F706C61746670
:105120006F726D2F6472697665722F693263737066
:105130006D2F7372632F736C5F69326373706D2EA2
:105140006300633A5C75736572735C61646D696E6C
:105150005C73696D706C6963697479737475646983
:105160006F5C73646B735C6765636B6F5F73646BB9
:105170005C706C6174666F726D5C656D6C69625CAD
:10518000696E635C656D5F6770696F2E6800433A96
:105190002F55736572732F41444D494E2F53696DDE
:1051A000706C696369747953747564696F2F5344C3
:1051B0004B732F6765636B6F5F73646B2F706C61EC
:1051C00074666F726D2F656D6C69622F7372632FD9
:1051D000656D5F636D752E6300433A2F557365727D
:1051E000732F41444D494E2F53696D706C6963694B
:1051F000747953747564696F2F53444B732F6765CB
:10520000636B6F5F73646B2F706C6174666F726D2C
:105210002F656D6C69622F7372632F656D5F656DAD
:10522000752E6300433A2F55736572732F41444DB9
:10523000494E2F53696D706C696369747953747545
:1052400064696F2F53444B732F6765636B6F5F7394
:10525000646B2F706C6174666F726D2F656D6C6915
:10526000622F7372632F656D5F6770696F2E6300C5
:10527000433A2F55736572732F41444D494E2F5356
:10528000696D706C696369747953747564696F2FA3
:1052900053444B732F6765636B6F5F73646B2F7041
:1052A0006C6174666F726D2F656D6C69622F7372BD
:1052B000632F656D5F6932632E63000080841E007A
:1052C000404B4C00809FD50080841E0040548900D4
:1052D000002D310108091108433A2F557365727387
:1052E0002F41444D494E2F53696D706C6963697449
:1052F0007953747564696F2F53444B732F676563DB
:105300006B6F5F73646B2F706C6174666F726D2F5F
:10531000656D6C69622F7372632F656D5F72746364
:10532000632E630001030401010109030B00000067
:105330000B00000002000000000020200000000020
:10534000030000008C8C3C00000000000000000006
:105350000000000001260000040000000000000022
:105360000001000000000000433A2F55736572737E
:105370002F41444D494E2F53696D706C69636974B8
:105380007953747564696F2F53444B732F6765634A
:105390006B6F5F73646B2F706C6174666F726D2FCF
:1053A000736572766963652F696F73747265616D79
:1053B0002F7372632F736C5F696F73747265616DA5
:1053C0005F72657461726765745F737464696F2E70
:1053D0006300433A2F55736572732F41444D494E14
:1053E0002F53696D706C696369747953747564695E
:1053F0006F2F53444B732F6765636B6F5F73646BE1
:105400002F706C6174666F726D2F7365727669634D
:10541000652F736C65657074696D65722F73726347
:105420002F736C5F736C65657074696D65722E6344
:10543000000100000005000200000300433A2F5560
:10544000736572732F41444D494E2F53696D706CD3
:10545000696369747953747564696F2F53444B732E
:105460002F6765636B6F5F73646B2F706C6174661D
:105470006F726D2F736572766963652F7564656CE5
:1054800061792F7372632F736C5F7564656C6179DA
:105490002E6300666E6900666E692B006E616E0099
:1054A000666E692D00000000000000000000F03F63
:1054B00000000000000024400000000000005940EF
:1054C0000000000000408F40000000000088C34042
:1054D00000000000006AF8400000000080842E41B7
:1054E00000000000D01263410000000084D7974103
:1054F0000000000065CDCD415465726D696E616C30
:105500000000000000000054545220524547474517
:1055100053000000441000200000000000000000C4
:10552000000000000000000000000000000000007B
:10553000000000000000000000000000000000006B
:10554000000000000000000000000000000000005B
:10555000000000000000000000000000000000004B
:10556000000000000000000000000000000000003B
:08557000000000000000000033
:0855780030B3FF7F01000000C9
:0C5580008C550000001000202A030000E1
:10558C00008006500302030300000000A086010007
:10559C0000000000C0EA2101C0EA210100F049022C
:1055AC0000800000281D0020000000007D4A000043
:1055BC00674A000000000000894A0000000000005B
:1055CC004410002000000000385500005855000021
:1055DC001855000000000000000000000000000052
:1055EC0000000000000000000000000000000000AF
:1055FC00000000000000000000000000000000009F
:10560C00000000000000000000000000000000008E
:10561C00000000000000000000000000000000007E
:10562C0000000000FFFFFFFF01041F018D080000B8
:10563C0069080000000000000000000000000000ED
:10564C00000000000000000000000000000000004E
:10565C00000000000000000000000000000000003E
:10566C00000000000000000000000000000000002E
:10567C00000000000000000000000000000000001E
:0400000300000D05E7
:00000001FF
